000000001913/05/2004H 000000000000010000000000060000015/12/199922/05/200415/12/1999+00000000000PedroX                                            00000000
000000001924/05/2004H 000000000000010000000000060000015/12/199922/05/200413/05/2004-00000000300carlosh4198_00                                    00000000
000000001920/08/2004H 000000000000010000000000060000015/12/199920/08/200424/05/2004-00000000300eudenirn4198_00                                   00000000
000000001918/11/2004H 000000000000010000000000060000015/12/199918/11/200420/08/2004-00000000300eudenirn4198_00                                   00000000
000000001916/02/2005H 000000000000010000000000060000015/12/199916/02/200518/11/2004-00000000300eudenirn4198_00                                   00000000
000000001917/05/2005H 000000000000010000000000060000015/12/199917/05/200516/02/2005-00000000300eudenirn4198_00                                   00000000
000000001915/08/2005H 000000000000010000000000060000015/12/199915/08/200517/05/2005-00000000300vladimira4198_00                                  00000000
000000001910/10/2005H 000000000000010000000000060000015/12/199913/11/200515/08/2005-00000000300vladimira4198_00                                  00000000
000000002721/05/2004H 000000000000020000000000003500015/12/199922/05/200415/12/1999+00000000000PedroX                                            00000000
000000002724/05/2004H 000000000000020000000000003500015/12/199922/05/200421/05/2004-00000000300cileanea4198_00                                   00000000
000000002720/08/2004H 000000000000020000000000003500015/12/199920/08/200424/05/2004-00000000300eudenirn4198_00                                   00000000
000000002718/11/2004H 000000000000020000000000003500015/12/199918/11/200420/08/2004-00000000300eudenirn4198_00                                   00000000
000000002716/02/2005H 000000000000020000000000003500015/12/199916/02/200518/11/2004-00000000300eudenirn4198_00                                   00000000
000000002717/05/2005H 000000000000020000000000003500015/12/199917/05/200516/02/2005-00000000300eudenirn4198_00                                   00000000
000000002715/08/2005H 000000000000020000000000003500015/12/199915/08/200517/05/2005-00000000300vladimira4198_00                                  00000000
000000002710/10/2005H 000000000000020000000000003500015/12/199913/11/200515/08/2005-00000000300vladimira4198_00                                  00000000
000000004317/05/2005H 00163         0000000000005000016/02/200517/05/200516/02/2005+00000000000eudenirn4198_00                                   00016675
000000004315/08/2005H 00163         0000000000005000016/02/200515/08/200517/05/2005+00000000000vladimira4198_00                                  00016675
000000004310/10/2005H 00163         0000000000005000016/02/200513/11/200515/08/2005+00000000000vladimira4198_00                                  00016675
000000006012/04/2004H 000000000000030000000000038500031/01/200009/04/200431/01/2000+00000000000PedroX                                            00000000
000000006024/05/2004H 000000000000030000000000038500031/01/200008/07/200412/04/2004+00000000000vladimira4198_00                                  00000000
000000006008/07/2004H 000000000000030000000000029700031/01/200008/07/200424/05/2004-00000000300cileanea4198_00                                   00000000
000000006006/10/2004H 000000000000030000000000029700031/01/200006/10/200408/07/2004-00000000300eudenirn4198_00                                   00000000
000000006004/01/2005H 000000000000030000000000029700031/01/200004/01/200506/10/2004-00000000300eudenirn4198_00                                   00000000
000000006004/04/2005H 000000000000030000000000029700031/01/200004/04/200504/01/2005-00000000300eudenirn4198_00                                   00000000
000000006004/07/2005H 000000000000030000000000029700031/01/200003/07/200504/04/2005-00000000300vladimira4198_00                                  00000000
000000006003/10/2005H 000000000000030000000000029700031/01/200001/10/200504/07/2005-00000000300vladimira4198_00                                  00000000
000000006010/10/2005H 000000000000030000000000029700031/01/200030/12/200503/10/2005-00000000300osmarv4198_00                                     00000000
000000010824/05/2004H 000000000000040000000000020000015/12/199922/05/200415/12/1999+00000000000PedroX                                            00000000
000000010820/08/2004H 000000000000040000000000020000015/12/199920/08/200424/05/2004+00000000000eudenirn4198_00                                   00000000
000000010818/11/2004H 000000000000040000000000020000015/12/199918/11/200420/08/2004+00000000000eudenirn4198_00                                   00000000
000000010816/02/2005H 000000000000040000000000020000015/12/199916/02/200518/11/2004+00000000000eudenirn4198_00                                   00000000
000000010817/05/2005H 000000000000040000000000020000015/12/199917/05/200516/02/2005+00000000000eudenirn4198_00                                   00000000
000000010815/08/2005H 000000000000040000000000020000015/12/199915/08/200517/05/2005+00000000000vladimira4198_00                                  00000000
000000010810/10/2005H 000000000000040000000000020000015/12/199913/11/200515/08/2005+00000000000vladimira4198_00                                  00000000
000000012412/04/2004H 000000000000050000000000010000026/04/200110/04/200426/04/2001+00000000000PedroX                                            00000000
000000012409/07/2004H 000000000000050000000000010000026/04/200109/07/200412/04/2004+00000000000vladimira4198_00                                  00000000
000000012407/10/2004H 000000000000050000000000010000026/04/200107/10/200409/07/2004+00000000000eudenirn4198_00                                   00000000
000000012405/01/2005H 000000000000050000000000010000026/04/200105/01/200507/10/2004+00000000000eudenirn4198_00                                   00000000
000000012405/04/2005H 000000000000050000000000010000026/04/200105/04/200505/01/2005+00000000000eudenirn4198_00                                   00000000
000000012404/07/2005H 000000000000050000000000010000026/04/200104/07/200505/04/2005+00000000000vladimira4198_00                                  00000000
000000012403/10/2005H 000000000000050000000000010000026/04/200102/10/200504/07/2005+00000000000vladimira4198_00                                  00000000
000000012410/10/2005H 000000000000050000000000010000026/04/200131/12/200503/10/2005+00000000000osmarv4198_00                                     00000000
000000016731/05/2004H 000000000000060000000000007500004/06/200329/05/200404/06/2003+00000000000PedroX                                            00000000
000000016727/08/2004H 000000000000060000000000007500004/06/200327/08/200431/05/2004+00000000000vladimira4198_00                                  00000000
000000016725/11/2004H 000000000000060000000000007500004/06/200325/11/200427/08/2004+00000000000eudenirn4198_00                                   00000000
000000016723/02/2005H 000000000000060000000000007500004/06/200323/02/200525/11/2004+00000000000eudenirn4198_00                                   00000000
000000016724/05/2005H 000000000000060000000000007500004/06/200324/05/200523/02/2005+00000000000eudenirn4198_00                                   00000000
000000016722/08/2005H 000000000000060000000000007500004/06/200322/08/200524/05/2005+00000000000vladimira4198_00                                  00000000
000000016710/10/2005H 000000000000060000000000007500004/06/200320/11/200522/08/2005+00000000000eudenirn4198_00                                   00000000
000000020517/05/2004H 000000000000070000000000020000005/06/200015/05/200405/06/2000+00000000000PedroX                                            00000000
000000020513/08/2004H 000000000000070000000000020000005/06/200013/08/200417/05/2004+00000000000eudenirn4198_00                                   00000000
000000020511/11/2004H 000000000000070000000000020000005/06/200011/11/200413/08/2004+00000000000eudenirn4198_00                                   00000000
000000020509/02/2005H 000000000000070000000000020000005/06/200009/02/200511/11/2004+00000000000eudenirn4198_00                                   00000000
000000020510/05/2005H 000000000000070000000000020000005/06/200010/05/200509/02/2005+00000000000eudenirn4198_00                                   00000000
000000020508/08/2005H 000000000000070000000000020000005/06/200008/08/200510/05/2005+00000000000eudenirn4198_00                                   00000000
000000020510/10/2005H 000000000000070000000000020000005/06/200006/11/200508/08/2005+00000000000vladimira4198_00                                  00000000
000000026419/05/2004H 000000000000080000000000014000004/06/200119/05/200404/06/2001+00000000000PedroX                                            00000000
000000026417/08/2004H 000000000000080000000000014000004/06/200117/08/200419/05/2004+00000000000eudenirn4198_00                                   00000000
000000026416/11/2004H 000000000000080000000000014000004/06/200115/11/200417/08/2004+00000000000eudenirn4198_00                                   00000000
000000026414/02/2005H 000000000000080000000000014000004/06/200113/02/200516/11/2004+00000000000vladimira4198_00                                  00000000
000000026416/05/2005H 000000000000080000000000014000004/06/200114/05/200514/02/2005+00000000000eudenirn4198_00                                   00000000
000000026412/08/2005H 000000000000080000000000014000004/06/200112/08/200516/05/2005+00000000000vladimira4198_00                                  00000000
000000026410/10/2005H 000000000000080000000000014000004/06/200110/11/200512/08/2005+00000000000vladimira4198_00                                  00000000
000000027231/05/2004H 000000000000090000000000015000018/09/200030/05/200418/09/2000+00000000000PedroX                                            00000000
000000027230/08/2004H 000000000000090000000000015000018/09/200028/08/200431/05/2004+00000000000vladimira4198_00                                  00000000
000000027226/11/2004H 000000000000090000000000015000018/09/200026/11/200430/08/2004+00000000000eudenirn4198_00                                   00000000
000000027224/02/2005H 000000000000090000000000015000018/09/200024/02/200526/11/2004+00000000000eudenirn4198_00                                   00000000
000000027225/05/2005H 000000000000090000000000015000018/09/200025/05/200524/02/2005+00000000000eudenirn4198_00                                   00000000
000000027223/08/2005H 000000000000090000000000015000018/09/200023/08/200525/05/2005+00000000000eudenirn4198_00                                   00000000
000000027210/10/2005H 000000000000090000000000015000018/09/200021/11/200523/08/2005+00000000000vladimira4198_00                                  00000000
000000032907/05/2004H 000000000000100000000000030000028/02/200007/05/200428/02/2000+00000000000PedroX                                            00000000
000000032905/08/2004H 000000000000100000000000030000028/02/200005/08/200407/05/2004+00000000000eudenirn4198_00                                   00000000
000000032903/11/2004H 000000000000100000000000030000028/02/200003/11/200405/08/2004+00000000000eudenirn4198_00                                   00000000
000000032901/02/2005H 000000000000100000000000030000028/02/200001/02/200503/11/2004+00000000000vladimira4198_00                                  00000000
000000032902/05/2005H 000000000000100000000000030000028/02/200002/05/200501/02/2005+00000000000eudenirn4198_00                                   00000000
000000032901/08/2005H 000000000000100000000000030000028/02/200031/07/200502/05/2005+00000000000eudenirn4198_00                                   00000000
000000032910/10/2005H 000000000000100000000000030000028/02/200029/10/200501/08/2005+00000000000vladimira4198_00                                  00000000
000000034522/07/2004H 0051          0000000000008500023/04/200422/07/200423/04/2004+00000000000EUDENIRN4198_00                                   00016675
000000034520/10/2004H 0051          0000000000008500023/04/200420/10/200422/07/2004+00000000000eudenirn4198_00                                   00016675
000000034507/12/2004H 0051          0000000000008500023/04/200418/01/200520/10/2004+00000000000eudenirn4198_00                                   00016675
000000036128/06/2004H 000000000000110000000000018000018/07/200027/06/200418/07/2000+00000000000PedroX                                            00000000
000000036127/09/2004H 000000000000110000000000018000018/07/200025/09/200428/06/2004+00000000000eudenirn4198_00                                   00000000
000000036124/12/2004H 000000000000110000000000018000018/07/200024/12/200427/09/2004+00000000000eudenirn4198_00                                   00000000
000000036124/03/2005H 000000000000110000000000018000018/07/200024/03/200524/12/2004+00000000000vladimira4198_00                                  00000000
000000036122/06/2005H 000000000000110000000000018000018/07/200022/06/200524/03/2005+00000000000vladimira4198_00                                  00000000
000000036120/09/2005H 000000000000110000000000018000018/07/200020/09/200522/06/2005+00000000000eudenirn4198_00                                   00000000
000000036110/10/2005H 000000000000110000000000018000018/07/200019/12/200520/09/2005+00000000000vladimira4198_00                                  00000000
000000037025/05/2004H 000000000000120000000000020000015/06/200025/05/200415/06/2000+00000000000PedroX                                            00000000
000000037023/08/2004H 000000000000120000000000020000015/06/200023/08/200425/05/2004+00000000000eudenirn4198_00                                   00000000
000000037022/11/2004H 000000000000120000000000020000015/06/200021/11/200423/08/2004+00000000000eudenirn4198_00                                   00000000
000000037021/02/2005H 000000000000120000000000020000015/06/200019/02/200522/11/2004+00000000000eudenirn4198_00                                   00000000
000000037013/04/2005H 000000000000120000000000020000015/06/200020/05/200521/02/2005+00000000000eudenirn4198_00                                   00000000
000000037020/05/2005H 000000000000120000000000019000015/06/200020/05/200513/04/2005+00000000000eudenirn4198_00                                   00016675
000000037030/05/2005H 000000000000120000000000019000015/06/200018/08/200520/05/2005+00000000000vladimira4198_00                                  00016675
000000037018/08/2005H 000000000000120000000000018000015/06/200018/08/200530/05/2005+00000000000eudenirn4198_00                                   00016675
000000037010/10/2005H 000000000000120000000000018000015/06/200016/11/200518/08/2005+00000000000eudenirn4198_00                                   00016675
000000039605/05/2004H 000000000000130000000000003500007/11/200305/05/200407/11/2003+00000000000PedroX                                            00000000
000000039603/08/2004H 000000000000130000000000003500007/11/200303/08/200405/05/2004+00000000000eudenirn4198_00                                   00000000
000000039601/11/2004H 000000000000130000000000003500007/11/200301/11/200403/08/2004+00000000000eudenirn4198_00                                   00000000
000000039631/01/2005H 000000000000130000000000003500007/11/200330/01/200501/11/2004+00000000000eudenirn4198_00                                   00000000
000000039602/05/2005H 000000000000130000000000003500007/11/200330/04/200531/01/2005+00000000000eudenirn4198_00                                   00000000
000000039629/07/2005H 000000000000130000000000003500007/11/200329/07/200502/05/2005+00000000000eudenirn4198_00                                   00000000
000000039610/10/2005H 000000000000130000000000003500007/11/200327/10/200529/07/2005+00000000000vladimira4198_00                                  00000000
000000040005/04/2004H 000000000000140000000000015000009/01/200303/04/200409/01/2003+00000000000PedroX                                            00000000
000000040002/07/2004H 000000000000140000000000015000009/01/200302/07/200405/04/2004+00000000000vladimira4198_00                                  00000000
000000040030/09/2004H 000000000000140000000000015000009/01/200330/09/200402/07/2004+00000000000eudenirn4198_00                                   00000000
000000040029/12/2004H 000000000000140000000000015000009/01/200329/12/200430/09/2004+00000000000eudenirn4198_00                                   00000000
000000040029/03/2005H 000000000000140000000000015000009/01/200329/03/200529/12/2004+00000000000eudenirn4198_00                                   00000000
000000040015/06/2005H 000000000000140000000000015000009/01/200327/06/200529/03/2005+00000000000vladimira4198_00                                  00000000
000000040019/07/2005H 0064          0000000000005000018/07/200516/10/200515/07/2005+00000000000vladimira4198_00                                  00000000
000000040010/10/2005H 0064          0000000000015000018/07/200516/10/200519/07/2005+00000000000vladimira4198_00                                  00000000
000000040017/10/2005H 0064          0000000000015000018/07/200516/10/200510/10/2005+00000000000carlosh4198_00                                    10016675
000000052307/06/2004H 000000000000150000000000002000012/06/200306/06/200412/06/2003+00000000000PedroX                                            00000000
000000052316/07/2004H 000000000000150000000000002000012/06/200304/09/200407/06/2004+00000000000eudenirn4198_00                                   00000000
000000052304/08/2004H 000000000000150000000000000500012/06/200304/09/200416/07/2004+00000000000eudenirn4198_00                                   00000000
000000071014/10/2004H 0094          0000000000020000013/10/200411/01/200513/10/2004+00000000000carlosh4198_00                                    00000000
000000071030/06/2005H 00189         0000000000002000001/04/200530/06/200501/04/2005+00000000000eudenirn4198_00                                   00016675
000000071028/09/2005H 00189         0000000000002000001/04/200528/09/200530/06/2005+00000000000eudenirn4198_00                                   00016675
000000071010/10/2005H 00189         0000000000002000001/04/200527/12/200528/09/2005+00000000000osmarv4198_00                                     00016675
000000079512/04/2004H 000000000000160000000000012000017/10/200209/04/200417/10/2002+00000000000PedroX                                            00000000
000000079508/07/2004H 000000000000160000000000012000017/10/200208/07/200412/04/2004+00000000000vladimira4198_00                                  00000000
000000079506/10/2004H 000000000000160000000000012000017/10/200206/10/200408/07/2004+00000000000eudenirn4198_00                                   00000000
000000079504/01/2005H 000000000000160000000000012000017/10/200204/01/200506/10/2004+00000000000eudenirn4198_00                                   00000000
000000079504/04/2005H 000000000000160000000000012000017/10/200204/04/200504/01/2005+00000000000eudenirn4198_00                                   00000000
000000079504/07/2005H 000000000000160000000000012000017/10/200203/07/200504/04/2005+00000000000vladimira4198_00                                  00000000
000000079503/10/2005H 000000000000160000000000012000017/10/200201/10/200504/07/2005+00000000000vladimira4198_00                                  00000000
000000079510/10/2005H 000000000000160000000000012000017/10/200230/12/200503/10/2005+00000000000osmarv4198_00                                     00000000
000000082524/06/2004H 000000000000170000000000003000001/04/200324/06/200401/04/2003+00000000000PedroX                                            00000000
000000082522/09/2004H 000000000000170000000000003000001/04/200322/09/200424/06/2004+00000000000eudenirn4198_00                                   00000000
000000082506/10/2004H 000000000000170000000000003000001/04/200321/12/200422/09/2004+00000000000eudenirn4198_00                                   00000000
000000082521/12/2004H 000000000000170000000000004000001/04/200321/12/200406/10/2004+00000000000eudenirn4198_00                                   00016675
000000082521/03/2005H 000000000000170000000000004000001/04/200321/03/200521/12/2004+00000000000eudenirn4198_00                                   00016675
000000082520/06/2005H 000000000000170000000000004000001/04/200319/06/200521/03/2005+00000000000vladimira4198_00                                  00016675
000000082519/09/2005H 000000000000170000000000004000001/04/200317/09/200520/06/2005+00000000000vladimira4198_00                                  00016675
000000082510/10/2005H 000000000000170000000000004000001/04/200316/12/200519/09/2005+00000000000vladimira4198_00                                  00016675
000000086824/05/2004H 000000000000180000000000050000015/12/199922/05/200415/12/1999+00000000000PedroX                                            00000000
000000086820/08/2004H 000000000000180000000000050000015/12/199920/08/200424/05/2004+00000000000eudenirn4198_00                                   00000000
000000086818/11/2004H 000000000000180000000000050000015/12/199918/11/200420/08/2004+00000000000eudenirn4198_00                                   00000000
000000086816/02/2005H 000000000000180000000000050000015/12/199916/02/200518/11/2004+00000000000eudenirn4198_00                                   00000000
000000086817/05/2005H 000000000000180000000000050000015/12/199917/05/200516/02/2005+00000000000eudenirn4198_00                                   00000000
000000086815/08/2005H 000000000000180000000000050000015/12/199915/08/200517/05/2005+00000000000vladimira4198_00                                  00000000
000000086810/10/2005H 000000000000180000000000050000015/12/199913/11/200515/08/2005+00000000000vladimira4198_00                                  00000000
000000087616/06/2004H 000000000000190000000000012000024/03/200316/06/200424/03/2003+00000000000PedroX                                            00000000
000000087614/09/2004H 000000000000190000000000012000024/03/200314/09/200416/06/2004+00000000000vladimira4198_00                                  00000000
000000087613/12/2004H 000000000000190000000000012000024/03/200313/12/200414/09/2004+00000000000eudenirn4198_00                                   00000000
000000087614/03/2005H 000000000000190000000000012000024/03/200313/03/200513/12/2004+00000000000eudenirn4198_00                                   00000000
000000087613/06/2005H 000000000000190000000000012000024/03/200311/06/200514/03/2005+00000000000eudenirn4198_00                                   00000000
000000087609/09/2005H 000000000000190000000000012000024/03/200309/09/200513/06/2005+00000000000vladimira4198_00                                  00000000
000000087610/10/2005H 000000000000190000000000012000024/03/200308/12/200509/09/2005+00000000000vladimira4198_00                                  00000000
000000088414/06/2004H 000000000000200000000000005000016/12/200313/06/200416/12/2003+00000000000PedroX                                            00000000
000000088413/09/2004H 000000000000200000000000005000016/12/200311/09/200414/06/2004+00000000000eudenirn4198_00                                   00000000
000000088410/12/2004H 000000000000200000000000005000016/12/200310/12/200413/09/2004+00000000000eudenirn4198_00                                   00000000
000000088410/03/2005H 000000000000200000000000005000016/12/200310/03/200510/12/2004+00000000000eudenirn4198_00                                   00000000
000000088408/06/2005H 000000000000200000000000005000016/12/200308/06/200510/03/2005+00000000000vladimira4198_00                                  00000000
000000088406/09/2005H 000000000000200000000000005000016/12/200306/09/200508/06/2005+00000000000vladimira4198_00                                  00000000
000000088410/10/2005H 000000000000200000000000005000016/12/200305/12/200506/09/2005+00000000000eudenirn4198_00                                   00000000
000000091424/05/2004H 000000000000210000000000020000006/03/200224/05/200406/03/2002+00000000000PedroX                                            00000000
000000091416/07/2004H 000000000000210000000000020000006/03/200222/08/200424/05/2004+00000000000eudenirn4198_00                                   00000000
000000091423/08/2004H 000000000000210000000000005000006/03/200222/08/200416/07/2004+00000000000vladimira4198_00                                  00000000
000000091422/11/2004H 000000000000210000000000005000006/03/200220/11/200423/08/2004+00000000000eudenirn4198_00                                   00000000
000000091418/02/2005H 000000000000210000000000005000006/03/200218/02/200522/11/2004+00000000000eudenirn4198_00                                   00000000
000000091419/05/2005H 000000000000210000000000005000006/03/200219/05/200518/02/2005+00000000000eudenirn4198_00                                   00000000
000000091417/08/2005H 000000000000210000000000005000006/03/200217/08/200519/05/2005+00000000000eudenirn4198_00                                   00000000
000000091410/10/2005H 000000000000210000000000005000006/03/200215/11/200517/08/2005+00000000000eudenirn4198_00                                   00000000
000000099022/04/2004H 000000000000220000000000010000010/08/200021/04/200410/08/2000+00000000000PedroX                                            00000000
000000099020/07/2004H 000000000000220000000000010000010/08/200020/07/200422/04/2004+00000000000EUDENIRN4198_00                                   00000000
000000099018/10/2004H 000000000000220000000000010000010/08/200018/10/200420/07/2004+00000000000eudenirn4198_00                                   00000000
000000099017/01/2005H 000000000000220000000000010000010/08/200016/01/200518/10/2004+00000000000eudenirn4198_00                                   00000000
000000099018/04/2005H 000000000000220000000000010000010/08/200016/04/200517/01/2005+00000000000vladimira4198_00                                  00000000
000000099015/07/2005H 000000000000220000000000010000010/08/200015/07/200518/04/2005+00000000000eudenirn4198_00                                   00000000
000000099010/10/2005H 000000000000220000000000010000010/08/200013/10/200515/07/2005+00000000000vladimira4198_00                                  00000000
000000099013/10/2005H 000000000000220000000000010000010/08/200013/10/200510/10/2005+00000000000carlosh4198_00                                    10016675
000000109015/06/2004H 000000000000230000000000025000023/12/200215/06/200423/12/2002+00000000000PedroX                                            00000000
000000109013/09/2004H 000000000000230000000000025000023/12/200213/09/200415/06/2004+00000000000eudenirn4198_00                                   00000000
000000109013/12/2004H 000000000000230000000000025000023/12/200212/12/200413/09/2004+00000000000eudenirn4198_00                                   00000000
000000109014/03/2005H 000000000000230000000000025000023/12/200212/03/200513/12/2004+00000000000eudenirn4198_00                                   00000000
000000109010/06/2005H 000000000000230000000000025000023/12/200210/06/200514/03/2005+00000000000eudenirn4198_00                                   00000000
000000109008/09/2005H 000000000000230000000000025000023/12/200208/09/200510/06/2005+00000000000vladimira4198_00                                  00000000
000000111231/05/2004H 000000000000240000000000002000001/12/200329/05/200401/12/2003+00000000000PedroX                                            00000000
000000111227/08/2004H 000000000000240000000000002000001/12/200327/08/200431/05/2004+00000000000vladimira4198_00                                  00000000
000000111225/11/2004H 000000000000240000000000002000001/12/200325/11/200427/08/2004+00000000000eudenirn4198_00                                   00000000
000000111223/02/2005H 000000000000240000000000002000001/12/200323/02/200525/11/2004+00000000000eudenirn4198_00                                   00000000
000000111224/05/2005H 000000000000240000000000002000001/12/200324/05/200523/02/2005+00000000000eudenirn4198_00                                   00000000
000000111222/08/2005H 000000000000240000000000002000001/12/200322/08/200524/05/2005+00000000000vladimira4198_00                                  00000000
000000121007/06/2004H 000000000000250000000000012000009/12/200306/06/200409/12/2003+00000000000PedroX                                            00000000
000000121006/09/2004H 000000000000250000000000012000009/12/200304/09/200407/06/2004+00000000000eudenirn4198_00                                   00000000
000000121003/12/2004H 000000000000250000000000012000009/12/200303/12/200406/09/2004+00000000000eudenirn4198_00                                   00000000
000000121003/03/2005H 000000000000250000000000012000009/12/200303/03/200503/12/2004+00000000000eudenirn4198_00                                   00000000
000000121001/06/2005H 000000000000250000000000012000009/12/200301/06/200503/03/2005+00000000000eudenirn4198_00                                   00000000
000000121030/08/2005H 000000000000250000000000012000009/12/200330/08/200501/06/2005+00000000000eudenirn4198_00                                   00000000
000000135022/04/2004H 000000000000260000000000010000008/11/200021/04/200408/11/2000+00000000000PedroX                                            00000000
000000135020/07/2004H 000000000000260000000000010000008/11/200020/07/200422/04/2004+00000000000EUDENIRN4198_00                                   00000000
000000135018/10/2004H 000000000000260000000000010000008/11/200018/10/200420/07/2004+00000000000eudenirn4198_00                                   00000000
000000135017/01/2005H 000000000000260000000000010000008/11/200016/01/200518/10/2004+00000000000eudenirn4198_00                                   00000000
000000136824/05/2004H 000000000000270000000000013000002/09/200224/05/200402/09/2002+00000000000PedroX                                            00000000
000000136823/08/2004H 000000000000270000000000013000002/09/200222/08/200424/05/2004+00000000000eudenirn4198_00                                   00000000
000000136822/11/2004H 000000000000270000000000013000002/09/200220/11/200423/08/2004+00000000000eudenirn4198_00                                   00000000
000000136818/02/2005H 000000000000270000000000013000002/09/200218/02/200522/11/2004+00000000000eudenirn4198_00                                   00000000
000000136819/05/2005H 000000000000270000000000013000002/09/200219/05/200518/02/2005+00000000000eudenirn4198_00                                   00000000
000000136817/08/2005H 000000000000270000000000013000002/09/200217/08/200519/05/2005+00000000000eudenirn4198_00                                   00000000
000000140612/04/2004H 000000000000280000000000006000014/07/200309/04/200414/07/2003+00000000000PedroX                                            00000000
000000140608/07/2004H 000000000000280000000000006000014/07/200308/07/200412/04/2004+00000000000vladimira4198_00                                  00000000
000000140606/10/2004H 000000000000280000000000006000014/07/200306/10/200408/07/2004+00000000000eudenirn4198_00                                   00000000
000000140609/11/2004H 000000000000280000000000006000014/07/200304/01/200506/10/2004+00000000000eudenirn4198_00                                   00000000
000000149020/06/2005H 00122         0000000000010000021/03/200519/06/200521/03/2005+00000000000eudenirn4198_00                                   00016675
000000149019/09/2005H 00122         0000000000010000021/03/200517/09/200520/06/2005+00000000000vladimira4198_00                                  00016675
000000149013/10/2005H 00122         0000000000010000021/03/200516/12/200519/09/2005+00000000000vladimira4198_00                                  00016675
000000152020/05/2004H 000000000000290000000000006000029/08/200220/05/200429/08/2002+00000000000PedroX                                            00000000
000000152018/08/2004H 000000000000290000000000006000029/08/200218/08/200420/05/2004+00000000000eudenirn4198_00                                   00000000
000000152016/11/2004H 000000000000290000000000006000029/08/200216/11/200418/08/2004+00000000000eudenirn4198_00                                   00000000
000000152014/02/2005H 000000000000290000000000006000029/08/200214/02/200516/11/2004+00000000000vladimira4198_00                                  00000000
000000152016/05/2005H 000000000000290000000000006000029/08/200215/05/200514/02/2005+00000000000eudenirn4198_00                                   00000000
000000152015/08/2005H 000000000000290000000000006000029/08/200213/08/200516/05/2005+00000000000vladimira4198_00                                  00000000
000000156221/06/2004H 000000000000300000000000010000010/10/200021/06/200410/10/2000+00000000000PedroX                                            00000000
000000156220/09/2004H 000000000000300000000000010000010/10/200019/09/200421/06/2004+00000000000eudenirn4198_00                                   00000000
000000156220/12/2004H 000000000000300000000000010000010/10/200018/12/200420/09/2004+00000000000vladimira4198_00                                  00000000
000000156218/03/2005H 000000000000300000000000010000010/10/200018/03/200520/12/2004+00000000000vladimira4198_00                                  00000000
000000156216/06/2005H 000000000000300000000000010000010/10/200016/06/200518/03/2005+00000000000vladimira4198_00                                  00000000
000000156214/09/2005H 000000000000300000000000010000010/10/200014/09/200516/06/2005+00000000000eudenirn4198_00                                   00000000
000000166006/05/2004H 000000000000310000000000020000021/02/200106/05/200421/02/2001+00000000000PedroX                                            00000000
000000166022/07/2004H 000000000000310000000000020000021/02/200104/08/200406/05/2004+00000000000eudenirn4198_00                                   00000000
000000170828/06/2004H 000000000000320000000000008000008/01/200226/06/200408/01/2002+00000000000PedroX                                            00000000
000000170824/09/2004H 000000000000320000000000008000008/01/200224/09/200428/06/2004+00000000000eudenirn4198_00                                   00000000
000000170823/12/2004H 000000000000320000000000008000008/01/200223/12/200424/09/2004+00000000000eudenirn4198_00                                   00000000
000000170823/03/2005H 000000000000320000000000008000008/01/200223/03/200523/12/2004+00000000000eudenirn4198_00                                   00000000
000000170821/06/2005H 000000000000320000000000008000008/01/200221/06/200523/03/2005+00000000000vladimira4198_00                                  00000000
000000170819/09/2005H 000000000000320000000000008000008/01/200219/09/200521/06/2005+00000000000vladimira4198_00                                  00000000
000000172417/05/2004H 000000000000330000000000012000006/04/200016/05/200406/04/2000+00000000000PedroX                                            00000000
000000172416/08/2004H 000000000000330000000000012000006/04/200014/08/200417/05/2004+00000000000eudenirn4198_00                                   00000000
000000172412/11/2004H 000000000000330000000000012000006/04/200012/11/200416/08/2004+00000000000eudenirn4198_00                                   00000000
000000172410/02/2005H 000000000000330000000000012000006/04/200010/02/200512/11/2004+00000000000eudenirn4198_00                                   00000000
000000172411/05/2005H 000000000000330000000000012000006/04/200011/05/200510/02/2005+00000000000eudenirn4198_00                                   00000000
000000172409/08/2005H 000000000000330000000000012000006/04/200009/08/200511/05/2005+00000000000eudenirn4198_00                                   00000000
000000173214/06/2004H 000000000000340000000000005000017/09/200313/06/200417/09/2003+00000000000PedroX                                            00000000
000000173213/09/2004H 000000000000340000000000005000017/09/200311/09/200414/06/2004+00000000000eudenirn4198_00                                   00000000
000000173210/12/2004H 000000000000340000000000005000017/09/200310/12/200413/09/2004+00000000000eudenirn4198_00                                   00000000
000000173210/03/2005H 000000000000340000000000005000017/09/200310/03/200510/12/2004+00000000000eudenirn4198_00                                   00000000
000000173208/06/2005H 000000000000340000000000005000017/09/200308/06/200510/03/2005+00000000000vladimira4198_00                                  00000000
000000173206/09/2005H 000000000000340000000000005000017/09/200306/09/200508/06/2005+00000000000vladimira4198_00                                  00000000
000000176707/05/2004H 000000000000350000000000010000028/02/200007/05/200428/02/2000+00000000000PedroX                                            00000000
000000176721/05/2004H 000000000000350000000000010000028/02/200005/08/200407/05/2004+00000000000eudenirn4198_00                                   00000000
000000176705/08/2004H 000000000000350000000000010000028/02/200005/08/200421/05/2004-00000000300cileanea4198_00                                   00000000
000000176703/11/2004H 000000000000350000000000010000028/02/200003/11/200405/08/2004-00000000300eudenirn4198_00                                   00000000
000000176701/02/2005H 000000000000350000000000010000028/02/200001/02/200503/11/2004-00000000300vladimira4198_00                                  00000000
000000176702/05/2005H 000000000000350000000000010000028/02/200002/05/200501/02/2005-00000000300eudenirn4198_00                                   00000000
000000176701/08/2005H 000000000000350000000000010000028/02/200031/07/200502/05/2005-00000000300eudenirn4198_00                                   00000000
000000180525/05/2004H 000000000000360000000000001500003/09/200225/05/200403/09/2002+00000000000PedroX                                            00000000
000000180504/08/2004H 000000000000360000000000001500003/09/200223/08/200425/05/2004+00000000000eudenirn4198_00                                   00000000
000000180523/08/2004H 000000000000360000000000005000003/09/200223/08/200404/08/2004+00000000000eudenirn4198_00                                   00016675
000000180522/11/2004H 000000000000360000000000005000003/09/200221/11/200423/08/2004+00000000000eudenirn4198_00                                   00016675
000000180521/02/2005H 000000000000360000000000005000003/09/200219/02/200522/11/2004+00000000000eudenirn4198_00                                   00016675
000000180502/05/2005H 000000000000360000000000005000003/09/200220/05/200521/02/2005+00000000000eudenirn4198_00                                   00016675
000000180520/05/2005H 000000000000360000000000008000003/09/200220/05/200502/05/2005+00000000000eudenirn4198_00                                   00016675
000000180518/08/2005H 000000000000360000000000008000003/09/200218/08/200520/05/2005+00000000000vladimira4198_00                                  00016675
000000180501/09/2005H 000000000000360000000000008000003/09/200216/11/200518/08/2005+00000000000eudenirn4198_00                                   00016675
000000180513/10/2005H 000000000000360000000000010000003/09/200216/11/200501/09/2005+00000000000eudenirn4198_00                                   00016675
000000181326/04/2004H 000000000000370000000000028000006/05/200225/04/200406/05/2002+00000000000PedroX                                            00000000
000000181326/07/2004H 000000000000370000000000028000006/05/200224/07/200426/04/2004+00000000000EUDENIRN4198_00                                   00000000
000000181313/09/2004H 000000000000370000000000028000006/05/200222/10/200426/07/2004+00000000000eudenirn4198_00                                   00000000
000000181322/10/2004H 000000000000370000000000028000006/05/200222/10/200413/09/2004-00000000300cileanea4198_00                                   00000000
000000181320/01/2005H 000000000000370000000000028000006/05/200220/01/200522/10/2004-00000000300vladimira4198_00                                  00000000
000000181320/04/2005H 000000000000370000000000028000006/05/200220/04/200520/01/2005-00000000300vladimira4198_00                                  00000000
000000181319/07/2005H 000000000000370000000000028000006/05/200219/07/200520/04/2005-00000000300vladimira4198_00                                  00000000
000000181317/10/2005H 000000000000370000000000028000006/05/200217/10/200519/07/2005-00000000300eudenirn4198_00                                   00000000
000000183003/05/2004H 000000000000380000000000010000014/05/200203/05/200414/05/2002+00000000000PedroX                                            00000000
000000183002/08/2004H 000000000000380000000000010000014/05/200201/08/200403/05/2004+00000000000eudenirn4198_00                                   00000000
000000183001/11/2004H 000000000000380000000000010000014/05/200230/10/200402/08/2004+00000000000eudenirn4198_00                                   00000000
000000183028/01/2005H 000000000000380000000000010000014/05/200228/01/200501/11/2004+00000000000eudenirn4198_00                                   00000000
000000183028/04/2005H 000000000000380000000000010000014/05/200228/04/200528/01/2005+00000000000eudenirn4198_00                                   00000000
000000183027/07/2005H 000000000000380000000000010000014/05/200227/07/200528/04/2005+00000000000eudenirn4198_00                                   00000000
000000184818/06/2004H 000000000000390000000000005000002/10/200118/06/200402/10/2001+00000000000PedroX                                            00000000
000000184816/09/2004H 000000000000390000000000005000002/10/200116/09/200418/06/2004+00000000000eudenirn4198_00                                   00000000
000000184815/12/2004H 000000000000390000000000005000002/10/200115/12/200416/09/2004+00000000000eudenirn4198_00                                   00000000
000000184806/01/2005H 000000000000390000000000005000002/10/200115/03/200515/12/2004+00000000000vladimira4198_00                                  00000000
000000184815/03/2005H 000000000000390000000000010000002/10/200115/03/200506/01/2005+00000000000eudenirn4198_00                                   00016675
000000184813/06/2005H 000000000000390000000000010000002/10/200113/06/200515/03/2005+00000000000eudenirn4198_00                                   00016675
000000184812/09/2005H 000000000000390000000000010000002/10/200111/09/200513/06/2005+00000000000vladimira4198_00                                  00016675
000000184813/10/2005H 000000000000390000000000010000002/10/200110/12/200512/09/2005+00000000000vladimira4198_00                                  00016675
000000191021/05/2004H 000000000000400000000000015000012/06/200201/06/200412/06/2002+00000000000PedroX                                            00000000
000000191001/06/2004H 000000000000400000000000015000012/06/200201/06/200421/05/2004-00000000300cileanea4198_00                                   00000000
000000191030/08/2004H 000000000000400000000000015000012/06/200230/08/200401/06/2004-00000000300eudenirn4198_00                                   00000000
000000191029/11/2004H 000000000000400000000000015000012/06/200228/11/200430/08/2004-00000000300eudenirn4198_00                                   00000000
000000191028/02/2005H 000000000000400000000000015000012/06/200226/02/200529/11/2004-00000000300eudenirn4198_00                                   00000000
000000191027/05/2005H 000000000000400000000000015000012/06/200227/05/200528/02/2005-00000000300vladimira4198_00                                  00000000
000000191025/08/2005H 000000000000400000000000015000012/06/200225/08/200527/05/2005-00000000300eudenirn4198_00                                   00000000
000000191013/10/2005H 000000000000400000000000015000012/06/200223/11/200525/08/2005-00000000300vladimira4198_00                                  00000000
000000200308/06/2004H 000000000000410000000000005000012/09/200308/06/200412/09/2003+00000000000PedroX                                            00000000
000000200306/09/2004H 000000000000410000000000005000012/09/200306/09/200408/06/2004+00000000000vladimira4198_00                                  00000000
000000200306/12/2004H 000000000000410000000000005000012/09/200305/12/200406/09/2004+00000000000eudenirn4198_00                                   00000000
000000200314/12/2004H 000000000000410000000000005000012/09/200305/03/200506/12/2004+00000000000eudenirn4198_00                                   00000000
000000204629/06/2004H 000000000000420000000000002000011/04/200229/06/200411/04/2002+00000000000PedroX                                            00000000
000000204627/09/2004H 000000000000420000000000002000011/04/200227/09/200429/06/2004+00000000000eudenirn4198_00                                   00000000
000000204627/12/2004H 000000000000420000000000002000011/04/200226/12/200427/09/2004+00000000000eudenirn4198_00                                   00000000
000000204628/03/2005H 000000000000420000000000002000011/04/200226/03/200527/12/2004+00000000000eudenirn4198_00                                   00000000
000000204606/06/2005H 000000000000420000000000002000011/04/200224/06/200528/03/2005+00000000000vladimira4198_00                                  00000000
000000208902/06/2004H 000000000000430000000000010000015/03/200202/06/200415/03/2002+00000000000PedroX                                            00000000
000000208931/08/2004H 000000000000430000000000010000015/03/200231/08/200402/06/2004+00000000000eudenirn4198_00                                   00000000
000000208929/11/2004H 000000000000430000000000010000015/03/200229/11/200431/08/2004+00000000000eudenirn4198_00                                   00000000
000000208928/02/2005H 000000000000430000000000010000015/03/200227/02/200529/11/2004+00000000000eudenirn4198_00                                   00000000
000000208930/05/2005H 000000000000430000000000010000015/03/200228/05/200528/02/2005+00000000000vladimira4198_00                                  00000000
000000208926/08/2005H 000000000000430000000000010000015/03/200226/08/200530/05/2005+00000000000eudenirn4198_00                                   00000000
000000211910/05/2004H 000000000000440000000000005000021/05/200210/05/200421/05/2002+00000000000PedroX                                            00000000
000000211909/08/2004H 000000000000440000000000005000021/05/200208/08/200410/05/2004+00000000000eudenirn4198_00                                   00000000
000000211908/11/2004H 000000000000440000000000005000021/05/200206/11/200409/08/2004+00000000000eudenirn4198_00                                   00000000
000000211904/02/2005H 000000000000440000000000005000021/05/200204/02/200508/11/2004+00000000000eudenirn4198_00                                   00000000
000000211905/05/2005H 000000000000440000000000005000021/05/200205/05/200504/02/2005+00000000000eudenirn4198_00                                   00000000
000000211903/08/2005H 000000000000440000000000005000021/05/200203/08/200505/05/2005+00000000000vladimira4198_00                                  00000000
000000212731/05/2004H 000000000000450000000000008000010/06/200230/05/200410/06/2002+00000000000PedroX                                            00000000
000000212730/08/2004H 000000000000450000000000008000010/06/200228/08/200431/05/2004+00000000000vladimira4198_00                                  00000000
000000212726/11/2004H 000000000000450000000000008000010/06/200226/11/200430/08/2004+00000000000eudenirn4198_00                                   00000000
000000212724/02/2005H 000000000000450000000000008000010/06/200224/02/200526/11/2004+00000000000eudenirn4198_00                                   00000000
000000212725/05/2005H 000000000000450000000000008000010/06/200225/05/200524/02/2005+00000000000eudenirn4198_00                                   00000000
000000212723/08/2005H 000000000000450000000000008000010/06/200223/08/200525/05/2005+00000000000eudenirn4198_00                                   00000000
000000215107/05/2004H 000000000000460000000000005000028/02/200007/05/200428/02/2000+00000000000PedroX                                            00000000
000000215105/08/2004H 000000000000460000000000005000028/02/200005/08/200407/05/2004+00000000000eudenirn4198_00                                   00000000
000000215103/11/2004H 000000000000460000000000005000028/02/200003/11/200405/08/2004+00000000000eudenirn4198_00                                   00000000
000000215101/02/2005H 000000000000460000000000005000028/02/200001/02/200503/11/2004+00000000000vladimira4198_00                                  00000000
000000215102/05/2005H 000000000000460000000000005000028/02/200002/05/200501/02/2005+00000000000eudenirn4198_00                                   00000000
000000215101/08/2005H 000000000000460000000000005000028/02/200031/07/200502/05/2005+00000000000eudenirn4198_00                                   00000000
000000216004/05/2004H 000000000000470000000000006000025/05/200004/05/200425/05/2000+00000000000PedroX                                            00000000
000000216002/08/2004H 000000000000470000000000006000025/05/200002/08/200404/05/2004+00000000000eudenirn4198_00                                   00000000
000000216001/11/2004H 000000000000470000000000006000025/05/200031/10/200402/08/2004+00000000000eudenirn4198_00                                   00000000
000000216031/01/2005H 000000000000470000000000006000025/05/200029/01/200501/11/2004+00000000000eudenirn4198_00                                   00000000
000000216029/04/2005H 000000000000470000000000006000025/05/200029/04/200531/01/2005+00000000000eudenirn4198_00                                   00000000
000000216028/07/2005H 000000000000470000000000006000025/05/200028/07/200529/04/2005+00000000000vladimira4198_00                                  00000000
000000221629/06/2004H 000000000000480000000000004000003/10/200329/06/200403/10/2003+00000000000PedroX                                            00000000
000000221627/09/2004H 000000000000480000000000004000003/10/200327/09/200429/06/2004+00000000000eudenirn4198_00                                   00000000
000000221627/12/2004H 000000000000480000000000004000003/10/200326/12/200427/09/2004+00000000000eudenirn4198_00                                   00000000
000000221628/03/2005H 000000000000480000000000004000003/10/200326/03/200527/12/2004+00000000000eudenirn4198_00                                   00000000
000000221624/06/2005H 000000000000480000000000004000003/10/200324/06/200528/03/2005+00000000000vladimira4198_00                                  00000000
000000221622/09/2005H 000000000000480000000000004000003/10/200322/09/200524/06/2005+00000000000vladimira4198_00                                  00000000
000000227504/06/2004H 000000000000490000000000056000025/06/200004/06/200425/06/2000+00000000000PedroX                                            00000000
000000227502/09/2004H 000000000000490000000000056000025/06/200002/09/200404/06/2004+00000000000eudenirn4198_00                                   00000000
000000227501/12/2004H 000000000000490000000000056000025/06/200001/12/200402/09/2004+00000000000eudenirn4198_00                                   00000000
000000227501/03/2005H 000000000000490000000000056000025/06/200001/03/200501/12/2004+00000000000eudenirn4198_00                                   00000000
000000227530/05/2005H 000000000000490000000000056000025/06/200030/05/200501/03/2005+00000000000vladimira4198_00                                  00000000
000000227529/08/2005H 000000000000490000000000056000025/06/200028/08/200530/05/2005+00000000000eudenirn4198_00                                   00000000
000000240222/04/2004H 000000000000500000000000010000007/02/200122/04/200407/02/2001+00000000000PedroX                                            00000000
000000240221/07/2004H 000000000000500000000000010000007/02/200121/07/200422/04/2004+00000000000EUDENIRN4198_00                                   00000000
000000240219/10/2004H 000000000000500000000000010000007/02/200119/10/200421/07/2004+00000000000eudenirn4198_00                                   00000000
000000240217/01/2005H 000000000000500000000000010000007/02/200117/01/200519/10/2004+00000000000eudenirn4198_00                                   00000000
000000241031/05/2004H 000000000000510000000000005000014/09/200131/05/200414/09/2001+00000000000PedroX                                            00000000
000000241030/08/2004H 000000000000510000000000005000014/09/200129/08/200431/05/2004+00000000000vladimira4198_00                                  00000000
000000241029/11/2004H 000000000000510000000000005000014/09/200127/11/200430/08/2004+00000000000eudenirn4198_00                                   00000000
000000241025/02/2005H 000000000000510000000000005000014/09/200125/02/200529/11/2004+00000000000eudenirn4198_00                                   00000000
000000241027/05/2005H 000000000000510000000000005000014/09/200126/05/200525/02/2005+00000000000eudenirn4198_00                                   00000000
000000241024/08/2005H 000000000000510000000000005000014/09/200124/08/200527/05/2005+00000000000eudenirn4198_00                                   00000000
000000245314/06/2004H 000000000000520000000000004000020/12/200212/06/200420/12/2002+00000000000PedroX                                            00000000
000000245310/09/2004H 000000000000520000000000004000020/12/200210/09/200414/06/2004+00000000000eudenirn4198_00                                   00000000
000000245309/12/2004H 000000000000520000000000004000020/12/200209/12/200410/09/2004+00000000000eudenirn4198_00                                   00000000
000000245309/03/2005H 000000000000520000000000004000020/12/200209/03/200509/12/2004+00000000000eudenirn4198_00                                   00000000
000000252613/10/2005H 00121         0000000000005000008/08/200506/11/200508/08/2005+00000000000eudenirn4198_00                                   00016675
000000259306/05/2004H 000000000000530000000000010000011/02/200306/05/200411/02/2003+00000000000PedroX                                            00000000
000000259304/08/2004H 000000000000530000000000010000011/02/200304/08/200406/05/2004+00000000000eudenirn4198_00                                   00000000
000000259303/11/2004H 000000000000530000000000010000011/02/200302/11/200404/08/2004+00000000000eudenirn4198_00                                   00000000
000000259331/01/2005H 000000000000530000000000010000011/02/200331/01/200503/11/2004+00000000000vladimira4198_00                                  00000000
000000259302/05/2005H 000000000000530000000000010000011/02/200301/05/200531/01/2005+00000000000eudenirn4198_00                                   00000000
000000259301/08/2005H 000000000000530000000000010000011/02/200330/07/200502/05/2005+00000000000eudenirn4198_00                                   00000000
000000271226/04/2004H 000000000000540000000000015000009/02/200124/04/200409/02/2001+00000000000PedroX                                            00000000
000000271223/07/2004H 000000000000540000000000015000009/02/200123/07/200426/04/2004+00000000000EUDENIRN4198_00                                   00000000
000000271221/10/2004H 000000000000540000000000015000009/02/200121/10/200423/07/2004+00000000000vladimira4198_00                                  00000000
000000271219/01/2005H 000000000000540000000000015000009/02/200119/01/200521/10/2004+00000000000eudenirn4198_00                                   00000000
000000271219/04/2005H 000000000000540000000000015000009/02/200119/04/200519/01/2005+00000000000vladimira4198_00                                  00000000
000000271218/07/2005H 000000000000540000000000015000009/02/200118/07/200519/04/2005+00000000000vladimira4198_00                                  00000000
000000271217/10/2005H 000000000000540000000000015000009/02/200116/10/200518/07/2005+00000000000eudenirn4198_00                                   00000000
000000280112/04/2004H 000000000000550000000000021000031/01/200009/04/200431/01/2000+00000000000PedroX                                            00000000
000000280108/07/2004H 000000000000550000000000021000031/01/200008/07/200412/04/2004+00000000000vladimira4198_00                                  00000000
000000280106/10/2004H 000000000000550000000000021000031/01/200006/10/200408/07/2004+00000000000eudenirn4198_00                                   00000000
000000280104/01/2005H 000000000000550000000000021000031/01/200004/01/200506/10/2004+00000000000eudenirn4198_00                                   00000000
000000280104/04/2005H 000000000000550000000000021000031/01/200004/04/200504/01/2005+00000000000eudenirn4198_00                                   00000000
000000280104/07/2005H 000000000000550000000000021000031/01/200003/07/200504/04/2005+00000000000vladimira4198_00                                  00000000
000000280103/10/2005H 000000000000550000000000021000031/01/200001/10/200504/07/2005+00000000000vladimira4198_00                                  00000000
000000311505/04/2004H 000000000000560000000000006000008/10/200305/04/200408/10/2003+00000000000PedroX                                            00000000
000000311505/07/2004H 000000000000560000000000006000008/10/200304/07/200405/04/2004+00000000000vladimira4198_00                                  00000000
000000311504/10/2004H 000000000000560000000000006000008/10/200302/10/200405/07/2004+00000000000eudenirn4198_00                                   00000000
000000311531/12/2004H 000000000000560000000000006000008/10/200331/12/200404/10/2004+00000000000vladimira4198_00                                  00000000
000000311531/03/2005H 000000000000560000000000006000008/10/200331/03/200531/12/2004+00000000000eudenirn4198_00                                   00000000
000000311529/06/2005H 000000000000560000000000006000008/10/200329/06/200531/03/2005+00000000000eudenirn4198_00                                   00000000
000000311527/09/2005H 000000000000560000000000006000008/10/200327/09/200529/06/2005+00000000000vladimira4198_00                                  00000000
000000316628/10/2004H 00155         0000000000010000030/07/200428/10/200430/07/2004+00000000000vladimira4198_00                                  00016675
000000316626/01/2005H 00155         0000000000010000030/07/200426/01/200528/10/2004+00000000000eudenirn4198_00                                   00016675
000000316626/04/2005H 00155         0000000000010000030/07/200426/04/200526/01/2005+00000000000eudenirn4198_00                                   00016675
000000316625/07/2005H 00155         0000000000010000030/07/200425/07/200526/04/2005+00000000000vladimira4198_00                                  00016675
000000316613/10/2005H 00155         0000000000010000030/07/200423/10/200525/07/2005+00000000000eudenirn4198_00                                   00016675
000000338705/04/2004H 000000000000570000000000003000009/10/200306/04/200409/10/2003+00000000000PedroX                                            00000000
000000338705/07/2004H 000000000000570000000000003000009/10/200305/07/200405/04/2004+00000000000vladimira4198_00                                  00000000
000000338704/10/2004H 000000000000570000000000003000009/10/200303/10/200405/07/2004+00000000000eudenirn4198_00                                   00000000
000000338703/01/2005H 000000000000570000000000003000009/10/200301/01/200504/10/2004+00000000000vladimira4198_00                                  00000000
000000338701/04/2005H 000000000000570000000000003000009/10/200301/04/200503/01/2005+00000000000vladimira4198_00                                  00000000
000000338730/06/2005H 000000000000570000000000003000009/10/200330/06/200501/04/2005+00000000000vladimira4198_00                                  00000000
000000338701/07/2005H 000000000000570000000000003000009/10/200328/09/200530/06/2005+00000000000eudenirn4198_00                                   00000000
000000341714/06/2004H 000000000000580000000000004000002/10/200013/06/200402/10/2000+00000000000PedroX                                            00000000
000000341713/09/2004H 000000000000580000000000004000002/10/200011/09/200414/06/2004+00000000000eudenirn4198_00                                   00000000
000000341710/12/2004H 000000000000580000000000004000002/10/200010/12/200413/09/2004+00000000000eudenirn4198_00                                   00000000
000000341710/03/2005H 000000000000580000000000004000002/10/200010/03/200510/12/2004+00000000000eudenirn4198_00                                   00000000
000000341714/03/2005H 000000000000580000000000004000002/10/200008/06/200510/03/2005+00000000000vladimira4198_00                                  00000000
000000341708/06/2005H 000000000000580000000000007000002/10/200008/06/200514/03/2005+00000000000eudenirn4198_00                                   00016675
000000341706/09/2005H 000000000000580000000000007000002/10/200006/09/200508/06/2005+00000000000vladimira4198_00                                  00016675
000000341713/10/2005H 000000000000580000000000007000002/10/200005/12/200506/09/2005+00000000000eudenirn4198_00                                   00016675
000000342504/06/2004H 000000000000590000000000005000012/03/200304/06/200412/03/2003+00000000000PedroX                                            00000000
000000342502/09/2004H 000000000000590000000000005000012/03/200302/09/200404/06/2004+00000000000eudenirn4198_00                                   00000000
000000342501/12/2004H 000000000000590000000000005000012/03/200301/12/200402/09/2004+00000000000eudenirn4198_00                                   00000000
000000342501/03/2005H 000000000000590000000000005000012/03/200301/03/200501/12/2004+00000000000eudenirn4198_00                                   00000000
000000342530/05/2005H 000000000000590000000000005000012/03/200330/05/200501/03/2005+00000000000vladimira4198_00                                  00000000
000000342529/08/2005H 000000000000590000000000005000012/03/200328/08/200530/05/2005+00000000000eudenirn4198_00                                   00000000
000000344130/05/2005H 00112         0000000000003500028/02/200529/05/200528/02/2005+00000000000eudenirn4198_00                                   00016675
000000344121/06/2005H 00112         0000000000003500028/02/200527/08/200530/05/2005+00000000000eudenirn4198_00                                   00016675
000000344108/08/2005H 00112         0000000000005500028/02/200527/08/200521/06/2005+00000000000eudenirn4198_00                                   00016675
000000344129/08/2005H 00112         0000000000008000028/02/200527/08/200508/08/2005+00000000000eudenirn4198_00                                   00016675
000000344113/10/2005H 00112         0000000000008000028/02/200525/11/200529/08/2005+00000000000vladimira4198_00                                  00016675
000000355719/05/2004H 000000000000600000000000012000001/03/200219/05/200401/03/2002+00000000000PedroX                                            00000000
000000355717/08/2004H 000000000000600000000000012000001/03/200217/08/200419/05/2004+00000000000eudenirn4198_00                                   00000000
000000355716/11/2004H 000000000000600000000000012000001/03/200215/11/200417/08/2004+00000000000eudenirn4198_00                                   00000000
000000355714/02/2005H 000000000000600000000000012000001/03/200213/02/200516/11/2004+00000000000vladimira4198_00                                  00000000
000000355716/05/2005H 000000000000600000000000012000001/03/200214/05/200514/02/2005+00000000000eudenirn4198_00                                   00000000
000000355712/08/2005H 000000000000600000000000012000001/03/200212/08/200516/05/2005+00000000000vladimira4198_00                                  00000000
000000357315/04/2004H 000000000000610000000000004500022/01/200316/04/200422/01/2003+00000000000PedroX                                            00000000
000000357315/07/2004H 000000000000610000000000004500022/01/200315/07/200415/04/2004+00000000000vladimira4198_00                                  00000000
000000357313/10/2004H 000000000000610000000000004500022/01/200313/10/200415/07/2004+00000000000vladimira4198_00                                  00000000
000000357311/01/2005H 000000000000610000000000004500022/01/200311/01/200513/10/2004+00000000000eudenirn4198_00                                   00000000
000000357311/04/2005H 000000000000610000000000004500022/01/200311/04/200511/01/2005+00000000000eudenirn4198_00                                   00000000
000000357311/07/2005H 000000000000610000000000004500022/01/200310/07/200511/04/2005+00000000000vladimira4198_00                                  00000000
000000357310/10/2005H 000000000000610000000000004500022/01/200308/10/200511/07/2005+00000000000vladimira4198_00                                  00000000
000000360314/06/2004H 000000000000620000000000005000005/04/200013/06/200405/04/2000+00000000000PedroX                                            00000000
000000360324/06/2004H 000000000000620000000000005000005/04/200011/09/200414/06/2004+00000000000eudenirn4198_00                                   00000000
000000360313/09/2004H 000000000000620000000000020000005/04/200011/09/200424/06/2004+00000000000vladimira4198_00                                  00016675
000000360318/10/2004H 000000000000620000000000020000005/04/200010/12/200413/09/2004+00000000000eudenirn4198_00                                   00016675
000000360310/12/2004H 000000000000620000000000005000005/04/200010/12/200418/10/2004+00000000000eudenirn4198_00                                   00016675
000000360310/03/2005H 000000000000620000000000005000005/04/200010/03/200510/12/2004+00000000000eudenirn4198_00                                   00016675
000000360308/06/2005H 000000000000620000000000005000005/04/200008/06/200510/03/2005+00000000000vladimira4198_00                                  00016675
000000360314/06/2005H 000000000000620000000000005000005/04/200006/09/200508/06/2005+00000000000vladimira4198_00                                  00016675
000000360306/09/2005H 000000000000620000000000010000005/04/200006/09/200514/06/2005+00000000000eudenirn4198_00                                   00016675
000000360313/10/2005H 000000000000620000000000010000005/04/200005/12/200506/09/2005+00000000000eudenirn4198_00                                   00016675
000000387520/04/2004H 000000000000630000000000021000011/02/200020/04/200411/02/2000+00000000000PedroX                                            00000000
000000387519/07/2004H 000000000000630000000000021000011/02/200019/07/200420/04/2004+00000000000EUDENIRN4198_00                                   00000000
000000387518/10/2004H 000000000000630000000000021000011/02/200017/10/200419/07/2004+00000000000eudenirn4198_00                                   00000000
000000387517/01/2005H 000000000000630000000000021000011/02/200015/01/200518/10/2004+00000000000eudenirn4198_00                                   00000000
000000387515/04/2005H 000000000000630000000000021000011/02/200015/04/200517/01/2005+00000000000vladimira4198_00                                  00000000
000000387520/05/2005H 000000000000630000000000021000011/02/200014/07/200515/04/2005+00000000000eudenirn4198_00                                   00000000
000000387514/07/2005H 000000000000630000000000010000011/02/200014/07/200520/05/2005+00000000000vladimira4198_00                                  00000000
000000387513/10/2005H 000000000000630000000000010000011/02/200012/10/200514/07/2005+00000000000eudenirn4198_00                                   00000000
000000388313/05/2004H 000000000000640000000000015000018/02/200313/05/200418/02/2003+00000000000PedroX                                            00000000
000000388311/08/2004H 000000000000640000000000015000018/02/200311/08/200413/05/2004+00000000000vladimira4198_00                                  00000000
000000388309/11/2004H 000000000000640000000000015000018/02/200309/11/200411/08/2004+00000000000eudenirn4198_00                                   00000000
000000388309/02/2005H 000000000000640000000000015000018/02/200307/02/200509/11/2004+00000000000eudenirn4198_00                                   00000000
000000388309/05/2005H 000000000000640000000000015000018/02/200308/05/200509/02/2005+00000000000eudenirn4198_00                                   00000000
000000388308/08/2005H 000000000000640000000000015000018/02/200306/08/200509/05/2005+00000000000vladimira4198_00                                  00000000
000000405723/04/2004H 000000000000650000000000003000029/04/200323/04/200429/04/2003+00000000000PedroX                                            00000000
000000405722/07/2004H 000000000000650000000000003000029/04/200322/07/200423/04/2004+00000000000eudenirn4198_00                                   00000000
000000405720/10/2004H 000000000000650000000000003000029/04/200320/10/200422/07/2004+00000000000eudenirn4198_00                                   00000000
000000405718/01/2005H 000000000000650000000000003000029/04/200318/01/200520/10/2004+00000000000eudenirn4198_00                                   00000000
000000406523/06/2004H 000000000000660000000000027000010/04/200123/06/200410/04/2001+00000000000PedroX                                            00000000
000000406521/09/2004H 000000000000660000000000027000010/04/200121/09/200423/06/2004+00000000000eudenirn4198_00                                   00000000
000000406520/12/2004H 000000000000660000000000027000010/04/200120/12/200421/09/2004+00000000000vladimira4198_00                                  00000000
000000406521/03/2005H 000000000000660000000000027000010/04/200120/03/200520/12/2004+00000000000vladimira4198_00                                  00000000
000000406520/06/2005H 000000000000660000000000027000010/04/200118/06/200521/03/2005+00000000000vladimira4198_00                                  00000000
000000406516/09/2005H 000000000000660000000000027000010/04/200116/09/200520/06/2005+00000000000vladimira4198_00                                  00000000
000000410317/05/2004H 000000000000670000000000002000005/06/200015/05/200405/06/2000+00000000000PedroX                                            00000000
000000410313/08/2004H 000000000000670000000000002000005/06/200013/08/200417/05/2004+00000000000eudenirn4198_00                                   00000000
000000410311/11/2004H 000000000000670000000000002000005/06/200011/11/200413/08/2004+00000000000eudenirn4198_00                                   00000000
000000410309/02/2005H 000000000000670000000000002000005/06/200009/02/200511/11/2004+00000000000eudenirn4198_00                                   00000000
000000410310/05/2005H 000000000000670000000000002000005/06/200010/05/200509/02/2005+00000000000eudenirn4198_00                                   00000000
000000410312/07/2005H 000000000000670000000000002000005/06/200008/08/200510/05/2005+00000000000eudenirn4198_00                                   00000000
000000410308/08/2005H 000000000000670000000000003500005/06/200008/08/200512/07/2005+00000000000eudenirn4198_00                                   00016675
000000410313/10/2005H 000000000000670000000000003500005/06/200006/11/200508/08/2005+00000000000vladimira4198_00                                  00016675
000000433212/04/2004H 000000000000680000000000004000014/10/200311/04/200414/10/2003+00000000000PedroX                                            00000000
000000433212/07/2004H 000000000000680000000000004000014/10/200310/07/200412/04/2004+00000000000vladimira4198_00                                  00000000
000000433208/10/2004H 000000000000680000000000004000014/10/200308/10/200412/07/2004+00000000000eudenirn4198_00                                   00000000
000000433214/12/2004H 000000000000680000000000004000014/10/200306/01/200508/10/2004+00000000000eudenirn4198_00                                   00000000
000000433206/01/2005H 000000000000680000000000008000014/10/200306/01/200514/12/2004+00000000000eudenirn4198_00                                   00016675
000000433206/04/2005H 000000000000680000000000008000014/10/200306/04/200506/01/2005+00000000000eudenirn4198_00                                   00016675
000000433205/07/2005H 000000000000680000000000008000014/10/200305/07/200506/04/2005+00000000000vladimira4198_00                                  00016675
000000433203/10/2005H 000000000000680000000000008000014/10/200303/10/200505/07/2005+00000000000eudenirn4198_00                                   00016675
000000433213/10/2005H 000000000000680000000000008000014/10/200301/01/200603/10/2005+00000000000osmarv4198_00                                     00016675
000000439105/04/2005H 0058          0000000000005000005/01/200505/04/200505/01/2005+00000000000vladimira4198_00                                  00016675
000000439104/07/2005H 0058          0000000000005000005/01/200504/07/200505/04/2005+00000000000vladimira4198_00                                  00016675
000000439103/10/2005H 0058          0000000000005000005/01/200502/10/200504/07/2005+00000000000vladimira4198_00                                  00016675
000000439113/10/2005H 0058          0000000000005000005/01/200531/12/200503/10/2005+00000000000osmarv4198_00                                     00016675
000000441323/06/2004H 000000000000690000000000016000031/12/200223/06/200431/12/2002+00000000000PedroX                                            00000000
000000441321/09/2004H 000000000000690000000000016000031/12/200221/09/200423/06/2004+00000000000eudenirn4198_00                                   00000000
000000441301/10/2004H 000000000000690000000000016000031/12/200220/12/200421/09/2004+00000000000vladimira4198_00                                  00000000
000000441320/12/2004H 000000000000690000000000005000031/12/200220/12/200401/10/2004+00000000000carlosh4198_00                                    00000000
000000441321/03/2005H 000000000000690000000000005000031/12/200220/03/200520/12/2004+00000000000vladimira4198_00                                  00000000
000000441320/06/2005H 000000000000690000000000005000031/12/200218/06/200521/03/2005+00000000000vladimira4198_00                                  00000000
000000441316/09/2005H 000000000000690000000000005000031/12/200216/09/200520/06/2005+00000000000vladimira4198_00                                  00000000
000000442116/09/2004H 00125         0000000000005000018/06/200416/09/200418/06/2004+00000000000eudenirn4198_00                                   00016675
000000442115/12/2004H 00125         0000000000005000018/06/200415/12/200416/09/2004+00000000000eudenirn4198_00                                   00016675
000000442115/03/2005H 00125         0000000000005000018/06/200415/03/200515/12/2004+00000000000vladimira4198_00                                  00016675
000000442113/06/2005H 00125         0000000000005000018/06/200413/06/200515/03/2005+00000000000eudenirn4198_00                                   00016675
000000442112/09/2005H 00125         0000000000005000018/06/200411/09/200513/06/2005+00000000000vladimira4198_00                                  00016675
000000442113/10/2005H 00125         0000000000005000018/06/200410/12/200512/09/2005+00000000000vladimira4198_00                                  00016675
000000443007/06/2004H 000000000000700000000000014000026/09/200007/06/200426/09/2000+00000000000PedroX                                            00000000
000000443006/09/2004H 000000000000700000000000014000026/09/200005/09/200407/06/2004+00000000000eudenirn4198_00                                   00000000
000000443015/10/2004H 000000000000700000000000014000026/09/200004/12/200406/09/2004+00000000000eudenirn4198_00                                   00000000
000000452923/05/2005H 0029          0000000000011000021/02/200522/05/200521/02/2005+00000000000eudenirn4198_00                                   00016675
000000452922/08/2005H 0029          0000000000011000021/02/200520/08/200523/05/2005+00000000000vladimira4198_00                                  00016675
000000452913/10/2005H 0029          0000000000011000021/02/200518/11/200522/08/2005+00000000000eudenirn4198_00                                   00016675
000000463412/04/2004H 000000000000710000000000015000012/01/200411/04/200412/01/2004+00000000000PedroX                                            00000000
000000463412/07/2004H 000000000000710000000000015000012/01/200410/07/200412/04/2004+00000000000vladimira4198_00                                  00000000
000000463408/10/2004H 000000000000710000000000015000012/01/200408/10/200412/07/2004+00000000000eudenirn4198_00                                   00000000
000000463406/01/2005H 000000000000710000000000015000012/01/200406/01/200508/10/2004+00000000000eudenirn4198_00                                   00000000
000000463406/04/2005H 000000000000710000000000015000012/01/200406/04/200506/01/2005+00000000000eudenirn4198_00                                   00000000
000000463405/07/2005H 000000000000710000000000015000012/01/200405/07/200506/04/2005+00000000000vladimira4198_00                                  00000000
000000463403/10/2005H 000000000000710000000000015000012/01/200403/10/200505/07/2005+00000000000eudenirn4198_00                                   00000000
000000473124/05/2004H 000000000000720000000000030000027/08/200323/05/200427/08/2003+00000000000PedroX                                            00000000
000000473123/08/2004H 000000000000720000000000030000027/08/200321/08/200424/05/2004+00000000000eudenirn4198_00                                   00000000
000000473105/10/2004H 000000000000720000000000030000027/08/200319/11/200423/08/2004+00000000000eudenirn4198_00                                   00000000
000000476614/06/2004H 000000000000730000000000004000028/06/200112/06/200428/06/2001+00000000000PedroX                                            00000000
000000476610/09/2004H 000000000000730000000000004000028/06/200110/09/200414/06/2004+00000000000eudenirn4198_00                                   00000000
000000476609/12/2004H 000000000000730000000000004000028/06/200109/12/200410/09/2004+00000000000eudenirn4198_00                                   00000000
000000476609/03/2005H 000000000000730000000000004000028/06/200109/03/200509/12/2004+00000000000eudenirn4198_00                                   00000000
000000476607/06/2005H 000000000000730000000000004000028/06/200107/06/200509/03/2005+00000000000vladimira4198_00                                  00000000
000000476605/09/2005H 000000000000730000000000004000028/06/200105/09/200507/06/2005+00000000000eudenirn4198_00                                   00000000
000000478219/04/2004H 000000000000740000000000020000021/10/200318/04/200421/10/2003+00000000000PedroX                                            00000000
000000478219/07/2004H 000000000000740000000000020000021/10/200317/07/200419/04/2004+00000000000EUDENIRN4198_00                                   00000000
000000478215/10/2004H 000000000000740000000000020000021/10/200315/10/200419/07/2004+00000000000eudenirn4198_00                                   00000000
000000478213/01/2005H 000000000000740000000000020000021/10/200313/01/200515/10/2004+00000000000eudenirn4198_00                                   00000000
000000488005/04/2004H 000000000000750000000000007000008/10/200305/04/200408/10/2003+00000000000PedroX                                            00000000
000000488005/07/2004H 000000000000750000000000007000008/10/200304/07/200405/04/2004+00000000000vladimira4198_00                                  00000000
000000488004/10/2004H 000000000000750000000000007000008/10/200302/10/200405/07/2004+00000000000eudenirn4198_00                                   00000000
000000488031/12/2004H 000000000000750000000000007000008/10/200331/12/200404/10/2004+00000000000vladimira4198_00                                  00000000
000000488031/03/2005H 000000000000750000000000007000008/10/200331/03/200531/12/2004+00000000000eudenirn4198_00                                   00000000
000000488029/06/2005H 000000000000750000000000007000008/10/200329/06/200531/03/2005+00000000000eudenirn4198_00                                   00000000
000000488027/09/2005H 000000000000750000000000007000008/10/200327/09/200529/06/2005+00000000000vladimira4198_00                                  00000000
000000505305/04/2004H 000000000000760000000000001000017/01/200206/04/200417/01/2002+00000000000PedroX                                            00000000
000000505317/05/2004H 000000000000760000000000001000017/01/200205/07/200405/04/2004+00000000000vladimira4198_00                                  00000000
000000505305/07/2004H 000000000000760000000000003000017/01/200205/07/200417/05/2004+00000000000eudenirn4198_00                                   10016675
000000505304/10/2004H 000000000000760000000000003000017/01/200203/10/200405/07/2004+00000000000eudenirn4198_00                                   10016675
000000505303/01/2005H 000000000000760000000000003000017/01/200201/01/200504/10/2004+00000000000vladimira4198_00                                  10016675
000000505301/04/2005H 000000000000760000000000003000017/01/200201/04/200503/01/2005+00000000000vladimira4198_00                                  10016675
000000505330/06/2005H 000000000000760000000000003000017/01/200230/06/200501/04/2005+00000000000vladimira4198_00                                  10016675
000000505328/09/2005H 000000000000760000000000003000017/01/200228/09/200530/06/2005+00000000000eudenirn4198_00                                   10016675
000000513404/05/2004H 000000000000770000000000002000025/05/200004/05/200425/05/2000+00000000000PedroX                                            00000000
000000513402/08/2004H 000000000000770000000000002000025/05/200002/08/200404/05/2004+00000000000eudenirn4198_00                                   00000000
000000513401/11/2004H 000000000000770000000000002000025/05/200031/10/200402/08/2004+00000000000eudenirn4198_00                                   00000000
000000513431/01/2005H 000000000000770000000000002000025/05/200029/01/200501/11/2004+00000000000eudenirn4198_00                                   00000000
000000513429/04/2005H 000000000000770000000000002000025/05/200029/04/200531/01/2005+00000000000eudenirn4198_00                                   00000000
000000513428/07/2005H 000000000000770000000000002000025/05/200028/07/200529/04/2005+00000000000vladimira4198_00                                  00000000
000000524015/09/2005H 0031          0000000000006000017/06/200515/09/200517/06/2005+00000000000eudenirn4198_00                                   00016675
000000524013/10/2005H 0031          0000000000006000017/06/200514/12/200515/09/2005+00000000000vladimira4198_00                                  00016675
000000531224/05/2004H 000000000000780000000000020000012/06/200022/05/200412/06/2000+00000000000PedroX                                            00000000
000000531220/08/2004H 000000000000780000000000020000012/06/200020/08/200424/05/2004+00000000000eudenirn4198_00                                   00000000
000000531218/11/2004H 000000000000780000000000020000012/06/200018/11/200420/08/2004+00000000000eudenirn4198_00                                   00000000
000000531216/02/2005H 000000000000780000000000020000012/06/200016/02/200518/11/2004+00000000000eudenirn4198_00                                   00000000
000000531217/05/2005H 000000000000780000000000020000012/06/200017/05/200516/02/2005+00000000000eudenirn4198_00                                   00000000
000000531215/08/2005H 000000000000780000000000020000012/06/200015/08/200517/05/2005+00000000000vladimira4198_00                                  00000000
000000533912/04/2004H 000000000000790000000000005000021/10/200213/04/200421/10/2002+00000000000PedroX                                            00000000
000000533924/05/2004H 000000000000790000000000005000021/10/200212/07/200412/04/2004+00000000000vladimira4198_00                                  00000000
000000533912/07/2004H 000000000000790000000000005000021/10/200212/07/200424/05/2004-00000000300cileanea4198_00                                   00000000
000000533911/10/2004H 000000000000790000000000005000021/10/200210/10/200412/07/2004-00000000300eudenirn4198_00                                   00000000
000000533910/01/2005H 000000000000790000000000005000021/10/200208/01/200511/10/2004-00000000300eudenirn4198_00                                   00000000
000000533908/04/2005H 000000000000790000000000005000021/10/200208/04/200510/01/2005-00000000300vladimira4198_00                                  00000000
000000533907/07/2005H 000000000000790000000000005000021/10/200207/07/200508/04/2005-00000000300eudenirn4198_00                                   00000000
000000533904/10/2005H 000000000000790000000000005000021/10/200205/10/200507/07/2005-00000000300vladimira4198_00                                  00000000
000000552508/04/2004H 000000000000800000000000007500014/04/200308/04/200414/04/2003+00000000000PedroX                                            00000000
000000552507/07/2004H 000000000000800000000000007500014/04/200307/07/200408/04/2004+00000000000vladimira4198_00                                  00000000
000000552505/10/2004H 000000000000800000000000007500014/04/200305/10/200407/07/2004+00000000000eudenirn4198_00                                   00000000
000000552505/11/2004H 000000000000800000000000007500014/04/200303/01/200505/10/2004+00000000000eudenirn4198_00                                   00000000
000000564912/04/2004H 000000000000810000000000010000023/10/200110/04/200423/10/2001+00000000000PedroX                                            00000000
000000564909/07/2004H 000000000000810000000000010000023/10/200109/07/200412/04/2004+00000000000vladimira4198_00                                  00000000
000000564907/10/2004H 000000000000810000000000010000023/10/200107/10/200409/07/2004+00000000000eudenirn4198_00                                   00000000
000000564905/01/2005H 000000000000810000000000010000023/10/200105/01/200507/10/2004+00000000000eudenirn4198_00                                   00000000
000000564905/04/2005H 000000000000810000000000010000023/10/200105/04/200505/01/2005+00000000000eudenirn4198_00                                   00000000
000000564904/07/2005H 000000000000810000000000010000023/10/200104/07/200505/04/2005+00000000000vladimira4198_00                                  00000000
000000564903/10/2005H 000000000000810000000000010000023/10/200102/10/200504/07/2005+00000000000vladimira4198_00                                  00000000
000000568128/06/2004H 000000000000820000000000007000019/07/200028/06/200419/07/2000+00000000000PedroX                                            00000000
000000568127/09/2004H 000000000000820000000000007000019/07/200026/09/200428/06/2004+00000000000eudenirn4198_00                                   00000000
000000568127/12/2004H 000000000000820000000000007000019/07/200025/12/200427/09/2004+00000000000eudenirn4198_00                                   00000000
000000568128/03/2005H 000000000000820000000000007000019/07/200025/03/200527/12/2004+00000000000eudenirn4198_00                                   00000000
000000568123/06/2005H 000000000000820000000000007000019/07/200023/06/200528/03/2005+00000000000vladimira4198_00                                  00000000
000000568108/08/2005H 000000000000820000000000007000019/07/200021/09/200523/06/2005+00000000000eudenirn4198_00                                   00000000
000000568121/09/2005H 000000000000820000000000008500019/07/200021/09/200508/08/2005+00000000000eudenirn4198_00                                   00016675
000000568113/10/2005H 000000000000820000000000008500019/07/200020/12/200521/09/2005+00000000000vladimira4198_00                                  00016675
000000570330/04/2004H 000000000000830000000000033000021/05/200030/04/200421/05/2000+00000000000PedroX                                            00000000
000000570329/07/2004H 000000000000830000000000033000021/05/200029/07/200430/04/2004+00000000000EUDENIRN4198_00                                   00000000
000000570327/10/2004H 000000000000830000000000033000021/05/200027/10/200429/07/2004+00000000000vladimira4198_00                                  00000000
000000570319/11/2004H 000000000000830000000000033000021/05/200025/01/200527/10/2004+00000000000vladimira4198_00                                  00000000
000000579725/10/2004H 0055          0000000000004800026/07/200424/10/200426/07/2004+00000000000eudenirn4198_00                                   00016675
000000579724/01/2005H 0055          0000000000004800026/07/200422/01/200525/10/2004+00000000000eudenirn4198_00                                   00016675
000000582702/09/2004H 00183         0000000000001000026/08/200402/09/200426/08/2004+00000000000carlosh4198_00                                    00000000
000000582703/09/2004H 00183         0000000000001000026/08/200401/12/200402/09/2004+00000000000eudenirn4198_00                                   00000000
000000582703/01/2005H 00180         0000000000001500017/12/200403/01/200517/12/2004+00000000000carlosh4198_00                                    00000000
000000583528/06/2004H 000000000000840000000000018400015/01/200128/06/200415/01/2001+00000000000PedroX                                            00000000
000000583527/09/2004H 000000000000840000000000018400015/01/200126/09/200428/06/2004+00000000000eudenirn4198_00                                   00000000
000000583527/12/2004H 000000000000840000000000018400015/01/200125/12/200427/09/2004+00000000000eudenirn4198_00                                   00000000
000000583528/03/2005H 000000000000840000000000018400015/01/200125/03/200527/12/2004+00000000000eudenirn4198_00                                   00000000
000000583523/06/2005H 000000000000840000000000018400015/01/200123/06/200528/03/2005+00000000000vladimira4198_00                                  00000000
000000583521/09/2005H 000000000000840000000000018400015/01/200121/09/200523/06/2005+00000000000eudenirn4198_00                                   00000000
000000590819/05/2004H 000000000000850000000000017000004/06/200119/05/200404/06/2001+00000000000PedroX                                            00000000
000000590817/08/2004H 000000000000850000000000017000004/06/200117/08/200419/05/2004+00000000000eudenirn4198_00                                   00000000
000000590816/11/2004H 000000000000850000000000017000004/06/200115/11/200417/08/2004+00000000000eudenirn4198_00                                   00000000
000000590814/02/2005H 000000000000850000000000017000004/06/200113/02/200516/11/2004+00000000000vladimira4198_00                                  00000000
000000590816/05/2005H 000000000000850000000000017000004/06/200114/05/200514/02/2005+00000000000eudenirn4198_00                                   00000000
000000590812/08/2005H 000000000000850000000000017000004/06/200112/08/200516/05/2005+00000000000vladimira4198_00                                  00000000
000000592415/04/2004H 000000000000860000000000026000004/08/200015/04/200404/08/2000+00000000000PedroX                                            00000000
000000592414/07/2004H 000000000000860000000000026000004/08/200014/07/200415/04/2004+00000000000vladimira4198_00                                  00000000
000000592413/10/2004H 000000000000860000000000026000004/08/200012/10/200414/07/2004+00000000000eudenirn4198_00                                   00000000
000000592410/01/2005H 000000000000860000000000026000004/08/200010/01/200513/10/2004+00000000000eudenirn4198_00                                   00000000
000000592411/04/2005H 000000000000860000000000026000004/08/200010/04/200510/01/2005+00000000000vladimira4198_00                                  00000000
000000592411/07/2005H 000000000000860000000000026000004/08/200009/07/200511/04/2005+00000000000vladimira4198_00                                  00000000
000000592406/10/2005H 000000000000860000000000026000004/08/200007/10/200511/07/2005+00000000000vladimira4198_00                                  00000000
000000596724/05/2004H 000000000000870000000000003500028/05/200322/05/200428/05/2003+00000000000PedroX                                            00000000
000000596720/08/2004H 000000000000870000000000003500028/05/200320/08/200424/05/2004+00000000000eudenirn4198_00                                   00000000
000000596718/11/2004H 000000000000870000000000003500028/05/200318/11/200420/08/2004+00000000000eudenirn4198_00                                   00000000
000000596716/02/2005H 000000000000870000000000003500028/05/200316/02/200518/11/2004+00000000000eudenirn4198_00                                   00000000
000000596717/05/2005H 000000000000870000000000003500028/05/200317/05/200516/02/2005+00000000000eudenirn4198_00                                   00000000
000000596715/08/2005H 000000000000870000000000003500028/05/200315/08/200517/05/2005+00000000000vladimira4198_00                                  00000000
000000597513/10/2005H 00191         0000000000005000017/08/200515/11/200517/08/2005+00000000000eudenirn4198_00                                   00016675
000000615717/05/2004H 000000000000880000000000020000021/05/200315/05/200421/05/2003+00000000000PedroX                                            00000000
000000615713/08/2004H 000000000000880000000000020000021/05/200313/08/200417/05/2004+00000000000eudenirn4198_00                                   00000000
000000615722/10/2004H 000000000000880000000000020000021/05/200311/11/200413/08/2004+00000000000eudenirn4198_00                                   00000000
000000622029/06/2004H 000000000000890000000000007000010/07/200229/06/200410/07/2002+00000000000PedroX                                            00000000
000000622027/09/2004H 000000000000890000000000007000010/07/200227/09/200429/06/2004+00000000000eudenirn4198_00                                   00000000
000000622027/12/2004H 000000000000890000000000007000010/07/200226/12/200427/09/2004+00000000000eudenirn4198_00                                   00000000
000000622028/03/2005H 000000000000890000000000007000010/07/200226/03/200527/12/2004+00000000000eudenirn4198_00                                   00000000
000000622024/06/2005H 000000000000890000000000007000010/07/200224/06/200528/03/2005+00000000000vladimira4198_00                                  00000000
000000622022/09/2005H 000000000000890000000000007000010/07/200222/09/200524/06/2005+00000000000vladimira4198_00                                  00000000
000000623831/05/2004H 000000000000900000000000025000018/09/200030/05/200418/09/2000+00000000000PedroX                                            00000000
000000623830/08/2004H 000000000000900000000000025000018/09/200028/08/200431/05/2004+00000000000vladimira4198_00                                  00000000
000000623826/11/2004H 000000000000900000000000025000018/09/200026/11/200430/08/2004+00000000000eudenirn4198_00                                   00000000
000000623820/01/2005H 000000000000900000000000025000018/09/200024/02/200526/11/2004+00000000000eudenirn4198_00                                   00000000
000000625429/04/2004H 000000000000910000000000004000016/11/200029/04/200416/11/2000+00000000000PedroX                                            00000000
000000625428/07/2004H 000000000000910000000000004000016/11/200028/07/200429/04/2004+00000000000EUDENIRN4198_00                                   00000000
000000625426/10/2004H 000000000000910000000000004000016/11/200026/10/200428/07/2004+00000000000eudenirn4198_00                                   00000000
000000625424/01/2005H 000000000000910000000000004000016/11/200024/01/200526/10/2004+00000000000eudenirn4198_00                                   00000000
000000625425/04/2005H 000000000000910000000000004000016/11/200024/04/200524/01/2005+00000000000vladimira4198_00                                  00000000
000000625425/07/2005H 000000000000910000000000004000016/11/200023/07/200525/04/2005+00000000000vladimira4198_00                                  00000000
000000625420/10/2005H 000000000000910000000000004000016/11/200021/10/200525/07/2005+00000000000eudenirn4198_00                                   00000000
000000627006/05/2004H 000000000000920000000000005000025/08/200006/05/200425/08/2000+00000000000PedroX                                            00000000
000000627004/08/2004H 000000000000920000000000005000025/08/200004/08/200406/05/2004+00000000000eudenirn4198_00                                   00000000
000000627003/11/2004H 000000000000920000000000005000025/08/200002/11/200404/08/2004+00000000000eudenirn4198_00                                   00000000
000000627031/01/2005H 000000000000920000000000005000025/08/200031/01/200503/11/2004+00000000000vladimira4198_00                                  00000000
000000627002/05/2005H 000000000000920000000000005000025/08/200001/05/200531/01/2005+00000000000eudenirn4198_00                                   00000000
000000627001/08/2005H 000000000000920000000000005000025/08/200030/07/200502/05/2005+00000000000eudenirn4198_00                                   00000000
000000635112/04/2004H 000000000000930000000000047000002/08/200013/04/200402/08/2000+00000000000PedroX                                            00000000
000000635112/07/2004H 000000000000930000000000047000002/08/200012/07/200412/04/2004+00000000000vladimira4198_00                                  00000000
000000635111/10/2004H 000000000000930000000000047000002/08/200010/10/200412/07/2004+00000000000eudenirn4198_00                                   00000000
000000635110/01/2005H 000000000000930000000000047000002/08/200008/01/200511/10/2004+00000000000eudenirn4198_00                                   00000000
000000635108/04/2005H 000000000000930000000000047000002/08/200008/04/200510/01/2005+00000000000vladimira4198_00                                  00000000
000000635107/07/2005H 000000000000930000000000047000002/08/200007/07/200508/04/2005+00000000000eudenirn4198_00                                   00000000
000000635104/10/2005H 000000000000930000000000047000002/08/200005/10/200507/07/2005+00000000000vladimira4198_00                                  00000000
000000650514/06/2004H 000000000000940000000000012000003/10/200014/06/200403/10/2000+00000000000PedroX                                            00000000
000000650514/07/2004H 000000000000940000000000012000003/10/200012/09/200414/06/2004+00000000000eudenirn4198_00                                   00000000
000000653012/04/2004H 000000000000950000000000003000021/10/200213/04/200421/10/2002+00000000000PedroX                                            00000000
000000653012/07/2004H 000000000000950000000000003000021/10/200212/07/200412/04/2004+00000000000vladimira4198_00                                  00000000
000000653014/09/2004H 000000000000950000000000003000021/10/200210/10/200412/07/2004+00000000000eudenirn4198_00                                   00000000
000000653010/01/2005H 000000000000950000000000004000021/10/200208/01/200514/09/2004+00000000000eudenirn4198_00                                   00016675
000000653024/02/2005H 000000000000950000000000004000021/10/200208/04/200510/01/2005+00000000000vladimira4198_00                                  00016675
