000001900000000000000172780EMPRESA BRASILEIRA DE PESQUISA AGROPECUÁRIA       PESQUISADOR III                    01/04/19800016691
000002700000000000000229275EMBRAPA CENARGEN                                  TNS                                01/03/19850016691
000003500000000000000000000                                                                                               0000000
000004300000000000000000000                                                                                               0000000
000005100000000000000000000                                                                                               0000000
000006000000000000000000000                                                                                               0000000
000007800000000000000172436EMPRESA BRASILEIRA DE PESQUISA AGROPECUÁRIA       ADMINISTRADOR                      03/12/19790016691
000008600000000000000000000                                                                                               0000000
000009400000000000000000000                                                                                               0000000
000010800000000000000000000                                                                                               0000000
000011600000000000000000000                                                                                               0000000
000012400000000000000000000                                                                                               0000000
000013200000000000000000000                                                                                               0000000
000014000000000000000000000                                                                                               0000000
000015900000000000000000000                                                                                               0000000
000016700000000000000000000                                                                                               0000000
000017500000000000000000000                                                                                               0000000
000018300000000000000000000                                                                                               0000000
000019100000000000000089554EMBRAPA CERRADOS                                  AUX OP II                          01/07/19750016691
000020500000000000000000000                                                                                               0000000
000021300000000000000000000                                                                                               0000000
000022100000000000000000000                                                                                               0000000
000023000000000000000000000                                                                                               0000000
000024800000000000000000000                                                                                               0000000
000025600000000000000000000                                                                                               0000000
000026400000000000000000000                                                                                               0000000
000027200000000000000000000                                                                                               0000000
000028000000000000000000000                                                                                               0000000
000029900000000000000000000                                                                                               0000000
000030200000000000000000000                                                                                               0000000
000031000000000000000000000                                                                                               0000000
000032900000000000000000000                                                                                               0000000
000033700000000000000000000                                                                                               0000000
000034500000000000000000000                                                                                               0000000
000035300000000000000000000                                                                                               0000000
000036100000000000000000000                                                                                               0000000
000037000000000000000000000                                                                                               0000000
000038800000000000000021681EMPRESA BRASILEIRA DE PESQUISA AGROPECUÁRIA       AUX.ADM.                           01/08/19750016691
000039600000000000000000000                                                                                               0000000
000040000000000000000000000                                                                                               0000000
000041800000000000000121120EMPRESA BRASILEIRA DE PESQUISA AGROPECUÁRIA       ASS.PESQUISA II                    07/06/19770016691
000042600000000000000000000                                                                                               0000000
000043400000000000000000000                                                                                               0000000
000044200000000000000149523CPAC                                              AUX. OP II                         10/07/19780016691
000045000000000000000000000                                                                                               0000000
000046900000000000000000000                                                                                               0000000
000047700000000000000000000                                                                                               0000000
000048500000000000000000000                                                                                               0000000
000049300000000000000000000                                                                                               0000000
000050700000000000000000000                                                                                               0000000
000051500000000000000224244EMPRESA BRASILEIRA DE PESQUISA AGROPECUÁRIA       PESQUISADOR                        01/02/19850016691
000052300000000000000000000                                                                                               0000000
000053100000000000000000000                                                                                               0000000
000054000000000000000000000                                                                                               0000000
000055800000000000000000000                                                                                               0000000
000056600000000000000000000                                                                                               0000000
000057400000000000000000000                                                                                               0000000
000058200000000000000000000                                                                                               0000000
000059000000000000000000000                                                                                               0000000
000060400000000000000000000                                                                                               0000000
000061200000000000000000000                                                                                               0000000
000062000000000000000000000                                                                                               0000000
000063900000000000000000000                                                                                               0000000
000064700000000000000000000                                                                                               0000000
000065500000000000000000000                                                                                               0000000
000066300000000000000000000                                                                                               0000000
000067100000000000000200336CPAF/RO                                           AUX. OP II                         01/04/19820016691
000068000000000000000000000                                                                                               0000000
000069800000000000000208582CPAF/RO                                           AUX. OP III                        01/12/19820016691
000070100000000000000000000                                                                                               0000000
000071000000000000000000000                                                                                               0000000
000072800000000000000000000                                                                                               0000000
000073600000000000000263429CPAF/RO                                           AUX. OP. I                         12/10/19890016691
000074400000000000000000000                                                                                               0000000
000075200000000000000000000                                                                                               0000000
000076000000000000000000000                                                                                               0000000
000077900000000000000296421EMPRESA BRASILEIRA DE PESQUISA AGROPECUÁRIA       MOTORISTA                          17/09/19960016691
000078700000000000000000000                                                                                               0000000
000079500000000000000000000                                                                                               0000000
000080900000000000000000000                                                                                               0000000
000081700000000000000000000                                                                                               0000000
000082500000000000000000000                                                                                               0000000
000083300000000000000000000                                                                                               0000000
000084100000000000000000000                                                                                               0000000
000085000000000000000000000                                                                                               0000000
000086800000000000000261952EMBRAPA CERRADOS                                  TEC AGRICOLA                       01/09/19890016691
000087600000000000000000000                                                                                               0000000
000088400000000000000000000                                                                                               0000000
000089200000000000000000000                                                                                               0000000
000090600000000000000000000                                                                                               0000000
000091400000000000000000000                                                                                               0000000
000092200000000000000000000                                                                                               0000000
000093000000000000000000000                                                                                               0000000
000094900000000000000000000                                                                                               0000000
000095700000000000000000000                                                                                               0000000
000096500000000000000000000                                                                                               0000000
000097300000000000000000000                                                                                               0000000
000098100000000000000000000                                                                                               0000000
000099000000000000000000000                                                                                               0000000
000100700000000000000000000                                                                                               0000000
000101500000000000000000000                                                                                               0000000
000102300000000000000245238EMBRAPA CPAF/AP                                   PESQUISADOR I                      26/02/19880016691
000103100000000000000268872CPAF/RO                                           PESQUISADOR II                     17/11/19890016691
000104000000000000000000000                                                                                               0000000
000105800000000000000000000                                                                                               0000000
000106600000000000000000000                                                                                               0000000
000107400000000000000000000                                                                                               0000000
000108200000000000000000000                                                                                               0000000
000109000000000000000272024CPAF/RO                                           AUX. OP. III                       01/02/19900016691
000110400000000000000000000                                                                                               0000000
000111200000000000000000000                                                                                               0000000
000112000000000000000000000                                                                                               0000000
000113900000000000000000000                                                                                               0000000
000114700000000000000000000                                                                                               0000000
000115500000000000000000000                                                                                               0000000
000116300000000000000082793EMPRESA BRASILEIRA DE PESQUISA AGROPECUÁRIA       PESQUISADOR                        01/01/19750016691
000117100000000000000000000                                                                                               0000000
000118000000000000000000000                                                                                               0000000
000119800000000000000000000                                                                                               0000000
000120100000000000000000000                                                                                               0000000
000121000000000000000000000                                                                                               0000000
000122800000000000000000000                                                                                               0000000
000123600000000000000000000                                                                                               0000000
000124400000000000000000000                                                                                               0000000
000125200000000000000000000                                                                                               0000000
000126000000000000000000000                                                                                               0000000
000127900000000000000000000                                                                                               0000000
000128700000000000000000000                                                                                               0000000
000129500000000000000000000                                                                                               0000000
000130900000000000000000000                                                                                               0000000
000131700000000000000000000                                                                                               0000000
000132500000000000000000000                                                                                               0000000
000133300000000000000000000                                                                                               0000000
000134100000000000000000000                                                                                               0000000
000135000000000000000000000                                                                                               0000000
000136800000000000000000000                                                                                               0000000
000137600000000000000000000                                                                                               0000000
000138400000000000000000000                                                                                               0000000
000139200000000000000000000                                                                                               0000000
000140600000000000000237970EMBRAPA CPAF/AP                                   ASSIST.DE PESQUISA II              18/05/19870016691
000141400000000000000263576EMBRAPA RORAIMA                                   MESTRE EM MANUTENÇÃO               20/10/19890016691
000142200000000000000000000                                                                                               0000000
000143000000000000000000000                                                                                               0000000
000144900000000000000000000                                                                                               0000000
000145700000000000000000000                                                                                               0000000
000146500000000000000000000                                                                                               0000000
000147300000000000000000000                                                                                               0000000
000148100000000000000000000                                                                                               0000000
000149000000000000000000000                                                                                               0000000
000150300000000000000140100EMBRAPA CPAF/RO                                   TNS II                             04/04/19780016691
000151100000000000000000000                                                                                               0000000
000152000000000000000000000                                                                                               0000000
000153800000000000000000000                                                                                               0000000
000154600000000000000000000                                                                                               0000000
000155400000000000000000000                                                                                               0000000
000156200000000000000000000                                                                                               0000000
000157000000000000000000000                                                                                               0000000
000158900000000000000000000                                                                                               0000000
000159700000000000000263515EMBRAPA CPAF/RR                                   ASSISTENTE DE OP I                 01/11/19890016691
000160000000000000000000000                                                                                               0000000
000161900000000000000000000                                                                                               0000000
000162700000000000000000000                                                                                               0000000
000163500000000000000000000                                                                                               0000000
000164300000000000000000000                                                                                               0000000
000165100000000000000207329EMBRAPA CERRADOS                                  SECRETARIO                         22/09/19820016691
000166000000000000000000000                                                                                               0000000
000167800000000000000000000                                                                                               0000000
000168600000000000000000000                                                                                               0000000
000169400000000000000000000                                                                                               0000000
000170800000000000000000000                                                                                               0000000
000171600000000000000000000                                                                                               0000000
000172400000000000000298839EMPRESA BRASILEIRA DE PESQUISA AGROPECUÁRIA       INS II                             03/11/19970016691
000173200000000000000000000                                                                                               0000000
000174000000000000000000000                                                                                               0000000
000175900000000000000000000                                                                                               0000000
000176700000000000000263344CPAF/RO                                           AUX. OP. I                         05/10/19890016691
000177500000000000000000000                                                                                               0000000
000178300000000000000000000                                                                                               0000000
000179100000000000000000000                                                                                               0000000
000180500000000000000000000                                                                                               0000000
000181300000000000000000000                                                                                               0000000
000182100000000000000000000                                                                                               0000000
000183000000000000000000000                                                                                               0000000
000184800000000000000000000                                                                                               0000000
000185600000000000000000000                                                                                               0000000
000186400000000000000211117EMPRESA BRASILEIRA DE PESQUISA AGROPECUÁRIA       SECRETARIA                         04/04/19830016691
000187200000000000000252184EMBRAPA CERRADOS                                  AUX DE OP                          19/06/19890016691
000188000000000000000000000                                                                                               0000000
000189900000000000000000000                                                                                               0000000
000190200000000000000000000                                                                                               0000000
000191000000000000000270448EMPRESA BRASILEIRA DE PESQUISA AGROPECUÁRIA       ASSIST.OP I                        11/12/19890016691
000192900000000000000000000                                                                                               0000000
000193700000000000000000000                                                                                               0000000
000194500000000000000000000                                                                                               0000000
000195300000000000000000000                                                                                               0000000
000196100000000000000000000                                                                                               0000000
000197000000000000000291651EMBRAPA RORAIMA                                   AUX.DE OPERAÇÃO I                  21/12/19940016691
000198800000000000000000000                                                                                               0000000
000199600000000000000000000                                                                                               0000000
000200300000000000000000000                                                                                               0000000
000201100000000000000000000                                                                                               0000000
000202000000000000000000000                                                                                               0000000
000203800000000000000000000                                                                                               0000000
000204600000000000000000000                                                                                               0000000
000205400000000000000000000                                                                                               0000000
000206200000000000000000000                                                                                               0000000
000207000000000000000000000                                                                                               0000000
000208900000000000000161093EMPRESA BRASILEIRA DE PESQUISA AGROPECUÁRIA       ASS.OPERACIONAL II                 30/08/19790016691
000209700000000000000000000                                                                                               0000000
000210000000000000000000000                                                                                               0000000
000211900000000000000296176EMBRAPA TABULEIROS COSTEIROS                      ASSISTENTE OP II                   21/02/19950016691
000212700000000000000000000                                                                                               0000000
000213500000000000000000000                                                                                               0000000
000214300000000000000000000                                                                                               0000000
000215100000000000000251922EMBRAPA CERRADOS                                  AUX. DE OP. GERAIS                 19/06/19890016691
000216000000000000000000000                                                                                               0000000
000217800000000000000000000                                                                                               0000000
000218600000000000000000000                                                                                               0000000
000219400000000000000228275EMPRESA BRASILEIRA DE PESQUISA AGROPECUÁRIA       SECRETARIA                         05/03/19850016691
000220800000000000000000000                                                                                               0000000
000221600000000000000000000                                                                                               0000000
000222400000000000000000000                                                                                               0000000
000223200000000000000000000                                                                                               0000000
000224000000000000000000000                                                                                               0000000
000225900000000000000000000                                                                                               0000000
000226700000000000000000000                                                                                               0000000
000227500000000000000000000                                                                                               0000000
000228300000000000000000000                                                                                               0000000
000229100000000000000000000                                                                                               0000000
000230500000000000000252320EMBRAPA AMAPÁ                                     AUX OP I                           20/06/19890016691
000231300000000000000000000                                                                                               0000000
000232100000000000000000000                                                                                               0000000
000233000000000000000000000                                                                                               0000000
000234800000000000000000000                                                                                               0000000
000235600000000000000274235EMPRESA BRASILEIRA DE PESQUISA AGROPECUÁRIA       TECNICO DE NIVEL SUPEREIO          06/03/19900016691
000236400000000000000000000                                                                                               0000000
000237200000000000000000000                                                                                               0000000
000238000000000000000000000                                                                                               0000000
000239900000000000000264523EMBRAPA SEDE                                      ASSIT OP II                        03/10/19890016691
000240200000000000000000000                                                                                               0000000
000241000000000000000000000                                                                                               0000000
000242900000000000000111969EMBRAPA RORAIMA                                   COORDENADOR                        14/04/19760016691
000243700000000000000000000                                                                                               0000000
000244500000000000000000000                                                                                               0000000
000245300000000000000239191EMPRESA BRASILEIRA DE PESQUISA AGROPECUÁRIA       LABORATORISTA                      14/07/19870016691
000246100000000000000000000                                                                                               0000000
000247000000000000000000000                                                                                               0000000
000248800000000000000000000                                                                                               0000000
000249600000000000000000000                                                                                               0000000
000250000000000000000000000                                                                                               0000000
000251800000000000000000000                                                                                               0000000
000252600000000000000291687EMPRESA BRASILEIRA DE PESQUISA AGROPECUÁRIA       TRATORISTA                         20/12/19940016691
000253400000000000000000000                                                                                               0000000
000256900000000000000198005EMPRESA BRASILEIRA DE PESQUISA AGROPECUÁRIA       AUXILIAR DE OPERAÇÕES              01/03/19820016691
000257700000000000000000000                                                                                               0000000
000258500000000000000000000                                                                                               0000000
000259300000000000000000000                                                                                               0000000
000260700000000000000000000                                                                                               0000000
000261500000000000000000000                                                                                               0000000
000262300000000000000000000                                                                                               0000000
000263100000000000000000000                                                                                               0000000
000264000000000000000252991EMBRAPA CPAF/RR                                   AUX DE OP II                       03/07/19890016691
000265800000000000000000000                                                                                               0000000
000266600000000000000000000                                                                                               0000000
000267400000000000000000000                                                                                               0000000
000268200000000000000000000                                                                                               0000000
000269000000000000000000000                                                                                               0000000
000270400000000000000000000                                                                                               0000000
000271200000000000000000000                                                                                               0000000
000272000000000000000000000                                                                                               0000000
000273900000000000000000000                                                                                               0000000
000274700000000000000000000                                                                                               0000000
000275500000000000000272476EMBRAPA CPAF/AP                                   AUX.OPERACIONAL                    01/02/19900016691
000276300000000000000000000                                                                                               0000000
000277100000000000000000000                                                                                               0000000
000278000000000000000000000                                                                                               0000000
000279800000000000000000000                                                                                               0000000
000280100000000000000000000                                                                                               0000000
000281000000000000000000000                                                                                               0000000
000282800000000000000000000                                                                                               0000000
000283600000000000000298778EMPRESA BRASILEIRA DE PESQUISA AGROPECUÁRIA       PROFESSORA                         07/11/19970016691
000284400000000000000000000                                                                                               0000000
000285200000000000000000000                                                                                               0000000
000286000000000000000000000                                                                                               0000000
000287900000000000000000000                                                                                               0000000
000288700000000000000000000                                                                                               0000000
000289500000000000000000000                                                                                               0000000
000290900000000000000000000                                                                                               0000000
000291700000000000000271200EMBRAPA CPAF/AP                                   AUX OP                             02/01/19900016691
000292500000000000000000000                                                                                               0000000
000293300000000000000242166EMBRAPA RORAIMA                                   AUX DE OP                          01/10/19870016691
000294100000000000000000000                                                                                               0000000
000295000000000000000000000                                                                                               0000000
000296800000000000000000000                                                                                               0000000
000297600000000000000000000                                                                                               0000000
000298400000000000000000000                                                                                               0000000
000299200000000000000000000                                                                                               0000000
000300000000000000000000000                                                                                               0000000
000301800000000000000000000                                                                                               0000000
000302600000000000000000000                                                                                               0000000
000303400000000000000000000                                                                                               0000000
000304200000000000000000000                                                                                               0000000
000305000000000000000000000                                                                                               0000000
000306900000000000000000000                                                                                               0000000
000307700000000000000000000                                                                                               0000000
000308500000000000000000000                                                                                               0000000
000309300000000000000000000                                                                                               0000000
000310700000000000000000000                                                                                               0000000
000311500000000000000000000                                                                                               0000000
000312300000000000000000000                                                                                               0000000
000313100000000000000000000                                                                                               0000000
000314000000000000000000000                                                                                               0000000
000315800000000000000000000                                                                                               0000000
000316600000000000000000000                                                                                               0000000
000317400000000000000000000                                                                                               0000000
000318200000000000000000000                                                                                               0000000
000319000000000000000000000                                                                                               0000000
000320400000000000000000000                                                                                               0000000
000321200000000000000000000                                                                                               0000000
000322000000000000000000000                                                                                               0000000
000323900000000000000000000                                                                                               0000000
000324700000000000000000000                                                                                               0000000
000325500000000000000239093EMPRESA BRASILEIRA DE PESQUISA AGROPECUÁRIA       AUX.DE OPERAÇOES                   14/07/19870016691
000326300000000000000000000                                                                                               0000000
000327100000000000000000000                                                                                               0000000
000328000000000000000000000                                                                                               0000000
000329800000000000000000000                                                                                               0000000
000330100000000000000000000                                                                                               0000000
000331000000000000000000000                                                                                               0000000
000332800000000000000000000                                                                                               0000000
000333600000000000000000000                                                                                               0000000
000334400000000000000000000                                                                                               0000000
000335200000000000000000000                                                                                               0000000
000336000000000000000000000                                                                                               0000000
000337900000000000000000000                                                                                               0000000
000338700000000000000000000                                                                                               0000000
000339500000000000000000000                                                                                               0000000
000340900000000000000000000                                                                                               0000000
000341700000000000000000000                                                                                               0000000
000342500000000000000000000                                                                                               0000000
000343300000000000000000000                                                                                               0000000
000344100000000000000000000                                                                                               0000000
000345000000000000000000000                                                                                               0000000
000346800000000000000000000                                                                                               0000000
000347600000000000000000000                                                                                               0000000
000348400000000000000000000                                                                                               0000000
000349200000000000000000000                                                                                               0000000
000350600000000000000000000                                                                                               0000000
000351400000000000000000000                                                                                               0000000
000352200000000000000000000                                                                                               0000000
000353000000000000000000000                                                                                               0000000
000354900000000000000000000                                                                                               0000000
000355700000000000000000000                                                                                               0000000
000356500000000000000000000                                                                                               0000000
000357300000000000000000000                                                                                               0000000
000358100000000000000000000                                                                                               0000000
000359000000000000000000000                                                                                               0000000
000360300000000000000000000                                                                                               0000000
000361100000000000000256679EMBRAPA MEIO NORTE                                AUX DE OP III                      10/07/19890016691
000362000000000000000000000                                                                                               0000000
000363800000000000000000000                                                                                               0000000
000364600000000000000000000                                                                                               0000000
000365400000000000000243700EMBRAPA RORAIMA                                   ASS OP II                          09/11/19870016691
000366200000000000000000000                                                                                               0000000
000367000000000000000000000                                                                                               0000000
000368900000000000000256301EMBRAPA CTAA                                      AUX DE OP III                      07/07/19890016691
000369700000000000000000000                                                                                               0000000
000370000000000000000000000                                                                                               0000000
000371900000000000000000000                                                                                               0000000
000372700000000000000000000                                                                                               0000000
000373500000000000000000000                                                                                               0000000
000374300000000000000000000                                                                                               0000000
000375100000000000000000000                                                                                               0000000
000376000000000000000000000                                                                                               0000000
000377800000000000000000000                                                                                               0000000
000378600000000000000000000                                                                                               0000000
000379400000000000000000000                                                                                               0000000
000380800000000000000000000                                                                                               0000000
000381600000000000000000000                                                                                               0000000
000382400000000000000000000                                                                                               0000000
000383200000000000000000000                                                                                               0000000
000384000000000000000000000                                                                                               0000000
000385900000000000000000000                                                                                               0000000
000386700000000000000000000                                                                                               0000000
000387500000000000000000000                                                                                               0000000
000388300000000000000101830EMPRESA BRASILEIRA DE PESQUISA AGROPECUÁRIA       AUX.OPERAÇÕES                      05/01/19760016691
000389100000000000000000000                                                                                               0000000
000390500000000000000000000                                                                                               0000000
000391300000000000000000000                                                                                               0000000
000392100000000000000000000                                                                                               0000000
000393000000000000000000000                                                                                               0000000
000394800000000000000000000                                                                                               0000000
000395600000000000000000000                                                                                               0000000
000396400000000000000000000                                                                                               0000000
000397200000000000000000000                                                                                               0000000
000398000000000000000000000                                                                                               0000000
000399900000000000000000000                                                                                               0000000
000400600000000000000000000                                                                                               0000000
000401400000000000000000000                                                                                               0000000
000402200000000000000000000                                                                                               0000000
000403000000000000000000000                                                                                               0000000
000404900000000000000000000                                                                                               0000000
000405700000000000000000000                                                                                               0000000
000406500000000000000000000                                                                                               0000000
000407300000000000000000000                                                                                               0000000
000408100000000000000000000                                                                                               0000000
000409000000000000000000000                                                                                               0000000
000410300000000000000000000                                                                                               0000000
000411100000000000000000000                                                                                               0000000
000412000000000000000000000                                                                                               0000000
000413800000000000000135193EMPRESA BRASILEIRA DE PESQUISA AGROPECUÁRIA       CONTADOR                           01/02/19780016691
000414600000000000000000000                                                                                               0000000
000415400000000000000000000                                                                                               0000000
000416200000000000000000000                                                                                               0000000
000417000000000000000250339EMBRAPA MEIO NORTE                                AUX OP II                          03/07/19890016691
000418900000000000000000000                                                                                               0000000
000419700000000000000264889EMPRESA BRASILEIRA DE PESQUISA AGROPECUÁRIA       AUX.OPERAÇOES                      17/10/19890016691
000420000000000000000000000                                                                                               0000000
000421900000000000000227110EMBRAPA MEIO NORTE                                AUX OP III                         06/02/19850016691
000422700000000000000000000                                                                                               0000000
000423500000000000000000000                                                                                               0000000
000424300000000000000000000                                                                                               0000000
000425100000000000000000000                                                                                               0000000
000426000000000000000000000                                                                                               0000000
000427800000000000000000000                                                                                               0000000
000428600000000000000000000                                                                                               0000000
000429400000000000000150862EMBRAPA CERRADOS                                  ASSIST. OPERAÇÕES II               10/07/19780016691
000430800000000000000000000                                                                                               0000000
000431600000000000000000000                                                                                               0000000
000432400000000000000000000                                                                                               0000000
000433200000000000000000000                                                                                               0000000
000434000000000000000000000                                                                                               0000000
000435900000000000000000000                                                                                               0000000
000436700000000000000000000                                                                                               0000000
000437500000000000000000000                                                                                               0000000
000438300000000000000000000                                                                                               0000000
000439100000000000000166217EMBRAPA SEDE                                      TNS                                28/05/19790016691
000440500000000000000000000                                                                                               0000000
000441300000000000000000000                                                                                               0000000
000442100000000000000272611EMPRESA BRASILEIRA DE PESQUISA AGROPECUÁRIA       ASSIST.DE OPERAÇOES I              29/01/19900016691
000443000000000000000000000                                                                                               0000000
000444800000000000000000000                                                                                               0000000
000445600000000000000000000                                                                                               0000000
000446400000000000000000000                                                                                               0000000
000447200000000000000000000                                                                                               0000000
000448000000000000000000000                                                                                               0000000
000449900000000000000000000                                                                                               0000000
000450200000000000000000000                                                                                               0000000
000451000000000000000000000                                                                                               0000000
000452900000000000000000000                                                                                               0000000
000453700000000000000000000                                                                                               0000000
000454500000000000000000000                                                                                               0000000
000455300000000000000000000                                                                                               0000000
000456100000000000000000000                                                                                               0000000
000457000000000000000296188EMBRAPA CPAC                                      ASSISTENTE DE OPER.I               20/02/19950016691
000458800000000000000000000                                                                                               0000000
000459600000000000000000000                                                                                               0000000
000460000000000000000000000                                                                                               0000000
000461800000000000000000000                                                                                               0000000
000462600000000000000000000                                                                                               0000000
000463400000000000000000000                                                                                               0000000
000464200000000000000000000                                                                                               0000000
000465000000000000000000000                                                                                               0000000
000466900000000000000000000                                                                                               0000000
000467700000000000000000000                                                                                               0000000
000468500000000000000000000                                                                                               0000000
000469300000000000000000000                                                                                               0000000
000470700000000000000000000                                                                                               0000000
000472300000000000000000000                                                                                               0000000
000473100000000000000000000                                                                                               0000000
000474000000000000000000000                                                                                               0000000
000475800000000000000000000                                                                                               0000000
000476600000000000000000000                                                                                               0000000
000477400000000000000000000                                                                                               0000000
000478200000000000000000000                                                                                               0000000
000479000000000000000000000                                                                                               0000000
000480400000000000000000000                                                                                               0000000
000481200000000000000000000                                                                                               0000000
000482000000000000000000000                                                                                               0000000
000483900000000000000000000                                                                                               0000000
000484700000000000000000000                                                                                               0000000
000485500000000000000000001EMPRESA BRASILEIRA DE PESQUISA AGROPECUÁRIA       AUX.ADMINISTRATIVO                 01/11/19960016691
000486300000000000000000000                                                                                               0000000
000487100000000000000000000                                                                                               0000000
0004880000000000000000114-9CERES                                             APOSENTADO                         01/01/20010016691
000489800000000000000000000                                                                                               0000000
000490100000000000000000000                                                                                               0000000
000491000000000000000000000                                                                                               0000000
000492800000000000000000000                                                                                               0000000
000493600000000000000000000                                                                                               0000000
000494400000000000000000000                                                                                               0000000
000495200000000000000000000                                                                                               0000000
000496000000000000000000000                                                                                               0000000
000497900000000000000143391EMBRAPA SOJA                                      ASS DE OP II                       19/04/19780016691
000498700000000000000000000                                                                                               0000000
000499500000000000000000000                                                                                               0000000
000500200000000000000000000                                                                                               0000000
000501000000000000000000000                                                                                               0000000
0005029000000000000000126-3CERES                                             APOSENTADA                         01/01/20010016691
000503700000000000000244939EMBRAPA MEIO NORTE                                AUX OP III                         08/02/19880016691
000504500000000000000000000                                                                                               0000000
000505300000000000000000000                                                                                               0000000
000506100000000000000000000                                                                                               0000000
000507000000000000000245495EMBRAPA MEIO NORTE                                ELETRICISTA                        22/02/19880016691
000508800000000000000000000                                                                                               0000000
000509600000000000000000000                                                                                               0000000
000510000000000000000000000                                                                                               0000000
000511800000000000000000000                                                                                               0000000
000512600000000000000000000                                                                                               0000000
000513400000000000000000000                                                                                               0000000
000514200000000000000000000                                                                                               0000000
000515000000000000000000000                                                                                               0000000
000516900000000000000000000                                                                                               0000000
000517700000000000000000000                                                                                               0000000
000518500000000000000000000                                                                                               0000000
000519300000000000000000000                                                                                               0000000
000520700000000000000000000                                                                                               0000000
000521500000000000000000000                                                                                               0000000
000522300000000000000000000                                                                                               0000000
000523100000000000000000000                                                                                               0000000
000524000000000000000000000                                                                                               0000000
000525800000000000000000000                                                                                               0000000
000526600000000000000000000                                                                                               0000000
000527400000000000000000000                                                                                               0000000
000528200000000000000000000                                                                                               0000000
000529000000000000000000000                                                                                               0000000
000530400000000000000000000                                                                                               0000000
000531200000000000000000000                                                                                               0000000
000532000000000000000000000                                                                                               0000000
000533900000000000000251665EMBRAPA                                           ASSISTENTE DE OP                   19/06/19890016691
000534700000000000000000000                                                                                               0000000
000535500000000000000000000                                                                                               0000000
000536300000000000000000000                                                                                               0000000
000537100000000000000000000                                                                                               0000000
000538000000000000000000000                                                                                               0000000
000539800000000000000000000                                                                                               0000000
000540100000000000000000000                                                                                               0000000
000541000000000000000000000                                                                                               0000000
000542800000000000000000000                                                                                               0000000
000543600000000000000265469EMBRAPA CENARGEN                                  AUX ADM                            02/10/19890016691
000544400000000000000000000                                                                                               0000000
000545200000000000000000000                                                                                               0000000
000546000000000000000000000                                                                                               0000000
000547900000000000000000000                                                                                               0000000
000548700000000000000000000                                                                                               0000000
000549500000000000000000000                                                                                               0000000
000550900000000000000000000                                                                                               0000000
000551700000000000000000000                                                                                               0000000
000552500000000000000000000                                                                                               0000000
000553300000000000000244952EMBRAPA MEIO NORTE                                AUX OP I                           05/02/19880016691
000554100000000000000000000                                                                                               0000000
000555000000000000000000000                                                                                               0000000
000556800000000000000000000                                                                                               0000000
000557600000000000000000000                                                                                               0000000
000558400000000000000000000                                                                                               0000000
000559200000000000000000000                                                                                               0000000
000560600000000000000000000                                                                                               0000000
000561400000000000000000000                                                                                               0000000
000562200000000000000000000                                                                                               0000000
000563000000000000000000000                                                                                               0000000
000564900000000000000000000                                                                                               0000000
000565700000000000000000000                                                                                               0000000
000566500000000000000000000                                                                                               0000000
000567300000000000000000000                                                                                               0000000
000568100000000000000000000                                                                                               0000000
000569000000000000000000000                                                                                               0000000
000570300000000000000000000                                                                                               0000000
000571100000000000000000000                                                                                               0000000
000572000000000000000000000                                                                                               0000000
000573800000000000000000000                                                                                               0000000
000574600000000000000000000                                                                                               0000000
000575400000000000000000000                                                                                               0000000
000576200000000000000000000                                                                                               0000000
000577000000000000000000000                                                                                               0000000
000578900000000000000000000                                                                                               0000000
000579700000000000000273435EMPRESA BRASILEIRA DE PESQUISA AGROPECUÁRIA       AUX.OP. III                        07/03/19900016691
000580000000000000000000000                                                                                               0000000
000581900000000000000000000                                                                                               0000000
000582700000000000000000000                                                                                               0000000
000583500000000000000000000                                                                                               0000000
000584300000000000000000000                                                                                               0000000
000585100000000000000000000                                                                                               0000000
000586000000000000000000000                                                                                               0000000
000587800000000000000000000                                                                                               0000000
000588600000000000000000000                                                                                               0000000
000589400000000000000000000                                                                                               0000000
000590800000000000000000000                                                                                               0000000
000591600000000000000239472EMBRAPA CLIMA TEMPERADO                           AUX OP III                         15/07/19870016691
000592400000000000000188757CNPGC                                             WEBMASTER                          09/03/19810016691
000593200000000000000000000                                                                                               0000000
000594000000000000000000000                                                                                               0000000
000595900000000000000000000                                                                                               0000000
000596700000000000000274101EMBRAPA RORAIMA                                   OPERARIO RURAL                     06/03/19900016691
000597500000000000000000000                                                                                               0000000
000598300000000000000000000                                                                                               0000000
000599100000000000000000000                                                                                               0000000
000600900000000000000000000                                                                                               0000000
000601700000000000000000000                                                                                               0000000
000602500000000000000000000                                                                                               0000000
000603300000000000000000000                                                                                               0000000
000604100000000000000000000                                                                                               0000000
000605000000000000000000000                                                                                               0000000
000606800000000000000000000                                                                                               0000000
000607600000000000000000000                                                                                               0000000
000608400000000000000000000                                                                                               0000000
000609200000000000000000000                                                                                               0000000
000610600000000000000000000                                                                                               0000000
000611400000000000000000000                                                                                               0000000
000612200000000000000000000                                                                                               0000000
000613000000000000000000000                                                                                               0000000
000614900000000000000000000                                                                                               0000000
000615700000000000000000000                                                                                               0000000
000616500000000000000000000                                                                                               0000000
000617300000000000000000000                                                                                               0000000
000618100000000000000000000                                                                                               0000000
000619000000000000000000000                                                                                               0000000
000620300000000000000000000                                                                                               0000000
000621100000000000000000000                                                                                               0000000
000622000000000000000000000                                                                                               0000000
000623800000000000000202560CPAF/AC                                           AUX. OPE. 1                        05/07/19820016691
000624600000000000000000000                                                                                               0000000
000625400000000000000239142EMBRAPA CERRADOS                                  OP. RURAL I                        14/07/19870016691
000626200000000000000000000                                                                                               0000000
000627000000000000000000000                                                                                               0000000
000628900000000000000000000                                                                                               0000000
000629700000000000000291675EMPRESA BRASILEIRA DE PESQUISA AGROPECUÁRIA       AUX.OP.II                          20/12/19940016691
000630000000000000000000000                                                                                               0000000
000631900000000000000266184EMBRAPA CERRADOS                                  AUX OP II                          02/10/19890016691
000632700000000000000000000                                                                                               0000000
000633500000000000000000000                                                                                               0000000
000634300000000000000000000                                                                                               0000000
000635100000000000000000000                                                                                               0000000
000636000000000000000000000                                                                                               0000000
000637800000000000000000000                                                                                               0000000
000638600000000000000000000                                                                                               0000000
000639400000000000000000000                                                                                               0000000
000640800000000000000000000                                                                                               0000000
000641600000000000000000000                                                                                               0000000
000642400000000000000237432EMPRESA BRASILEIRA DE PESQUISA AGROPECUÁRIA       ASSISTENTE OPERAÇOES               22/04/19870016691
000643200000000000000000000                                                                                               0000000
000644000000000000000000000                                                                                               0000000
000645900000000000000000000                                                                                               0000000
000646700000000000000263625EMBRAPA CPAF/RR                                   SUP 2 PESQ                         20/10/19890016691
000647500000000000000000000                                                                                               0000000
000648300000000000000000000                                                                                               0000000
000649100000000000000252954EMBRAPA RORAIMA                                   AUX.DE OPERAÇÕES                   03/07/19980016691
000650500000000000000000000                                                                                               0000000
000651300000000000000000000                                                                                               0000000
000652100000000000000000000                                                                                               0000000
000653000000000000000000000                                                                                               0000000
000654800000000000000000000                                                                                               0000000
000655600000000000000000000                                                                                               0000000
000656400000000000000000000                                                                                               0000000
000657200000000000000000000                                                                                               0000000
000658000000000000000000000                                                                                               0000000
000659900000000000000000000                                                                                               0000000
000660200000000000000000000                                                                                               0000000
000661000000000000000000000                                                                                               0000000
000662900000000000000000000                                                                                               0000000
000663700000000000000000000                                                                                               0000000
000664500000000000000264743SCT                                               ASS. OP. II                        02/10/19890016691
000665300000000000000000000                                                                                               0000000
000666100000000000000301188EMBRAPA INFORMAÇÃO TECNOLOGICA                    TNS II                             01/03/19990016691
000667000000000000000000000                                                                                               0000000
000668800000000000000000000                                                                                               0000000
000669600000000000000000000                                                                                               0000000
000670000000000000000000000                                                                                               0000000
000671800000000000000000000                                                                                               0000000
000672600000000000000299200CNPAB                                             ASS. OP.  1                        03/11/19970016691
000673400000000000000000000                                                                                               0000000
000675000000000000000000000                                                                                               0000000
000676900000000000000000000                                                                                               0000000
000677700000000000000000000                                                                                               0000000
000678500000000000000000000                                                                                               0000000
000679300000000000000240640EMBRAPA AMAZONIA ORIENTAL                         AUX OP I                           10/08/19870016691
000680700000000000000000000                                                                                               0000000
000681500000000000000000000                                                                                               0000000
000682300000000000000000000                                                                                               0000000
000683100000000000000000000                                                                                               0000000
000684000000000000000000000                                                                                               0000000
000685800000000000000000000                                                                                               0000000
000686600000000000000000000                                                                                               0000000
000687400000000000000000000                                                                                               0000000
000688200000000000000000000                                                                                               0000000
000689000000000000000000000                                                                                               0000000
000690400000000000000000000                                                                                               0000000
000692000000000000000000000                                                                                               0000000
000693900000000000000000000                                                                                               0000000
000694700000000000000000000                                                                                               0000000
000695500000000000000000000                                                                                               0000000
000696300000000000000000000                                                                                               0000000
000697100000000000000000000                                                                                               0000000
000698000000000000000000000                                                                                               0000000
000699800000000000000000000                                                                                               0000000
000700500000000000000000000                                                                                               0000000
000701300000000000000000000                                                                                               0000000
000702100000000000000000000                                                                                               0000000
000703000000000000000000000                                                                                               0000000
000704800000000000000000000                                                                                               0000000
000705600000000000000113753EMBRAPA SEDE                                      TNS II                             01/06/19760016691
000706400000000000000000000                                                                                               0000000
000707200000000000000000000                                                                                               0000000
000708000000000000000000000                                                                                               0000000
000709900000000000000233706EMPRESA BRASILEIRA DE PESQUISA AGROPECUÁRIA       AUX.OPERAÇOES                      01/10/19860016691
000710200000000000000242594EMBRAPA CPAMN                                     AUX OP III                         01/10/19870016691
000711000000000000000125517EMBRAPA CERRADOS                                  LABORATORISTA                      07/11/19770016691
000712900000000000000000000                                                                                               0000000
000713700000000000000000000                                                                                               0000000
000714500000000000000000000                                                                                               0000000
000715300000000000000000000                                                                                               0000000
000716100000000000000000000                                                                                               0000000
000717000000000000000000000                                                                                               0000000
000718800000000000000000000                                                                                               0000000
000719600000000000000000000                                                                                               0000000
000720000000000000000000000                                                                                               0000000
000721800000000000000000000                                                                                               0000000
000722600000000000000000000                                                                                               0000000
000723400000000000000000000                                                                                               0000000
000725000000000000000000000                                                                                               0000000
000726900000000000000000000                                                                                               0000000
000727700000000000000000000                                                                                               0000000
000728500000000000000000000                                                                                               0000000
000729300000000000000000000                                                                                               0000000
000730700000000000000000000                                                                                               0000000
000732300000000000000000000                                                                                               0000000
000733100000000000000000000                                                                                               0000000
000734000000000000000000000                                                                                               0000000
000735800000000000000266221EMBRAPA ARROZ E FEIJÃO                            SECRETÁRIA                         11/01/19890016691
000736600000000000000000000                                                                                               0000000
000737400000000000000000000                                                                                               0000000
000738200000000000000000000                                                                                               0000000
000739000000000000000000000                                                                                               0000000
000740400000000000000192728CNPAF                                             PESQUISADOR III                    27/07/19810016691
000741200000000000000000000                                                                                               0000000
000742000000000000000000000                                                                                               0000000
000743900000000000000000000                                                                                               0000000
000744700000000000000000000                                                                                               0000000
000745500000000000000000000                                                                                               0000000
000746300000000000000000000                                                                                               0000000
000747100000000000000000000                                                                                               0000000
000748000000000000000000000                                                                                               0000000
000749800000000000000000000                                                                                               0000000
000750100000000000000087269EMPRESA BRASILEIRA DE PESQUISA AGROPECUÁRIA       ASSIST.OPERAÇOES III               02/06/19750016691
000751000000000000000000000                                                                                               0000000
000752800000000000000000000                                                                                               0000000
000753600000000000000000000                                                                                               0000000
000754400000000000000000000                                                                                               0000000
000755200000000000000000000                                                                                               0000000
000756000000000000000000000                                                                                               0000000
000757900000000000000000000                                                                                               0000000
000758700000000000000000000                                                                                               0000000
000759500000000000000000000                                                                                               0000000
000760900000000000000000174CERES                                             BENEFÍCIOS                         02/02/19980016691
000761700000000000000000000                                                                                               0000000
000762500000000000000000000                                                                                               0000000
000763300000000000000000000                                                                                               0000000
000764100000000000000000000                                                                                               0000000
000765000000000000000000000                                                                                               0000000
000766800000000000000000000                                                                                               0000000
000767600000000000000000000                                                                                               0000000
000768400000000000000000000                                                                                               0000000
000769200000000000000000000                                                                                               0000000
000770600000000000000000000                                                                                               0000000
000771400000000000000000000                                                                                               0000000
000772200000000000000000000                                                                                               0000000
000773000000000000000000000                                                                                               0000000
000774900000000000000000000                                                                                               0000000
000775700000000000000000000                                                                                               0000000
000776500000000000000000000                                                                                               0000000
