00000190SQN 310 BLOCO A APT                               116                       ASA NORTE                     BRASÍLIA                                DF7075601061  32016113    1
00000192PQEB AV W3 NORTE (FINAL)                          SN    ED. EMBRAPA SEDE    ASA NORTE                     BRASÍLIA                                DF7077090161  21074010    0
00000270QNF 23 CASA 15                                                              TAGUATINGA                    BRASÍLIA                                DF72125730006103553846    1
00000272PQEB FINAL DA W3 NORTE                                                      ASA NORTE                     BRASILIA                                DF72125730006103553846    0
00000350QND 12 BLOCO A APT 201                                                      TAG. NORTE                    BRASILIA                                DF72120120006103518271    1
00000430SQS 304 BLOCO E APT 603                                                     ASA SUL                       BRASILIA                                DF70337050006102232704    1
00000432PQEB FINAL DA W3 NORTE                                                      ASA NORTE                     BRASILIA                                DF70770901006102232704    0
00000510QD 55 LT 10 APARTAMENTO                           203   SETOR CENTRAL       GAMA                          BRASÍLIA                                DF72405000006100000000    1
00000512SDS ED BOVLEVARD                                  12                        ASA SUL                       BRASÍLIA                                DF72000000006121010954    0
00000600AV DO CONTORNO                                    25    CHACARA             NUCLEO BANDEIRANTE            BRASÍLIA                                DF70770901006105520152    1
00000602SIA TRECHO 6 LOTE 105/115                               SDCT                SETOR INDUSTRIAL              BRASÍLIA                                DF71205060006133635082    0
00000780RUA 19 SUL LT 9 ED.COOPERBRAPA I APT.             306   ASA NORTE           AGUA CLARAS                   BRASÍLIA                                DF71940720006130331640    1
00000781PQ. ESTASOA BIOLOGIA S/N ED.SEDE EMBRAPA                3 ANDAR SL.315      ASA NORTE                     BRASÍLIA                                DF7000000061  4484108     0
00000782PQEB FINAL DA W3 NORTE                                                      ASA NORTE                     BRASILIA                                DF70770901006130331640    0
00000860SHIN QI 11 CONJ. 5 CASA                           04    LAGO NORTE          LAGO NORTE                    BRASÍLIA                                DF71515750006105774200    1
00000862PQEB FINAL DA W3 NORTE                                                      ASA NORTE                     BRASÍLIA                                DF70770901006105774200    0
00000940QNA 39 BLOCO A APT. 204                                                     TAGUATINGA NORTE              BRASILIA                                DF72110390006103511458    1
00000942BR 060 KM 09                                                                GAMA                          BRASILIA                                DF72000000006103511458    0
00001080QE 03 CONJ. N                                     54    GUARA I             GUARA I                       BRASÍLIA                                DF71020143006103820064    1
00001082PQEB FINAL DA W3 NORTE                                                      ASA NORTE                     BRASILIA                                DF70770901006103820064    0
00001160KM 18 BR 020 RODOVIA                                                        PLANALTINA                    BRASILIA                                DF72000000006105917266    1
00001162KM 18 BR 020 RODOVIA                                                        PLANALTINA                    BRASILIA                                DF72000000006105917266    0
00001240BRASILIA                                                                    BRASILIA                      BRASILIA                                DF72000000006104484001    1
00001320Q. 06 CONJ. F CASA                                23    PLANALTINA          PLANALTINA                    BRASÍLIA                                DF72000000006105916618    1
00001322KM 20 BR 020                                                                PLANALTINA                    BRASILIA                                DF72000000006105916618    0
00001400Q-08 CONJ D CASA 23                               23                        SOBRADINHO                    BRASÍLIA                                DF73005080006105918903    1
00001402BR 020 KM 18                                                                PLANALTINA                    BRASÍLIA                                DF73301970006105918903    0
00001590OOOOOOOOOOOO                                                                OOOOOOOOOOOOO                 BRASILIA                                DF70000000006104484001    1
00001670R FRANCISCO R. DE ANDRADE, 99                                               SETE LAGOAS                   MINAS GERAIS                            MG35700389003107737518    1
00001672ROS. MG 424 KM 65                                                           SETE LAGOAS                   MINAS GERAIS                            MG35701970003107737518    0
00001750QNH 04                                            60    CASA                TAGUATINGA                    BRASÍLIA                                DF72130540006133547971    1
00001752EMBRAPA HOTALICAS                                                           GAMA                          BRASÍLIA                                DF70359970006103547971    0
00001830NAO INFORMADO                                                               NAO INFORMADO                 NAO INFORMADO                           DF72440440006104484001    1
00001910BR 020 KM 18 VIA BRASILIA/FORTALEZA                                         PLANALTINA                    PLANALTINA                              DF70306900006196577682    1
00001912BR 020 KM 18 VIA BRASILIA/FORLATEZA                     CAIXA POSTAL 08223  PLANALTINA                    PLANALTINA                              DF7030690000613889842     0
00002050OOOOOOOOOOOOOOOOOOOOOO                                                      OOOOOOOOOOOOOOOOOOO           BRASILIA                                DF71020000006104484001    1
00002130SQN 115 BL G APT. 206                                                       ASA NORTE                     BRASÍLIA                                DF70772070006102734213    1
00002132BR 020 KM 18                                                                PLANALTINA                    PLANALTINA                              DF73301970006102734213    0
00002210NAO INFORMADO                                                               PLANALTINA                    BRASILIA                                DF70000000006105918077    1
00002212RODOVIA BR 020 KM 18                                                        PLANALTINA                    BRASILIA                                DF70000000006105918077    0
00002300SRES QUADRA 08 BLOCO D CASA 08                                              CRUZEIRO  VELHO               BRASILIA                                DF70645046006103616817    1
00002302PQEB FINAL DA W3 NORTE - ED EMBRAPA                                         ASA NORTE                     BRASILIA                                DF70770901006103616817    0
00002480BR 020 KM 18                                                                PLANALTINA                    BRASILIA                                DF73301970006103672974    1
00002482BR 020 KM 18                                                                PLANALTINA                    BRASILIA                                DF73301970006103672974    0
00002560PQEB FINAL DA W3 NORTE                                                      ASA NORTE                     BRASILIA                                DF70770901006105912920    1
00002562PQEB FINAL DA W3 NORTE                                                      ASA NORTE                     BRASÍLIA                                DF7077090100614484215     0
00002640SQS 114 BL G APT 203                                                        ASA SUL                       BRASILIA                                DF70377070006103451527    1
00002642PQEB FINAL DA W3 NORTE-ED EMBRAPA S                                         ASA NORTE                     BRASILIA                                DF70770901006103451527    0
00002720SAIN PARQUE RURAL                                                           ASA NORTE                     BRASILIA                                DF70770901006103452552    1
00002722SAIN PARQUE RURAL                                                           ASA NORTE                     BRASILIA                                DF70770901006103452552    0
00002800SQS 113 BL E APT 302                                                        ASA SUL                       BRASILIA                                DF70376050006103452552    1
00002990PQEB FINAL DA W3 NORTE                                                      ASA NORTE                     BRASILIA                                DF70770901006104484050    1
00002992PQEB FINAL DA W3 NORTE                                                      ASA NORTE                     BRASILIA                                DF70770901006104484050    0
00003020RUA COSTA FILHO BL 2 519                          602   MAL. HERMES         MAL HERMES                    RIO DE JANEIRO                          RJ23020470002139182365    1
00003022AV. DAS AMERICAS 29501                                                      GUARATIBA                     RIO DE JANEIRO                          RJ23020470002124109588    0
00003100Q 02 CONJ C15 BLOCO C APT 107                           SOBRADINHO          SOBRADINHO                    BRASÍLIA                                DF73010000006103872474    1
00003290SAIN PARQUE RURAL                                                           ASA NORTE                     BRASILIA                                BA70770901006104484001    1
00003292SAIN PARQUE RURAL                                                           ASA NORTE                     BRASILIA                                BA70770901006104484001    0
00003370RUA JURITI QD 140 LOTE 5/7 C/6                          SANTA GENOVEVA      SANTA GENOVEVA                GOIÂNIA                                 GO74672660006202073522    1
00003372ROD. GOIANIA A NOVA VENEZA KM12                                             ZONA RURAL                    STO. ANTONIO DE GOIA                    GO74001970006202073522    0
00003450RUA JURITI Q 140 L5-7 AP 06                                                 SETOR ST GENOVEVA             GOIANIA                                 GO99999999006104484001    1
00003530SAIN PARQUE RURAL                                                           ASA NORTE                     BRASILIA                                DF70770901006105771056    1
00003532SAIN PARQUE RURAL                                                           ASA NORTE                     BRASILIA                                DF70770901006105771056    0
00003610SAIN PARQUE RURAL                                                           ASA NORTE                     BRASILIA                                DF70770901006103681776    1
00003612PQEB FINAL DA W3 NORTE                                                      ASA NORTE                     BRASILIA                                DF70770901006103681776    0
00003700SAIN PARQUE RURAL                                                           ASA NORTE                     BRASILIA                                DF70770901006103823322    1
00003702SAIN PARQUE RURAL                                                           ASA NORTE                     BRASILIA                                DF70770901006103823322    0
00003880COND.RK CONJ ANTUNES N C/18 BOA VISTA             18    BOA VISTA           BOA VISTA                     BRASÍLIA                                DF7301701000613027537     1
00003881TERINAL W3 NORTE ED.SEDE/EMBRAPA 716N                                       ASA NORTE                     BRASÍLIA                                DF70770901061 4484503     0
00003882SAIN PARQUE RURAL                                                           ASA NORTE                     BRASILIA                                DF70770901006103478064    0
00003960SAIN PARQUE RURAL                                                           ASA NORTE                     BRASILIA                                DF70770901006105007294    1
00003962SAIN PARQUE RURAL                                                           ASA NORTE                     BRASILIA                                DF70770901006105007294    0
00004000SAIN PARQUE RURAL                                                           ASA NORTE                     BRASILIA                                DF70770901006103283230    1
00004002SAIN PARQUE RURAL                                                           ASA NORTE                     BRASILIA                                DF70770901006103283230    0
00004180QD 14 CONJ .B 8 CASA                              04    SOBRADINHO          SOBRADINHO                    BRASÍLIA                                DF73050140006105917663    1
00004181BR 020 KM 18-BSB                                        CPAC                PLANALTINA                    BRASÍLIA                                DF7331097061  3889843     0
00004182BR 020 KM 18 (BSB/FORTALEZA)                                                ZONA RURAL                    PLANALTINA                              DF73301970006105917663    0
00004260QNL 02 BLOCO A APARTAMENTO                        305                       L NORTE                       BRASÍLIA                                DF72155211006135622482    1
00004262SAIN PARQUE RURAL                                                           ASA NORTE                     BRASÍLIA                                DF70707901006104484484    0
00004340SAIN PARQUE RURAL                                                           ASA NORTE                     BRASILIA                                DF70770901006103674615    1
00004342SAIN PARQUE RURAL                                                           ASA NORTE                     BRASILIA                                DF70770901006103674615    0
00004420Q 2 MR3 CASA 11                                         SETOR LESTE         PLANALTINA                    PLANALTINA                              GO1737500000613889892     1
00004422ROD BR 020 KM 18 CX P. 08223                                                PLANALTINA                    PLANALTINA                              GO7330197061  3889898     0
00004500COND. VIVENDAS FRIBURGO RUA A C 6                                           GRANDE COLORADO               SOBRADINHO                              DF73070013006103484102    1
00004502SAIN    PARQUE RURAL                                                        ASA NORTE                     BRASILIA                                DF70770901006103484102    0
00004690QI 27 -                                           8     AP 205              GUARA II                      BRASÍLIA                                DF71060270006135688232    1
00004692EMBRAPA SEDE                                      S/N                       ASA NORTE                     BRASÍLIA                                DF70770901006134484404    0
00004770SAIN PARQUE RURAL                                                           ASA NORTE                     BRASILIA                                DF70770901006103484210    1
00004772SAIN PARQUE RURAL                                                           ASA NORTE                     BRASILIA                                DF70770901006103484210    0
00004850BR 020 KM 18 (BRASILIA/FORTALEZA)                                           BRASILIA                      PLANALTINA                              DF73301970006204484001    1
00004852BR 020 KM 18 (BRASILIA/FORTALEZA)                                           PLANALTINA                    BRASILIA                                DF73301970006204484001    0
00004930PAL. DO PLAN. PRACA 3 PODERES 2 AND                                         ASA SUL                       BRASÍLIA                                DF70150900006103564353    1
00004932PAL. DO PLAN. PRACA 3 PODERES 2 AND                                         ASA SUL                       BRASÍLIA                                DF70150900006103564353    0
00005070SHIN QI 4 CONJ. 11 CASA 19                                                  LAGO NORTE                    BRASILIA                                DF70510310006103684191    1
00005072SAIN PARQUE RURAL                                                           ASA NORTE                     BRASILIA                                DF70770901006103684191    0
00005150R. AGNELO BITENCOURT                              1582  CASA                SAO FRANCISCO                 BOA VISTA                               RR69305170009530820025    1
00005151BR 174 KM 08                                                                DISTRITO INDUSTRIAL           BOA VISTA                               RR69301970095 6267125     0
00005152BR-174 KM 08                                                                DISTRITO INDUSTRIAL           BOA VISTA                               RR69301970009502240801    0
00005230RUA GAL. RIBEIRO DA COSTA                         137   LEME                LEME                          RIO DE JANEIRO                          RJ22010050002125427588    1
00005232AV. DAS AMERICAS 29501                                                      GUARATIBA                     RIO DE JANEIRO                          RJ23020470002105427588    0
00005310SCLN 410 BL. D APT. 11                                                      ASA NORTE                     BRASILIA                                DF70865540006102739749    1
00005312SAIN PARQUE RURAL                                                           ASA NORTE                     BRASILIA                                DF70770901006102739749    0
00005400SAIN PARQUE RURAL                                                           ASA NORTE                     BRASILIA                                DF70770901006105568321    1
00005402SAIN PARQUE RURAL                                                           ASA NORTE                     BRASILIA                                DF70770901006105568321    0
00005580SHS QI 05 CONJ 13                                 11                        LAGO SUL                      BRASÍLIA                                DF71615130006103641873    1
00005582PRAÇA DO BURITI MPDFT ED SEDE                                               ASA SUL                       BRASÍLIA                                DF70770901006103641873    0
00005660PARQUE RURAL                                                                ASA NORTE                     BRASILIA                                DF70770901006103474481    1
00005662PARQUE RURAL                                                                ASA NORTE                     BRASILIA                                DF70770901006103474481    0
00005740Q 02 CONJUNTO C 04 CASA                           86    BRASILIA            SOBRADINHO                    BRASÍLIA                                DF70770901006133871753    1
00005742SAIN PARQUE RURAL                                                           ASA NORTE                     BRASÍLIA                                DF70770901006134484314    0
00005820SAIN PARQUE RURAL                                                           ASA NORTE                     BRASILIA                                DF70770901006102736707    1
00005822SAIN PARQUE RURAL                                                           ASA NORTE                     BRASILIA                                DF70770901006102736707    0
00005900SQN 221 BL. B CASA 34                                                       ASAS NORTE                    BRASILIA                                DF70000000006104484001    1
00006040CONDOMINIO MONTERREY BLOCO 2                      304   APT                 ESTACAOEXPERIMENTAL           RIO BRANCO                              AC69907520068 32271054    1
00006042ROD. BR 364 KM 14                                                           ESTACAO EXPERIMENTAL          RIO BRANCO                              AC69908970006902243931    0
00006120SQN 308 BLOCO E APTO                              506   ASA NORTE           ASA NORTE                     BRASÍLIA                                DF7074705000613479223     1
00006122PQEB FINAL DA W3 NORTE                                                      ASA NORTE                     BRASILIA                                DF70770901006103492657    0
00006200ESTR. DOS BAND. 8325 BL8/706                                                JACAREPAGUA                   RIO DE JANEIRO                          RJ22783115002104429398    1
00006202AV. DAS AMERICAS 29501                                                      GUARATIBA                     RIO DE JANEIRO                          RJ23020470002104429398    0
00006390AV PADRE RICARDO SILVESTRE                                                  CENTRO                        BOA VISTA                               RR69340000095500421596    1
00006392BR 174 KM 08                                                                DISTRITO INDUSTRIAL           BOA VISTA                               RR69301970095500421596    0
00006470RUA DA PRATA 186                                                            CONJ. MARECH RONDON           PORTO VELHO                             RO78908180069202221681    1
00006472BR 364 KM 5,5                                                               ZONA RURAL                    PORTO VELHO                             RO78900970069202221681    0
00006550RUA DA ESPERANCA 2455                                                       JARDIM ELDORADO               PORTO VELHO                             RO78900970006902223080    1
00006552BR 364 KM 5,5                                                               ZONA RURAL                    PORTO VELHO                             RO78900970006902223080    0
00006630BR 364 KM 5,5                                                               ZONA RURAL                    PORTO VELHO                             RO78900970006902221861    1
00006632BR 364 KM 5,5                                                               ZONA RURAL                    PORTO VELHO                             RO78900970006902221861    0
00006710R: TEOFILO OTONI                                  2734                      LAGOINHA                      PORTO VELHO                             RO7890375000692268914     1
00006712BR 364 KM 5,5 CX P. 406                                                     ZONA RURAL                    PORTO VELHO                             RO7890097000692220014     0
00006800RUA PINHEIRO                                      2396  NOVA FLORESTA       NOVA FLORESTA                 PORTO VELHO                             RO78900050006932274799    1
00006802BR 364 KM 5,5                                                               ZONA RURAL                    PORTO VELHO                             RO78900970006922222222    0
00006980RUA HEBERT DE AZEDO                               5/5*                      LIBERDADE                     PORTO VELHO                             RO78900270006902241306    1
00006982BR 364 KM 5,5 CX P. 406                                                     ZONA RURAL                    PORTO VELHO                             RO7897090000692220014     0
00007010RUA RIO DE JANEIRO 4350 APT.202                                             NOVA PORTO VELHO              PORTO VELHO                             RO78900000006902221911    1
00007012BR 364 KM 5,5                                                               ZONA RURAL                    PORTO VELHO                             RO78900970006902221911    0
00007100BR 364, KM 5,5                                                              ZONA RURAL                    PORTO VELHO                             RO78900970006902101672    1
00007102BR 364, KM 5,5                                                              ZONA RURAL                    PORTO VELHO                             RO78900970006902101672    0
00007280BR 364 KM 5,5                                                               ZONA RURAL                    PORTO VELHO                             RO78900970006902223080    1
00007282BR 364 KM 5,5                                                               ZONA RURAL                    PORTO VELHO                             RO78900970006902223080    0
00007362BR 364 KM 5,5 CX.P. 406                                                     ZONA RURAL                    PORTO VELHO                             RO7890097000692220014     1
00007440RUA CESAR GUERRA PEIXE                            5560  04 DE JANEIRO       04 DE JANEIRO                 PORTO VELHO                             RO7890000069  2121144     1
00007442BR 364 KM 5,5                                                               ZONA RURAL                    PORTO VELHO                             RO78900970006104484001    0
00007520RUA DOS COMERCIARIOS 409                                                    JARDIM AMERICA                PORTO VELHO                             RO78904220006902219287    1
00007522BR 364 KM 5,5                                                               ZONA RURAL                    PORTO VELHO                             RO78900970006902219287    0
00007600AV. RIO MADEIRA,1263                                                        NOVA PORTO VELHO              PORTO VELHO                             RO78920706006902222222    1
00007602BR 364 KM 5,5                                                               ZONA RURAL                    PORTO VELHO                             RO78900970006902222222    0
00007790SQ 12 QUADRA 04                                   43                        CENTRO                        BRASÍLIA                                DF72880000006106256841    1
00007791PQEB PARQUE ESTAÇAO BIOLOGICA                                               W3 NORTE                      BRASÍLIA                                DF72000000061 4484402     0
00007792PQEB FINAL DA W3 NORTE                                                      ASA NORTE                     BRASILIA                                DF70770901006106256841    0
00007870AV. RIO BRANCO 2644/1601                                                    CENTRO                        JUIZ DE FORA                            MG36016311003202164702    1
00007872R. EUGENIO NASCIMENTO 610                                                   DOM BOSCO                     JUIZ DE FORA                            MG36038330003202164702    0
00007950SQN 315 - BL I                                    105   AP                  ASA NORTE                     BRASÍLIA                                DF70000000006102724177    1
00007952PARQUE ESTAÇAO BIOLOGICA W/S NORTE-FINAL                                    ASA NORTE                     BRASÍLIA                                DF70000000006102724177    0
00008090SAIN PARQUE RURAL FINAL W3 NORTE                                            ASA NORTE                     BRASILIA                                DF70770901006103465437    1
00008092SAIN PARQUE RURAL FINAL W3 NORTE                                            ASA NORTE                     BRASILIA                                DF70770901006103465437    0
00008170R. GUTEMBERG 340 AP 02                                                      BATEL                         CURITIBA                                PR80420030004102438507    1
00008172ESTRADA  DA RIBEIRA KM 111                                                  GUARAITUBA                    COLOMBO                                 PR83411000004102438507    0
00008250R. ADALTO TRAVASSO DE MOURA S/N                                             ALTO BRANCO                   CAMPINA GRANDE                          PB58102536008303217655    1
00008252RUA OSVALDO CRUZ 1143                                                       CENTENARIO                    CAMPINA GRANDE                          PB58107720008303217655    0
00008330RUA OSVALDO CRUZ 478                                                        CENTENARIO                    CAMPINA GRANDE                          PB58107720008303224400    1
00008332R. OSVALDO CRUZ  1143                                                       CENTENARIO                    CAMPINA GRANDE                          PB58107720008303224400    0
00008410R. FELIX ARAUJO 178 APT. 101                                                CENTRO                        CAMPINA GRANDE                          PB58101450008303227220    1
00008412R. OSVALDO CRUZ 1143                                                        CENTENARIO                    CAMPINA GRANDE                          PB58107720008303227220    0
00008500QNL 13 BL. C APT. 202                                                       TAGUATINGA NORTE              BRASILIA                                DF72150130006109739642    1
00008502SAIN PARQUE RURAL W3 NORTE                                                  ASA NORTE                     BRASILIA                                DF70770901006109739642    0
00008680CONDOMINIO PORTAL DO AMANHECER CASA 7                                       PLANALTINA                    PLANALTINA                              DF7330197000614891165     1
00008681BR 020 KM 18 BSB/FORTALEZA                              EMBRAPA             PLANALTINA                    PLANALTINA                              DF7331097061  3889898     0
00008760Q.8 MR 7 CASA 39 SRL                                                        PLANALTINA                    BRASÍLIA                                DF73750050006105914763    1
00008762KM 18 BR 020                                                                PLANALTINA                    BRASÍLIA                                DF73300970006105914763    0
00008840COND VALE DO SOL CONJUNTO D LOTE                  03    VALE DO SOL         VALE DO AMANHECER             BRASÍLIA                                DF73300970006133889843    1
00008842BR 020 KM 18 ROD.BRASILIA/FORTALEZA                                         PLANALTINA                    BRASILIA                                DF73301970006103891171    0
00008920SAIN PARQUE RURAL AV W3 NORTE                                               ASA NORTE                     BRASILIA                                DF70770900006103620251    1
00008922SAIN PARQUE RURAL AV W3 NORTE                                               ASA NORTE                     BRASILIA                                DF70770900006103620251    0
00009060QD 02 BL. S CASA 44                                                         CRUZEIRO VELHO                BRASILIA                                DF70648190006105971005    1
00009062SAIN PARQUE RURAL FINAL W3 NORTE                                            ASA NORTE                     BRASILIA                                DF70770901006105971005    0
00009140QR 116 CONJ 7                                     12    CASA                SAMANBAIA SUL                 BRASÍLIA                                DF72302708006133588343    1
00009142SAIN PARQUE RURAL FINAL W3 NORTE                                            ASA NORTE                     BRASÍLIA                                DF70700901006103484288    0
00009220SHIN QL 09 CONJ. 05 CASA 08                                                 LAGO NORTE                    BRASÍLIA                                DF71515255006135771998    1
00009221SCLN 202 BLOCO C                                                            ASA NORTE                     BRASÍLIA                                DF70000000061 33278192    0
00009300SHIN QL 09 CJ5 CS8                                                          LAGO NORTE                    BRASILIA                                DF71515255006105771998    1
00009490RUA 04 CONJUNTO TAPAJOS                           383   MANAUS              FLORES                        MANAUS                                  AM69048670009236546965    1
00009492RODOVIA AM 010 KM 28                                                        ZONA RURAL                    MANAUS                                  AM69048660009206543075    0
00009570RODOVIA AM 010 KM 29                                                        ZONA RURAL                    MANAUS                                  AM69090370009206222012    1
00009572RODOVIA AM 010 KM 29                                                        ZONA RURAL                    MANAUS                                  AM69048660009236210300    0
00009650SHN AREA ESPECIAL                                 47    AP 206              TAGUATINGA NORTE              BRASÍLIA                                DF72130000006100000000    1
00009652SAIN PARQUE RURAL FINAL W3 NORTE                                            ASA NORTE                     BRASÍLIA                                DF70770901006105638477    0
00009730PQEB FINAL DA W3 NORTE                                                      ASA NORTE                     BRASILIA                                DF70770901006103685515    1
00009732PQEB FINAL DA W3 NORTE                                                      ASA NORTE                     BRASILIA                                DF70770901006103685515    0
00009810Q. 01 CONJ C CASA                                 30    SOBRADINHO          SOBRADINHO                    BRASÍLIA                                DF73017009006103022706    1
00009812PQEB FINAL DA W3 NORTE                                                      ASA NORTE                     BRASILIA                                DF70770901006103022706    0
00009900RODOVIA JK KM 05                                                            ZERAO                         MACAPA                                  AP68902280009602221588    1
00009902RODOVIA JK KM 05                                                            ZERAO                         MACAPA                                  AP68902280009602221588    0
00010070RUA JOAO DE DEUS                                  2205  MACAPA              NOVO HORIZONTE                MACAPÁ                                  AP68909280009602513438    1
00010072RODOVIA J K KM 05                                                           ZERAO                         MACAPA                                  AP68902280009602513438    0
00010150AV, MANOEL PACIFICO CANTUARIA 35                                            PACOVAL                       MACAPA                                  AP68900000009602243130    1
00010152ROD. JUSCELINO K KM 05                                                      MARCO ZERO                    MACAPA                                  AP68902280009602243130    0
00010230AV.PEDRO LAZARINO                                 541                       BEIROL                        MACAPÁ                                  AP6890208096  2430532     1
00010231RD.JUSCELINO KUBTSCHEK KM 05                      S/N                       UNIVERSIDADE                  MACAPÁ                                  AP68903000096 2411551     0
00010310EST. STO ANTONIO BL C APT 41                            RESID. CUJUBIM      TRIANGULO                     PORTO VELHO                             RO78900000006932291382    1
00010312BR364 KM 5,5                                                                ZONA RURAL                    PORTO VELHO                             RO7890097000692220014     0
00010400R. JOSE BONIFACIO                                                           OLARIA                        PORTO VELHO                             RO78902280006902216680    1
00010402BR 364 KM 5,5                                                               ZONA RURAL                    PORTO VELHO                             RO78900970006902216680    0
00010580RUA OITO 2300                                                               JARDIM ELDORADO               POORTO VELHO                            RO78900000006902223080    1
00010582BR 364 KM 5,5                                                               ZONA RURAL                    PORTO VELHO                             RO78900970006902223080    0
00010660PQEB FINAL W3 NORTE                                                         ASA NORTE                     BRASILIA                                DF70770901006103849854    1
00010662PQEB FINAL W3 NORTE                                                         ASA NORTE                     BRASILIA                                DF70770901006103849854    0
00010740Q. 17 CONJ. C CASA 39                                                       SOBRADINHO                    BRASILIA                                DF73045170006105917884    1
00010742SAIN PARQUE RURAL FINAL W3 NORTE                                            ASA NORTE                     BRASILIA                                DF73770901006105917884    0
00010820BR 364 KM 5,5                                                               ZONA RURAL                    PORTO VELHO                             RO78900970006902221847    1
00010822BR 364 KM 5,5                                                               ZONA RURAL                    PORTO VELHO                             RO78900970006902221847    0
00010900R: TEODORA LOPES                                  10447                     MARIANA                       PORTO VELHO                             RO7890000000690000000     1
00010902BR 364 KM 5,5                                           CX. P. 406          ZONA RURAL                    PORTO VELHO                             RO7891823000692220014     0
00011040ROD. JK KM 05                                                               ZERAO                         MACAPA                                  AP68902280006102222222    1
00011042ROD. JK KM 05                                                               ZERAO                         MACAPA                                  AP68902280006102222222    0
00011120R. JOSE F SOBRINHO 254                                                      CENTENARIO                    CAMPINA GRANDE                          PB58108030008303416325    1
00011122OSVALDO CRUZ 1143                                                           CENTENARIO                    CAMPINA GRANDE                          PB58108720008303416325    0
00011200OSVALDO CRUZ 1143                                                           CENTENARIO                    CAMPINA GRANDE                          PB58107720008303212806    1
00011202OSVALDO CRUZ 1143                                                           CENTENARIO                    CAMPINA GRANDE                          PB58107720008303212806    0
00011390RUA ANTONIO SOARES FILHO                          336   CENTENARIO          CENTENARIO                    CAMPINA GRANDE                          PB58108023008300000000    1
00011392OSVALDO CRUZ                                      1143                      CENTENARIO                    CAMPINA GRANDE                          PB58107720008333154300    0
00011470AV. DAS AMERICAS 29501                                                      GUARATIBA                     RIO DE JANEIRO                          RJ23020470002103577677    1
00011472AV. DAS AMERICAS 29501                                                      GUARATIBA                     RIO DE JANEIRO                          RJ23020470002103577677    0
00011550RUA GUILUERME FERNANDES                           209                       SULACAP                       RIO DE JANEIRO                          RJ23020470002104010244    1
00011552AV. DAS AMERICAS 29501                                                      GUARATIBA                     RIO DE JANEIRO                          RJ23020470002124109576    0
00011630RUA QUATORZE DE JULHO                             4585  CASA 6              MONTE CASTELO                 CAMPO GRANDE                            MS7901047000673560793     1
00011631EMBRAPA GADO DE CORTE.BR 262,KM 4                                           SAIDA AQUIDAVANA              CAMPO GRANDE                            MS7900297067  3682038     0
00011632BR 262 KM 04 SAIDA P AQUIDAUANA                                             RURAL                         CAMPO GRANDE                            MS79002970006703244640    0
00011710R. EDUARDO APTO 101                                                         SAO FRANCISCO                 CAMPO GRANDE                            MS79010030006707244640    1
00011800R. JOSE ZACARIAS DA COSTA 537                                               BODOCONGO                     CAMOINA GRANDE                          PB58108315008303333834    1
00011802EMBRAPA ALGODAO                                                             CENTENARIO                    CAMPINA GRANDE                          PB58107720008303333834    0
00011980R. CONDE DEU                                      39                        MONTE SANTO                   CAMPINA GRANDE                          PB58102025008300000000    1
00011982RUA OSWALDO CRUZ                                  443                       CENTENARIO                    CAMPINA GRANDE                          PB58107720008333154300    0
00012010RUA ALMEIDA BARRETO                               3039  CASA                SANTA ROSA                    CAMPINA GRANDE                          PB58107632008333338491    1
00012012RUA OSVALDO CRUZ                                  1143                      SANTA ROSA                    CAMPINA GRANDE                          PB58107720008333154300    0
00012100SHEPS Q 1405 BL H                                                           CRUZEIRO NOVO                 BRASILIA                                DF70000000006102337958    1
00012102SAIN PARQUE RURAL  FINAL W3 NORTE                                           ASA NORTE                     BRASILIA                                DF70770901006102337958    0
00012280EMBBRAPA/ALGODAO                                                            CENTENARIO                    CAMPINA GRANDE                          PB58107720008303343227    1
00012282EMBBRAPA/ALGODAO                                                            CENTENARIO                    CAMPINA GRANDE                          PB58107720008303343227    0
00012360R. SÃO PEDRO RESID. NEUSINHA C. LIMA Q.           14    BL 06 APT 302       SANTA ROSA                    CAMPINA GRANDE                          PB5810000000833154300     1
00012362EMBRAPA/ALGODAO                                                             CENTENARIO                    CAMPINA GRANDE                          PB58107720008303413808    0
00012440R. JOSE PIMENTEL DE LIMA 177                                                CENTENARIO                    CAMPINA GRANDE                          PB58108063008333335595    1
00012442CNPA RUA OSVALDO CRUZ                             1143                      CENTENARIO                    CAMPINA GRANDE                          PB58107720008333412314    0
00012520GRANJA ST. ALZIRA                                                           ZONA RURAL                    LAGOA SECA                              PB58000000008303661274    1
00012522EMBRAPA/ALGODAO                                                             CENTENARIO                    CAMPINA GRANDE                          PB58107720008303661274    0
00012600BR 174 KM 08                                                                DISTRITO INDUSTRIAL           BOA VISTA                               RR69301970007902484537    1
00012602AV BEIRA MAR 3250                                                           ARACAJU                       ARACAJU                                 SE49000000007902484537    0
00012790QNP 16 CONJ. F  CS 48                                   P. SUL              P. SUL                        BRASÍLIA                                DF7223160100613767075     1
00012792SAIN PARQUE RURAL FINAL W3 NORTE                                            ASA NORTE                     BRASILIA                                DF70770901006103773063    0
00012870AV. BEIRA MAR 3250                                                          13 DE JULHO                   ARACAJU                                 SE49000000007902171300    1
00012872AV. BEIRA MAR 3250                                                          13 DE JULHO                   ARACAJU                                 SE49000000007902171300    0
00012950SQN 315 BL. F APT. 303                                  ASA NORTE           ASA NORTE                     BRASÍLIA                                DF70774060006102721435    1
00012952SAIN PARQUE RURAL FINAL W3 NORTE                                            ASA NORTE                     BRASILIA                                DF70770901006102721435    0
00013090SHIS QI 17 CONJ. 03 CASA 19                                                 LAGO SUL                      BRASILIA                                DF71645030006102484131    1
00013092ROD. AM 010 KM 29                                                                                         MANAUS                                  AM69048660006102484131    0
00013170RUA PAULO PANTIS                                  250                       CENTENARIO                    CAMPINA GRANDE                          PB58108055083 33338151    1
00013172EMBRAPA/CNPA                                                                CENTENARIO                    CAMPINA GRANDE                          PB58107720006902222222    0
00013250SQS 110 BLOCO C APARTAMENTO                       401   ASA SUL             ASA SUL                       BRASÍLIA                                DF70373030006102421285    1
00013252SAIN PARQUE RURAL FINAL W3 NORTE                                            ASA NORTE                     BRASILIA                                DF70770901006102421285    0
00013330EMBRAPA                                                                     ASA NORTE                     BRASILIA                                DF70000000006104484001    1
00013332EMBRAPA                                                                     ASA NORTE                     BSB                                     DF70000000006104484001    0
00013410EMBRAPA/CNPA                                                                CENTENARIO                    CAMPINA GRANDE                          PB58107720006104484001    1
00013412EMBRAPA/CNPA                                                                CENTENARIO                    CAMPINA GRANDE                          PB58107720006104484001    0
00013500RUA FREIRE FRANCISCO GUSMAO                       14                        BONDOCONGO                    CAMPINA GRANDE                          PB5810816583  00000       1
00013502RUA OSWALDO CRUZ                                  1143                      CENTENARIO                    CAMPINA GRANDE                          PB5810772083  3154346     0
00013680NR BOA ESPERANÇA                                  S/N   CHACARA DAS PEDRAS  GRANJA DO TORTO               BRASÍLIA                                DF70770901006139632899    1
00013682SAIN PARQUE RURAL FINAL W3 NORTE                                            ASA NORTE                     BRASILIA                                DF70770901006105010359    0
00013760AV. SAO SEBASTIAO 2055                                                      FATIMA                        PARNAIBA                                PB64202020001632042906    1
00013762AV. SAO SEBASTIAO 2055                                                      FATIMA                        PARNAIBA                                PB64202020001632042906    0
00013840R. SAO TOME 200                                   200                       UNIAO                         MAZAGÃO                                 AP68930000096602711107    1
00013842RODOVIA JK KM 05                                                            MARCO ZERO                    MACAPÁ                                  AP68902280096602711107    0
00013920QNP 26 CONJ P CASA 05                                                       SETOR P SUL                   BRASILIA                                DF70000000006103763675    1
00013922EMBRAPA/CPAC                                                                PLANALTINA                    BRASILIA                                DF70000000006103763675    0
00014060CONJUNTO EMBRAPA -TRAVESSA 02                     111                       UNIVERSIDADE                  MACAPÁ                                  AP6890300000692414937     1
00014061RODOVIA JUSCELNO KUBITSCHEK KM 05                                           UNIVERSIDADE                  MACAPÁ                                  AP68903000069 2411551     0
00014140RUA XIRIANA                                       243                       APARECIDA                     BOA VISTA                               RR69306320009506232744    1
00014142BR 174 KM 08                                                                DIST. INDUSTRIAL              BOA VISTA                               RR69301970009506232744    0
00014220SAIN PARQUE RURAL FINAL W3 NORTE                                            ASA NORTE                     BRASILIA                                DF70770901006103401732    1
00014222SAIN PARQUE RURAL FINAL W3 NORTE                                            ASA NORTE                     BRASILIA                                DF70770901006103401732    0
00014300SAIN PARQUE RURAL FINAL  W3 NORTE                                           ASA NORTE                     BRASILIA                                DF70770901006104484001    1
00014302SAIN PARQUE RURAL FINAL  W3 NORTE                                           ASA NORTE                     BRASILIA                                DF70770901006104484001    0
00014490SCR N 710/711 BLOCO B ENT. 48                     101   ASA NORTE           ASA NORTE                     BRASÍLIA                                DF70750620006102725128    1
00014492PQEB FINAL DA W3 NORTE                                                      ASA NORTE                     BRASILIA                                DF70770901006102725128    0
00014570Q 26 CASA 32 SETOR A                                                        MOCAMBINHO                    TERESINA                                PI64010100089 32243440    1
00014572AV DUQUE DE CAXIAS                                5650                      BUENOS AIRES                  TERESINA                                PI70770901089 32251141    0
00014650EPQB AV FINAL W3 NORTE SALA 323                                             ASA NORTE                     BRASILIA                                DF70770901006104480001    1
00014652EPQB AV FINAL W3 NORTE SALA 323                                             ASA NORTE                     BRASILIA                                DF70770901006104480001    0
00014730R. JOAO NUNES DE FIGUEREDO, 12                                              JARDIM QUARENTA 129           CAMPINA GRANDE                          PB58107275008303412063    1
00014732OSVALDO CRUZ                                      1143                      CENTENARIO                    CAMPINA GRANDE                          PB58107720008303412063    0
00014810BR 060 KM 09                                                                TAMANDUA                      BRASILIA                                DF70000000006103859089    1
00014812BR 060 KM 09                                                                TAMANDUA                      BRASILIA                                DF70000000006195542531    0
00014900NAO INFORMADO                                                               NAO INFORMADO                 BRASILIA                                DF72000000006104484001    1
00015030RUA SALGADO FILHO, 1106                                                     MATO GROSSO                   PORTO VELHO                             RO78915500006902218915    1
00015032BR 364, KM 5,5                                                              ZONA RURAL                    PORTO VELHO                             RO7890097000692220409     0
00015110AV JOSE BERNARDINHO KM 04                                                   BURITI                        BARBALHA                                CE63180000088 35322861    1
00015200R, RAUL FARIAS 231                                                          CRUZEIRO                      CAMPINA GRANDE                          PB58100000008303353990    1
00015202CNPA                                                                        CENTENARIO                    CAMPINA GRANDE                          PB58107720008303353990    0
00015380R. 07 CASA 14                                                               RESID. ICARAI II              PORTO VELHO                             RO78900000006902253762    1
00015382BR 364 KM 5,5                                                               ZONA RURAL                    PORTO VELHO                             RO78900970006902253762    0
00015460BR 364 KM 5,5                                                               ZONA RURAL                    PORTO VELHO                             RO78900970006902223080    1
00015462BR 364 KM 5,5                                                               ZONA RURAL                    PORTO VELHO                             RO78900970006902223080    0
00015540R.TENENTE CICERO 630                                    APARECIDA           APARECIDA                     BOA VISTA                               RR69306340009506237808    1
00015542ROD. BBR 174 KM 08                                                          DISTRITO INDUSTRIAL           BOA VISTA                               RR69301970009506237808    0
00015620R. ALFERES PAULO SALDANHA 674                                               SAO FRANCISCO                 BOA VISTA                               RR69305460009506230301    1
00015622BR  174 KM 08                                                               DISTRITO INDUSTRIAL           BOA VISTA                               RR69301970009506230301    0
00015700R. TANCREDO NEVES N 38                                                      NOVA JERUSALEM D PED          MANAUS                                  AM69042720009206564907    1
00015702KM  29 DA AM 010                                                            ZONA RURAL                    MANAUS                                  AM69011319009206564907    0
00015890SAIN PARQUE RURAL FINAL W3 NORTE                                            ASA NORTE                     BRASILIA                                DF70770901006102734576    1
00015892PQEB FINAL W3 NORTE                                                         ASA NORTE                     BRASILIA                                DF70770901006102734576    0
00015970RUA ANISIO DE CARVALHO                            1363  CASA                PARAVIANA                     BOA VISTA                               RR6930725000956248945     1
00015972BR 174 KM 08                                                                DISTRITO INDUSTRIAL           BOA VISTA                               RR6930197000956267125     0
00016000RUA AMAPA                                         726                       DOS ESTADOS                   BOA VISTA                               RR69305520009506236190    1
00016002BR 174 KM 08                                                                DISTRITO INDUSTRIAL           BOA VISTA                               RR69301970009506236190    0
00016190QRSW 03, BLOCO B-7                                303   APTO                SUDOESTE                      BRASÍLIA                                DF70675327006133448172    1
00016192ESPLANADA DOS MINISTERIOS, T-5, ANEXO II                                    ASA NORTE                     BRASÍLIA                                DF70770901006103213500    0
00016270QSE 11 CASA 417                                         SHIS SUL            SHIS SUL                      BRASÍLIA                                DF72025610006103564335    1
00016272SAIN PARQUE RURAL FINAL W3  NORTE                                           ASA NORTE                     BRASILIA                                DF70770901006103564335    0
00016350QNP - 32 - CON B                                  22    P-SUL               CEILANDIA                     BRASÍLIA                                DF70770901006100000000    1
00016352EMBRAPA                                                                     ASA NORTE                     BRASÍLIA                                DF70770901006103510157    0
00016430SAIN PARQUE RUARAL FINAL  W3 NORTE                                          ASSA NORTE                    BRASILIA                                DF70770901006105613174    1
00016432SAIN PARQUE RUARAL FINAL  W3 NORTE                                          ASSA NORTE                    BRASILIA                                DF70770901006105613174    0
00016510QNL 13 CONJ D CASA 03                                                       TAGUATINGA                    TAGUATINGA                              DF70000000006103362514    1
00016512BR 020 KM 18 (BSB/FORTALEZA)                                                PLANALTINA                    PLANALTINA                              DF7331097000613889976     0
00016600SAIN PARQUE RURAL   FINAL W3 NORTE                                          ASA NORTE                     BRASILIA                                DF70770901006104872380    1
00016602SAIN PARQUE RURAL   FINAL W3 NORTE                                          ASA NORTE                     BRASILIA                                DF70770901006104872380    0
00016780QR 608 CONJ. 06 CASA 09                                                     SAMAMBAIA                     BRASILIA                                DF70000000006103580781    1
00016782SAIN PARQUE RURAL FINAL W3 NORTE                                            ASA NORTE                     BRASILIA                                DF70770901006103580781    0
00016860SAIN PARQUE RURAL  FINAL W3 NORTE                                           ASA NORTE                     BRASILIA                                DF7077090100614484733     1
00016862SAIN PARQUE RURAL  FINAL W3 NORTE                                           ASA NORTE                     BRASILIA                                DF70770901006103744706    0
00016940Q. 14 CONJ. B2 APT. 315                                                     SOBRADINHO                    BRASILIA                                DF73050140006103879679    1
00016942BR 020 KM 18 ROD BSB/FORTALEZA                                              PLANALTINA                    BRASILIA                                DF73301970006103879679    0
00017080CONJUNTO GUIANAS - BLOCO B                        301   APTº                FLORES                        MANAUS                                  AM69043000006136517855    1
00017082ROD AM 010 KM 29                                                            ZONA RURAL                    MANAUS                                  AM69048660006136210300    0
00017160QNN 22 CONJ. G CASA 37                                                      CEILANDIA SUL                 BRASILIA                                DF72000000006103770859    1
00017162SAIN PARQUE RURAL FINAL W3 NORTE                                            ASA NORTE                     BRASILIA                                DF70770901006103770859    0
00017240RUA ITAUBA 565                                          (RIVER PARK)        CAÇARI                        BOA VISTA                               RR6930761000956242731     1
00017241BR 174 KM 08                                                                DIST.INDUSTRIAL               BOA VISTA                               RR6930197095  6267125     0
00017242BR 174 KM 08                                                                DISTRITO INDUSTRIAL           BOA VISTA                               RR69301970009502241527    0
00017320SAIN PARQUE RURAL FINAL W3 NORTE                                            ASA NORTE                     BRASILIA                                DF70770901006104484001    1
00017322SAIN PARQUE RURAL FINAL W3 NORTE                                            ASA NORTE                     BRASILIA                                DF70770901006104484001    0
00017400SHCGN 712 BL L AP 401                                                       ASA NORTE                     BRASILIA                                DF70760712006102724937    1
00017402SAIN PARQUE RURAL FINAL W3 NORTE                                            ASA NORTE                     BRASILIA                                DF70770901006102724937    0
00017590AV PINHEIRO MACHADO                               5445  JARDIM MANGUEIRAS IIJARDIM MANGUEIRAS II          PORTO VELHO                             RO7890921000692222260     1
00017592BR 364 KM 5,5                                                               ZONA RURAL                    PORTO VELHO                             RO78900970006902225621    0
00017670R. PINHEIRO MACHADO                               2767                      SAO CRISTOVAO                 PORTO VELHO                             RO78902100006902211099    1
00017672BR 364 KM 5,5 CX P 406                                                      ZONA RURAL                    PORTO VELHO                             RO7890097000692220409     0
00017750R. ROMEU MAGALHAES                                167   MECEJANA            MECEJANA                      BOA VISTA                               RR6930414000956243652     1
00017752BR 174 KM 08                                                                DISTRITO INDUSTRIAL           BOA VISTA                               RR69301970009506238088    0
00017830QE 15 CONJ. F CASA 31                                                       GUARA II                      BRASILIA                                DF71050061006105670535    1
00017832BR 060 KM 09 ROD/BSB/ANAPOLIS                                               ZONA RURAL                    BRASILIA                                DF70359970006105670535    0
00017910RUA JORNALISTA EVANDRO BARROS 310 LUZIA,                                    ARACAJU                       SERGIPE                                 SE4904531000792311498     1
00018050AV. MAL DEOD. N 1160                              1160                      PLANALTINA                    BRASÍLIA                                DF7333061000613885024     1
00018052PQWB/W5 NORTE                                                               ASA NORTE                     BRASÍLIA                                DF70770900006134484655    0
00018130QE 24 CONJ. I C/19                                                          GUARA II                      BRASILIA                                DF70000000006105679286    1
00018132SAIN OARQUE RURAL FINAL W3 NORTE                                            ASA NORTE                     BSB                                     DF70770901006105679286    0
00018210RUA 20 SUL LT 10 AP                               203   AGUAS CLARAS        AGUAS CLARAS                  BRASÍLIA                                DF72030100006104356185    1
00018212PQEB FINAL DA W3 NORTE                                                      ASA NORTE                     BRASILIA                                DF70770901006104356185    0
00018300QND 25 BL C APTO 309                                                        TAG NORTE                     BRASILIA                                DF72120250006105611772    1
00018480RUA JOSÉ PIMENTEL DE LIMA                         48                        CENTENÁRIO                    CAMPINA GRANDE                          PB58107720008303221173    1
00018482CNPA                                                                        CAMPINA GRANDE                CAMPINA GRANDE                          PB58107720008303221173    0
00018560R. 04 Q. 4 LOTE 96                                                          JARDIM DAS MANGUEIRA          PORTO  VELHO                            RO78908790006902143555    1
00018562BR 364 KM 5,5                                                               ZONA RURAL                    PORTO VELHO                             RO78900970006902143555    0
00018640RUA MANOEL BARBOSA DE ARAUJO                      230   CASA                31 DE MARÇO                   BOA VISTA                               RR69305330009506237815    1
00018641BR 179 KM 08 DISTRITO INDUSTRIAL                                            DISTRITO                      BOA VISTA                               RR69301970095 6267125     0
00018642BR 174 KM 8 DISTRITO INDUSTRIAL                                             DISTRITO INDUSTRIAL           BOA VISTA                               RR69301970009506237815    0
00018720ROD BR 020 KM 18 ROD BRASILIA/FORTALEZA           020   CAIXA POSTAL 08223  PLANALTINA                    PLANALTINA                              DF7330197000612481181     1
00018722BR - 020 KM 18 RODOVIA BSB/FORTALEZ                                         PLANALTINA                    PLANALTINA                              DF7330197000613889866     0
00018800NUCLEO RURAL L. OESTE CH.614 R.3                                            SOBRADINHO                    BRASILIA                                DF71010101006104781605    1
00018802PEQB FINAL W 3 NORTE                                                        ASA NORTE                     BRASILIA                                DF70770900006104781605    0
00018990QD. 02 MR 11 CASA 13                                                        SETOR NORTE                   PLANALTINA                              DF73750000006106372652    1
00018992SAIN PARQUE RURAL                                                           ASA NORTE                     BRASILIA                                DF99999999006106372652    0
00019020QE 13 CONJ E CASA 48                                                        GUARA II                      BRASILIA                                DF70050050006103891171    1
00019022BR - 020 KM 18 ROD. BSB/FORTALEZA                                           PLANALTINA                    BRASILIA                                DF73301970006103891171    0
00019100QNP 10 CONJ. D CASA                               28    P SUL               CEILANDIA                     BRASILIA                                DF72231104006103767774    1
00019101PARQUE ESTAÇAO BIOLOGICA FINAL W5                                           ASA NORTE                     BRASÍLIA                                DF70770900061 4484634     0
00019102PQEB FINAL DA W3 NORTE                                                      ASA NORTE                     BRASILIA                                DF70770901006103767774    0
00019290QNP 28 CONJ P CASA 28                                                       SETOR P SUL                   BRASILIA                                DF72235280006103772897    1
00019292SAIN PARQUE RURAL                                                           ASA NORTE                     BRASILIA                                DF70700999006103772897    0
00019370QD 31 CASA 28                                                               ETAPA B                       VALPARAISO                              GO72870000006106291869    1
00019372SAIN PARQUE RURAL                                                           ASA NORTE                     BRASILIA                                DF70901000006106291869    0
00019450QD 135 LOTE 32                                                              JARDIM CEU AZUL               VALPARAISO                              GO72870000006106241656    1
00019452ROD. BR 060 KM 09                                                           PONTE ALTA                    BRASILIA                                DF7035997000613859009     0
00019530RUA XXIII QD. J/1 CASA 84                                                   CONJUNTO CAMBARA              BOA VISTA                               RR69311490009506261693    1
00019532BR 174 KM 08 S/N                                                            DISTRITO INDUSTRIAL           BOA VISTA                               RR69301970009506261693    0
00019610R. 2 Q/L, CASA 317 CONJ. R.MARACANA                                         PQ LARANJEIRAS                MANAUS                                  AM69058080009206542141    1
00019612ROD. AM 10 KM 29                                                            ZONA RURAL                    MANAUS                                  AM69048660009206542141    0
00019700R.DR.ZAMENHOF                                     978   CASA                CARANÃ                        BOA VISTA                               RR69313130009506271049    1
00019701BR 174 KM 08                                                                DISTRITO INDUSTRIAL           BOA VISTA                               RR69301970095 6267125     0
00019880QI 23 LOTE 2/6 BL. E AP 420                             GUARA II            GUARA II                      BRASÍLIA                                DF71060230006135673900    1
00019882SAIN PARQUE RURAL                                                           ASA NORTE                     BRASILIA                                DF70770900006105673900    0
00019960R. RISO DO PRADO                                                            PRICUMA                       BOA VISTA                               RR69300000009506265355    1
00019962BR 174 KM 08                                                                DISTRITO INDUSTRIAL           BOA VISTA                               RR69301970009506265355    0
00020030RUA ODILARDO SILVA, 3354                                                    TREM                          MACAPA                                  AP68902280009602411480    1
00020032RODOVIA JK KM 05                                                            MARCO ZERO                    MACAPA                                  AP68902280009602411480    0
00020110RUA GOIAS                                         264                       ESTADOS                       BOA VISTA                               RR6930524000956242844     1
00020112BR 174 KM 08                                                                DISTRITO INDUSTRIAL           BOA VISTA                               RR69301970009506230095    0
00020200RUA HIDELMAR MAFA                                 500                       LIBERDADE                     MAZAGÃO                                 AP68940000006104484001    1
00020202RODOVIA JK KM 05                                                            ZERAO                         AMAPÁ                                   AP68902280006104484001    0
00020380CONJ. TUAIANAB                                    301   FLORES              FLORES                        MANAUS                                  AM69043000009236517855    1
00020382RODOVIA AM - 10 KM 29                                                       ZONA RURAL                    MANAUS                                  AM69048660009206229212    0
00020460QNL 17 BL B AP 313                                                          L NORTE                       BRASILIA                                DF70150160006103728530    1
00020462SAIN PARQUE RURAL                                                           ASA NORTE                     BRASILIA                                DF70700000006103728530    0
00020540RODOVIA BR 262 KM 04                                                        VILA POPULAR                  CAMPO GRANDE                            MS79002970006703629662    1
00020542RODOVIA BR 262 KM 04                                                        VILA POPULAR                  CAMPO GRANDE                            MS79002970006703629662    0
00020620SQS 205 BL D AP 101                                                         ASA SUL                       BRASILIA                                DF70235040006102444254    1
00020622SAIN PARQUE RURAL                                                           ASA NORTE                     BRASILIA                                DF70770900006102444254    0
00020700QD 08 CONJ E CASA 57                                                        SOBRADINHO                    BRASILIA                                DF73005080006105918275    1
00020702SAIN PARQUE RURAL                                                           0                             BRASILIA                                DF10100000006105918275    0
000208901 HI RUA 27 CASA 32                               32                        NOVO GAMA                     NOVO GAMA                               GO7286017700616285282     1
00020891BR 060 KM 09 FAZ.TAMANDUA-CX.POSTAL 218                                     GAMA                          BRASÍLIA                                DF70359970061 3859015     0
00020892BR 060 BRASILIA/ANAPOLIS, KM 9                                              GAMA                          BRASILIA                                DF70359970006106284587    0
00020970CONDOMINIO ITIQUIRA Q 1 CASA 27                                             PLANALTINA                    BRASILIA                                DF01000000006103881549    1
00020972SAIN PARQUE RURAL                                                           ASA NORTE                     BRASILIA                                DF70770900006103881549    0
00021000SMPW QD. 4 CJ. 5 CH. 111/1                              ARNIQUEIRA          ARNIQUEIRA                    BRASÍLIA                                DF7170799000613562246     1
00021002RODOVIA BR 060 KM 09                                                        TAMANDUA                      BRASILIA                                DF70359970006104484001    0
00021190RUA CARLOS PEREIRA DE MELO 421 AP 04                    ED FAROL RES SUL    FAROLANDIA                    ARACAJU                                 SE4903015079  2481282     0
00021192AV BEIRA MAR                                      3250  CAIXA POSTAL 44     PRAIA 13 DE JULHO             ARACAJU                                 SE4902504079  2261341     1
00021270QR. 208 CONJ.I CASA 36                                                      SANTA MARIA                   SANTA MARIA                             DF72401118006103934343    1
00021272RODOVIA BR 060                                                              PONTE ALTA                    BRASILIA                                DF70359970006103934343    0
00021350Q11 G 04                                          07                        PLANALTINA                    BRASÍLIA                                DF73301970006133883938    1
00021352CPAC                                                                        PLANALTINA                    BRASÍLIA                                DF73301970006133889801    0
00021430AVENIDA HENRIQUE GALUCIO                          954   MACAPA              CENTRO                        MACAPÁ                                  AP68902280009691182513    1
00021432RODOVIA JK, KM 05                                       MACAPA              UNIVERSIDADE                  MACAPÁ                                  AP68902280009602411551    0
00021510RUA 050 CASA 200                                        VILA NOVA           SÃO SEBASTIÃO                 BRASILIA                                DF73301970006103354828    1
00021512BR 020 KM 18 (BRASILIA/FORTALEZA)                                           PLANALTINA                    BRASILIA                                DF7330197000613889898     0
00021600PQEB FINAL W3 NORTE - CENARGEN                                              ASA NORTE                     BRASILIA                                DF70770900006103762694    1
00021602PQEB FINAL W3 NORTE - CENARGEN                                              ASA NORTE                     BRASILIA                                DF70770900006103762694    0
00021780BR 364, KM 5,5                                                              ZONA RURAL                    PORTO VELHO                             RO78900970006902223080    1
00021860Q. 55/56 LT. 15/17 BLOCO 01 APT                   229   ST. CENTRAL         ST. CENTRAL                   BRASÍLIA                                DF72405550006133859006    1
00021862BR 060, KM 09 ROD. BSB/ANAP.                                                PONTE ALTA                    BRASILIA                                DF70359970006105563379    0
00021940RUA NESTOR BARBOSA                                114                       PARQUELANDIA                  FORTALEZA                               CE6045561000613855184     1
00021941RUA DONA SARA MESQUITA                            2270                      PICI                          FORTALEZA                               CE72359970061 33991956    0
00021942BR 060 , KM 09 ROD. BSB/ANAP.                                               PONTE ALTA                    BRASILIA                                DF70359970006105566493    0
00022080RODOVIA JK, KM 05                                                           ZERAO                         MACAPA                                  AP68902280009602273160    1
00022082RODOVIA JK, KM 05                                                           ZERAO                         MACAPA                                  AP68902280009602273160    0
00022160ROD JK KM 5, CJ EMBRAPA                           63                        UNIVERSIDADE                  MACAPÁ                                  AP68903000009602412374    1
00022162EMBRAPA AMAPA ROD JK KM 5,                        S/N   CX POSTAL 10        UNIVERSIDADE                  AMAPÁ                                   AP68902280009602412374    0
00022240QSE 15 CASA                                       36    TAGUATINGA          TAGUATINGA                    BRASÍLIA                                DF72016150006133527180    1
00022242PQEB FINAL DA W3 NORTE                                                      ASA NORTE                     BRASILIA                                DF70770901006103522160    0
00022320QD. 13 CONJ. H CASA 07                                                      PARANOA                       PARANOA                                 DF71570130006103692932    1
00022322BR 020 KM 18 (BRASILIA/FORTALEZA)                                                                         PLANALTINA                              DF73301970006103692932    0
00022400RODOVIA JK KM 05                                                            UNIVERSIDADE                  MACAPA                                  AP68902280009602273300    1
00022402RODOVIA JK KM 05                                                            UNIVERSIDADE                  MACAPA                                  AP68902280009602273300    0
00022590QR. 304 CONJUNTO N CASA                           15    SANTA MARIA         SANTA MARIA                   BRASÍLIA                                DF7250451400613934798     1
00022592BR 060 KM 09                                                                TAMANDUA                      BRASILIA                                DF70359970006104484332    0
00022670SAIN PARQUE RURAL                                                           ASA NORTE                     BRASILIA                                DF70770901006103471431    1
00022672SAIN PARQUE RURAL                                                           ASA NORTE                     BRASILIA                                DF70770901006103471431    0
00022750EMBRAPA  C. N.P.H                                       GAMA                GAMA                          BRASÍLIA                                DF70359970006103859101    1
00022752ROD. BSB/ANAPOL. BR 060 KM 09                                               TAMANDUA                      BRASILIA                                DF70359970006103859101    0
00022830Q R 304                                           8                         SANTA MARIA                   BRASÍLIA                                DF70359970006133933363    1
00022832ROD. BR 060 KM 09 BSB/ANAPOL.                                               PONTE ALTA                    BRASÍLIA                                DF70359970006133859091    0
00022910QNN 22 CONJ. H CASA 52                                  CEILANDIA           CEILANDIA                     BRASÍLIA                                DF72220228006133772511    1
00022912SAIN PARQUE RURAL                                                           ASA NORTE                     BRASILIA                                DF70770901006103772511    0
00023050AV ANTONIO MOTA BASTOS                            292                       FAZENDINHA                    MACAPÁ                                  AP6891225096  81161891    1
00023051ROD JUSCELINO KUBITSCHECK KM 05                                             MARCO ZERO                    MACAPÁ                                  AP6893000096  2411551     0
00023130RUA EDSON CASTRO, 275                                                       LIBERDADE                     BOA VISTA                               AM69300000009506252535    1
00023132BR 174, KM 08                                                               DISTRITO INDUSTRIAL           BOA VISTA                               AM6930000000956267125     0
00023210QNM 22 CONJ. C CASA 01                                                      CEILANDIA                     BRASILIA                                DF72210220006103724098    1
00023300SHCGN 714 BL. V CASA 21                                                     ASA NORTE                     BRASILIA                                DF70760782006102733623    1
00023302SAIN PARQUE RURAL                                                           ASA NORTE                     BRASILIA                                DF70770901006102733623    0
00023480N INFORMANDO                                                                N INFORAMDO                   N INFORMANDO                            DF71000000006104484001    1
00023560AV.BRIG.EDUARDO GOMES                             2313  SAO FRANCISCO       SAO FRANCISCO                 BOA VISTA                               RR69301970009502243146    1
00023561BR 174 KM 08                                                                DIST.INDUSTRIAL               BOA VISTA                               RR6930197095  6267125     0
00023562BR 174 KM 08                                                                DISTRITO INDUSTRIAL           BOA VISTA                               RR69301970009502243146    0
00023640SAIN PARQUE RURAL                                                           ASA NORTE                     BRASILIA                                DF70770901006103767266    1
00023642SAIN PARQUE RURAL                                                           ASA NORTE                     BRASILIA                                DF70770901006103767266    0
00023720BR 060 KM 09                                                                TAMANDUA                      BRASILIA                                DF70359970006103859000    1
00023722BR 060 KM 09                                                                TAMANDUA                      BRASILIA                                DF70359970006103859009    0
00023800BR 060 KM 09                                                                TAMANDUA                      GAMA                                    DF70359970006103859000    1
00023802BR 060 KM 09                                                                TAMANDUA                      GAMA                                    DF70359970006103859000    0
00023990QE 02 BL F AP 309                                                           GUARA I                       GUARA I                                 DF71010061006105679454    1
00023992PQEB FINAL DA AV W3 NORTE ED EMBRAPA SED          SÑ                        ASA NORTE                     BRASILIA                                DF70770901006105679454    0
00024020RUA JESUS CRUZ, 400                                                         LIBERDADE                     BOA VISTA                               RR69309300009506251977    1
00024022BR 174, KM 08                                                               DISTRITO INDUSTRIAL           BOA VISTA                               RR69301970009506251977    0
00024100BR 060 KM 09                                                                TAMANDUA                      BRASILIA                                DF70359970006206163922    1
00024102BR 060 KM 09                                                                TAMANDUA                      BRASILIA                                DF70359970006206163922    0
00024290RUA MANOEL BARBOSA DE ARAUJO                      230   CASA                31 DE MARCO                   BOA VISTA                               RR6930533095  06237815    1
00024292BR 174, KM 08                                                               DISTRITO INDUSTRIAL           BOA VISTA                               RR6930197095  6267125     0
00024370RUA EDMUNDO PEREIRA DE FARIAS                                               CATOLE                        CAMPINA GRANDE                          PB58105090008303312686    1
00024372RUA OSVALDO CRUZ, 1143                                                      CENTENARIO                    CAMPINA GRANDE                          PB58107720008303312686    0
00024450N INFORMADO                                                                 N INFORMADO                   N INFORMADO                             DF72000000006206372004    1
00024452BRASILIA                                                                    BRASILIA                      BRASILIA                                DF72000000006206372004    0
00024530Q.03 CASA 34 A                                          VILA VICENTINA      PLANALTINA                    BRASILIA                                DF7333300000613883950     1
00024532BR 020 KM L8                                                                PLANALTINA                    BRASILIA                                DF7000000000613889910     0
00024610BR O60 KM 09 AREA NOVA                                  CNPH                CNPH                          BRASÍLIA                                DF70359970006103859120    1
00024612CX POSTAL 0218                                                              CNPH                          BRASÍLIA                                DF70359970006103859120    0
00024700SAIN PARQUE RURAL                                                           ASA NORTE                     BRASILIA                                DF70770901006106372778    1
00024702SAIN PARQUE RURAL                                                           ASA NORTE                     BRASILIA                                DF70770901006106372778    0
00024880Q. 4 MR 10 CASA 36                                                          SETOR LESTE                   PLANALTINA                              GO73750000006199962863    1
00024960RUA ANAPOLIS                                      82    FORMOSA             FORMOSA                       FORMOSA                                 GO7380535500623889892     1
00024962BR 020 KM 18 (BRASILIA/FORTALEZA)                                                                         PLANALTINA                              DF73301970006109360672    0
00025000QR 310 CONJ 3 C 14                                                          SAMAMBAIA                     BRASÍLIA                                DF72325100006103575466    1
00025002CNPH HORTALICAS                                                             TAMANDUA                      BRASÍLIA                                DF70359970006133859007    0
00025180QR 210 CONJ. Q CASA 07                                  SANTA MARIA         SANTA MARIA SUL               BRASÍLIA                                DF72000000006133921334    1
00025182BR 060 KM 05 EMBRAPA HORTALICAS                         GAMA                FAZENDA TAMANDUA              BRASÍLIA                                DF70000000006103938352    0
00025260RUA NICARAGUA                                     291   CASA                CAVAME                        BOA VISTA                               RR6931110400956271518     1
00025261BR 174 KM 08                                            DIST.IND            DISTR.INDUSTRIAL              BOA VISTA                               RR6930197095  6267125     0
00025262BR 174 KM 08                                                                DISTRITO INDUSTRIAL           BOA VISTA                               RR69301970009506267125    0
00025340QSF 6 LT 206                                            FONE  CONT 356.0402 TAGUATINGA                    CEILÂNDIA                               DF7077090100613560402     1
00025421SCRN 714/15 BL, B LJ. 12                                                    ASA NORTE                     BRASILIA                                DF70760780006103473590    1
00025501PARQUE ESTACAO BIOLOGICA                                                    ASA NORTE                     BRASÍLIA                                DF70770901006103492829    1
00025690Q.01 MR 11 CASA 32                                      SETOR SUL           PLANALTINA                    BRASILIA                                DF7300000061  3889898     1
00025692BR 020 KM 18                                            ZONA RURAL          PLANALTINA                    BRASILIA                                DF73000000061 3889898     0
00025770QNO 01 CONJ. D CASA 34A                                 CEILANDIA           CEILANDIA                     BRASÍLIA                                DF72250104006103753489    1
00025772BR 020 KM 18 ROD. FORMOSA                                                   PLANALTINA                    BRASILIA                                DF70000000006103753489    0
00025850SCRN 706/7 BL. C EN.46 AP 302                                               ASA NORTE                     BRASILIA                                DF70740790006103496326    1
00025852SAIN PARQUE RURAL                                                           ASA NORTE                     BRASILIA                                DF70770901006103496326    0
00025930COLONIA AGRICOLA VICENTE PIRES CHAC 113           10    COLONIA             GUARA I                       BRASÍLIA                                DF72000000006133975224    1
00025932BR 020 KM 18                                                                PLANALTINA                    BRASILIA                                DF73301970006103812267    0
00026070AV. CENTRAL BL 48 APTO                            215   NOVO GAMA           NOVO GAMA                     BRASÍLIA                                DF7286000000616287759     1
00026072BR 060 KM 09- BSB/ANAPOLIS                                                  GAMA                          BRASÍLIA                                DF70359970006106288247    0
00026150QN 14C CONJ. 03 CASA 04                                                     RIACHO FUNDO II               BRASÍLIA                                DF70000000006103332718    1
00026152BR 060 KM 09 BSB/ANAPOLIS                                                   TAMANDUA                      BRASILIA                                DF70000000006103332718    0
00026230RUA SÃO MARCOS                                    814   CINTURÃO VERDE      CINTURÃO VERDE                BOA VISTA                               RR6931703400956267125     1
00026232BR 174, KM 08                                                               DISTRITO INDUSTRIAL           BOA VISTA                               RR69301970006104484001    0
00026310SAIN PARQUE RURAL                                                           ASA NORTE                     BRASILIA                                DF70770970006105679841    1
00026312SAIN PARQUE RURAL                                                           ASA NORTE                     BRASILIA                                DF70770970006105679841    0
00026400RUA DOS GUARARAPES                                1423  CASA                AEROPORTO                     BOA VISTA                               RR6931454800956273607     1
00026402BR 174, KM 08                                                               DISTRITO INDUSTRIAL           BOA VISTA                               RR6930197000956267125     0
00026580BR 060 KM 09                                                                PONTE ALTA                    BRASILIA                                DF70359970006103859090    1
00026582BR 060 KM 09                                                                PONTE ALTA                    BRASILIA                                DF70359970006103859090    0
00026660QR 116 CONJ. L CASA 02                                  SANTA MARIA         SANTA MARIA                   BRASÍLIA                                DF72500000006133952330    1
00026662BR 060 KM 09 ROD. BSB/ANAPOLIS                                              PONTE ALTA                    BRASILIA                                DF70359970006103945836    0
00026740SAIN PARQUE RURAL                                                           ASA NORTE                     BRASILIA                                DF70701970006103861305    1
00026742SAIN PARQUE RURAL                                                           ASA NORTE                     BRASILIA                                DF70701970006103861305    0
00026820SAIN PARQUE RURAL                                                           ASA NORTE                     BRASILIA                                DF70701970006103568101    1
00026822SAIN PARQUE RURAL                                                           ASA NORTE                     BRASILIA                                DF70701970006103568101    0
00026900NAO INFORMADO                                                               PLANALTINA                    PLANALTINA                              DF70000000006103891171    1
00026902BR 020 KM 18 ROD. BSB/FORT.                                                 PLANALTINA                    BRASILIA                                DF73301970006103891171    0
00027040RUA ANTONIO MOREIRA MORAES                        27    CASA                ALVORADA                      BOA VISTA                               RR69301970009599711174    1
00027042BR 174 KM 08                                                                DISTRITO INDUSTRIAL           BOA VISTA                               RR69301970009599711174    0
00027120QC VILA PARAISO 3 LOTE 23                                                   VILA PARAISO                  SANTO ANTÔNIO DE GOIÁS                  GO72900000006106261662    1
00027122BR 060 KM 09 ROD. BSB/ANAP.                                                 GAMA                          BRASÍLIA                                DF72359970006106261662    0
00027200QD. 102 CONJ. 10 CASA 15                                                    RECANTO DAS EMAS              BRASILIA                                DF70000000006103342293    1
00027202BR 060 KM 09 ROD. BSB/ANAPOL.                                               PONTE ALTA                    BRASILIA                                DF70359970006103342293    0
00027390AV. AMAZONAS                                            VILA FELIX PINTO    VILA FELIX PINTO              CANTÁ                                   RR69301970075 6267125     1
00027392BR 174 KM 08                                                                DISTRITO INDUSTRIAL           BOA VISTA                               RR69301970006104484001    0
00027470BR 060 KM 09 ROD. BSB/ANAPOL.                                               PONTE ALTA                    BRASILIA                                DF70359970006103862206    1
00027472BR 060 KM 09 ROD. BSB/ANAPOL.                                               PONTE ALTA                    BRASILIA                                DF70359970006103862206    0
00027550RUA ZECA SERRA                                    1457                      ZERAO                         MACAPÁ                                  AP68900000006102222222    1
00027551ROD.JUSCELINO KUBITSHECK KM 05                                              MACAPA                        MACAPÁ                                  AP6890300096  2411551     0
00027630BR 060 KM 09 ROD. BSB/ANAPOL.                                               PONTE ALTA                    BRASILIA                                DF70359970006106264554    1
00027632BR 060 KM 09 ROD. BSB/ANAPOL.                                               PONTE ALTA                    BRASILIA                                DF70359970006106264554    0
00027710RUA JOEL BARRADA,                                 471   BOM FUTURO          CAUAME                        BOA VISTA                               RR69314290009599761362    1
00027712BR 174, KM 08                                                               DISTRITO INDUSTRIAL           BOA VISTA                               RR69300000009506271669    0
00027800BR 060, KM 09 ROD. BSB/ANAPOL.                                              PONTE ALTA                    BRASILIA                                DF70000000006105000362    1
00027802BR 060, KM 09 ROD. BSB/ANAPOL.                                              PONTE ALTA                    BRASILIA                                DF70000000006105000362    0
00027980COND. MANSOES ENTRE LAGOS ETPA 2 CJ. A C          24    ENTRE LAGOS         ENTRE LAGOS                   BRASÍLIA                                DF7301700500614681937     1
00027982PRACA DOS TRES PODERES                                                      SENADO FEDERAL                BRASILIA                                DF72000000006103690538    0
00028010BR 020 KM 18 ROD.BRASILIA/FORTALEZA                                         PLANALTINA                    BRASILIA                                DF73301970006103897303    1
