000000001900201220/04/200000000000000000000                                                  02S
000000012404803504/02/200300000000000000000                                                  02S
000000012404803704/02/200300000000000000000                                                  02S
000000012404803804/02/200300000000000000000                                                  02S
000000012405648625/06/200300000000000000000                                                  02S
000000012405649925/06/200300000000000000000                                                  02S
000000012405650025/06/200300000000000000000                                                  02S
000000027200003010/09/200400000000000110500                                                  02E
000000032907484111/06/200400000000000012500                                                  02M
000000037002633321/11/200100000000000000000                                                  02S
000000037002633421/11/200100000000000000000                                                  02S
000000037002633521/11/200100000000000000000                                                  02S
000000037006456713/10/200300000000000000000                                                  02S
000000039600432123/06/200000000000000000000                                                  02S
000000099006657729/06/200400000000000000000                                                  02E
000000136800029516/05/200500000000000015000                                                  02S
000000136800038303/10/200500000000000048000                                                  02X
000000136805761207/07/200300000000000000000                                                  02S
000000136805761307/07/200300000000000000000                                                  02S
000000149003834517/07/200200000000000000000                                                  02S
000000149003834617/07/200200000000000000000                                                  02S
000000149004829107/02/200300000000000000000                                                  02S
000000149004829307/02/200300000000000000000                                                  02S
000000149005097827/03/200300000000000000000                                                  02S
000000149005097927/03/200300000000000000000                                                  02S
000000149005098027/03/200300000000000000000                                                  02S
000000156203193012/03/200200000000000000000                                                  02S
000000156203193112/03/200200000000000000000                                                  02S
000000156203193212/03/200200000000000000000                                                  02S
000000156203193312/03/200200000000000000000                                                  02S
000000156203193412/03/200200000000000000000                                                  02S
000000156203193512/03/200200000000000000000                                                  02S
000000156203193612/03/200200000000000000000                                                  02S
000000156203193712/03/200200000000000000000                                                  02S
000000156203193812/03/200200000000000000000                                                  02S
000000156203193912/03/200200000000000000000                                                  02S
000000156203194012/03/200200000000000000000                                                  02S
000000170804946826/02/200300000000000000000                                                  02S
000000172401874918/04/200100000000000000000                                                  02S
000000172401875018/04/200100000000000000000                                                  02S
000000172401875118/04/200100000000000000000                                                  02S
000000172401875218/04/200100000000000000000                                                  02S
000000172401875318/04/200100000000000000000                                                  02S
000000172401875418/04/200100000000000000000                                                  02S
000000172401875518/04/200100000000000000000                                                  02S
000000172402964117/01/200200000000000000000                                                  02S
000000176700000711/04/200500000000000024000DESACORDO COMERCIAL                               02S
000000176703196112/03/200200000000000000000                                                  02S
000000176705100030/06/200400000000000009000                                                  02S
000000176706077602/09/200400000000000000000DESACORDO COMERCIAL                               02S
000000176706077702/09/200400000000000000000DESACORDO COMERCIAL                               02S
000000181300050915/06/200500000000000045000                                                  02S
000000181304990614/03/200300000000000000000                                                  02S
000000181304990714/03/200300000000000000000                                                  02S
000000181304990814/03/200300000000000000000                                                  02S
000000181304990914/03/200300000000000000000                                                  02S
000000181304991014/03/200300000000000000000                                                  02S
000000181304991114/03/200300000000000000000                                                  02S
000000181304991214/03/200300000000000000000                                                  02S
000000181304991314/03/200300000000000000000                                                  02S
000000181304991414/03/200300000000000000000                                                  02S
000000181304991514/03/200300000000000000000                                                  02S
000000181304991614/03/200300000000000000000                                                  02S
000000181304991714/03/200300000000000000000                                                  02S
000000181304991814/03/200300000000000000000                                                  02S
000000181304991914/03/200300000000000000000                                                  02S
000000181304992014/03/200300000000000000000                                                  02S
000000186401194114/12/200000000000000000000                                                  02S
000000201100613416/08/200000000000000000000                                                  02S
000000201100773621/09/200000000000000000000                                                  02S
000000201100773721/09/200000000000000000000                                                  02S
000000201100860309/10/200000000000000000000                                                  02S
000000201100861809/10/200000000000000000000                                                  02S
000000201100862009/10/200000000000000000000                                                  02S
000000211902843621/12/200100000000000000000                                                  02S
000000211907086213/01/200400000000000000000                                                  02S
000000221600001504/11/200400000000000006400                                                  02M
000000221607493120/09/200400000000000021000OS 17823                                          02S
000000227500486412/07/200000000000000000000                                                  02S
000000252600784126/08/200500000000000000000                                                  02R
000000252600784226/08/200500000000000000000                                                  02R
000000252600784326/08/200500000000000000000                                                  02R
000000252600784426/08/200500000000000000000                                                  02R
000000252600784526/08/200500000000000000000                                                  02R
000000252600784626/08/200500000000000000000                                                  02R
000000252600784726/08/200500000000000000000                                                  02R
000000252600784826/08/200500000000000000000                                                  02R
000000252600784926/08/200500000000000000000                                                  02R
000000252600785026/08/200500000000000000000                                                  02R
000000252600785126/08/200500000000000000000                                                  02R
000000252600785226/08/200500000000000000000                                                  02R
000000252600785326/08/200500000000000000000                                                  02R
000000252600785426/08/200500000000000000000                                                  02R
000000252600785526/08/200500000000000000000                                                  02R
000000252600785626/08/200500000000000000000                                                  02R
000000252600785726/08/200500000000000000000                                                  02R
000000252600785826/08/200500000000000000000                                                  02R
000000252600785926/08/200500000000000000000                                                  02R
000000252600786026/08/200500000000000000000                                                  02R
000000258500617716/08/200000000000000000000                                                  02S
000000260700866309/10/200000000000000000000                                                  02S
000000274702479111/10/200100000000000000000                                                  02S
000000277100314223/05/200000000000000000000                                                  02S
000000280101780528/03/200100000000000000000                                                  02S
000000280101781228/03/200100000000000000000                                                  02S
000000280101781328/03/200100000000000000000                                                  02S
000000280101781428/03/200100000000000000000                                                  02S
000000280101892318/04/200100000000000000000                                                  02S
000000280101893518/04/200100000000000000000                                                  02S
000000280101893618/04/200100000000000000000                                                  02S
000000280101930902/05/200100000000000000000                                                  02S
000000280101931502/05/200100000000000000000                                                  02S
000000280101931602/05/200100000000000000000                                                  02S
000000280101931702/05/200100000000000000000                                                  02S
000000280101931902/05/200100000000000000000                                                  02S
000000280101932002/05/200100000000000000000                                                  02S
000000280101972410/05/200100000000000000000                                                  02S
000000280101972510/05/200100000000000000000                                                  02S
000000280101972610/05/200100000000000000000                                                  02S
000000280101972710/05/200100000000000000000                                                  02S
000000280101972810/05/200100000000000000000                                                  02S
000000280101973710/05/200100000000000000000                                                  02S
000000280101973810/05/200100000000000000000                                                  02S
000000280102928410/01/200200000000000000000                                                  02S
000000280104569910/12/200200000000000000000                                                  02S
000000296801209214/12/200000000000000000000                                                  02S
000000303400322026/05/200000000000000000000                                                  02S
000000303400400108/08/200000000000000000000                                                  02S
000000307703613517/06/200200000000000000000                                                  02S
000000311500551504/08/200000000000000000000                                                  02S
000000341700014427/05/200500000000000000000                                                  02R
000000341701423812/01/200100000000000000000                                                  02S
000000341701423912/01/200100000000000000000                                                  02S
000000341701424012/01/200100000000000000000                                                  02S
000000341702254103/08/200100000000000000000                                                  02S
000000341703507813/05/200200000000000000000                                                  02S
000000341703984009/08/200200000000000000000                                                  02S
000000344100012303/10/200500000000000000000                                                  02X
000000344100012403/10/200500000000000000000                                                  02X
000000344100012503/10/200500000000000000000                                                  02X
000000344100024916/11/200500000000000000000DECLARA플O                                        02X
000000344104525022/11/200200000000000000000                                                  02S
000000344104577612/05/200400000000000000000DESACORDO COMERCIAL                               02S
000000344104577712/05/200400000000000000000DESACORDO COMERCIAL                               02S
000000344104577812/05/200400000000000000000DESACORDO COMERCIAL                               02S
000000344104577912/05/200400000000000000000DESACORDO COMERCIAL                               02S
000000355703559924/05/200200000000000000000                                                  02S
000000387500250020/04/200000000000000000000                                                  02S
000000387500408506/11/200100000000000000000                                                  02S
000000410300008109/09/200500000000000000000                                                  02S
000000410300008209/09/200500000000000000000                                                  02S
000000463400025007/03/200500000000000007500                                                  02M
000000470702986017/01/200200000000000000000                                                  02S
000000477400000301/04/200500000000000025000                                                  02S
000000477400000521/03/200500000000000000000                                                  02E
000000477400001001/04/200500000000000015000                                                  02S
000000477400001403/05/200500000000000020000DESACORDO COMERCIAL                               02S
000000505300012729/09/200400000000000014500                                                  02S
000000505303562524/05/200200000000000000000                                                  02S
000000505303562624/05/200200000000000000000                                                  02S
000000505303562724/05/200200000000000000000                                                  02S
000000505303562824/05/200200000000000000000                                                  02S
000000505303562924/05/200200000000000000000                                                  02S
000000505303563024/05/200200000000000000000                                                  02S
000000505303563124/05/200200000000000000000                                                  02S
000000505303563224/05/200200000000000000000                                                  02S
000000505303563324/05/200200000000000000000                                                  02S
000000505303563424/05/200200000000000000000                                                  02S
000000505303563524/05/200200000000000000000                                                  02S
000000505303563624/05/200200000000000000000                                                  02S
000000505303563724/05/200200000000000000000                                                  02S
000000505303563824/05/200200000000000000000                                                  02S
000000505303563924/05/200200000000000000000                                                  02S
000000505303564024/05/200200000000000000000                                                  02S
000000505304318407/10/200200000000000000000                                                  02S
000000505305382814/07/200300000000000000000                                                  02S
000000505305605312/06/200300000000000000000                                                  02S
000000505305605412/06/200300000000000000000                                                  02S
000000505305605512/06/200300000000000000000                                                  02S
000000505305605612/06/200300000000000000000                                                  02S
000000505305605712/06/200300000000000000000                                                  02S
000000505305605812/06/200300000000000000000                                                  02S
000000505305605912/06/200300000000000000000                                                  02S
000000505305606012/06/200300000000000000000                                                  02S
000000505307500206/05/200400000000000007500                                                  02M
000000513400560604/08/200000000000000000000                                                  02S
000000513400561404/08/200000000000000000000                                                  02S
000000513400561604/08/200000000000000000000                                                  02S
000000513400561804/08/200000000000000000000                                                  02S
000000513400561904/08/200000000000000000000                                                  02S
000000513400562004/08/200000000000000000000                                                  02S
000000528200296204/05/200000000000000000000                                                  02S
000000528200297004/05/200000000000000000000                                                  02S
000000528200297204/05/200000000000000000000                                                  02S
000000528200297304/05/200000000000000000000                                                  02S
000000528200297404/05/200000000000000000000                                                  02S
000000528200297504/05/200000000000000000000                                                  02S
000000528200297604/05/200000000000000000000                                                  02S
000000528200297704/05/200000000000000000000                                                  02S
000000528200297804/05/200000000000000000000                                                  02S
000000528200297904/05/200000000000000000000                                                  02S
000000528200298004/05/200000000000000000000                                                  02S
000000528206727428/05/200400000000000000000DESACORDO COMERCIAL                               02E
000000528206727528/05/200400000000000000000DESACORDO COMERCIAL                               02E
000000533905674425/06/200300000000000000000                                                  02S
000000533906482813/10/200300000000000000000                                                  02S
000000533907009210/12/200300000000000000000                                                  02S
000000533907009410/12/200300000000000000000                                                  02S
000000552501449412/01/200100000000000000000                                                  02S
000000552501449512/01/200100000000000000000                                                  02S
000000552501449612/01/200100000000000000000                                                  02S
000000552501449712/01/200100000000000000000                                                  02S
000000552501449812/01/200100000000000000000                                                  02S
000000552501449912/01/200100000000000000000                                                  02S
000000552501450012/01/200100000000000000000                                                  02S
000000570301325303/01/200100000000000000000                                                  02S
000000570301325403/01/200100000000000000000                                                  02S
000000570301454912/01/200100000000000000000                                                  02S
000000570301455612/01/200100000000000000000                                                  02S
000000582702671009/06/200500000000000000000                                                  02E
000000582702671109/06/200500000000000000000                                                  02E
000000582702671209/06/200500000000000000000                                                  02E
000000582702671309/06/200500000000000000000                                                  02E
000000582702671409/06/200500000000000000000                                                  02E
000000582702671509/06/200500000000000000000                                                  02E
000000582702671609/06/200500000000000000000                                                  02E
000000582702671709/06/200500000000000000000                                                  02E
000000582702671809/06/200500000000000000000                                                  02E
000000582702671909/06/200500000000000000000                                                  02E
000000582702672009/06/200500000000000000000                                                  02E
000000590801944202/05/200100000000000000000                                                  02S
000000590801944702/05/200100000000000000000                                                  02S
000000590801944902/05/200100000000000000000                                                  02S
000000590801945802/05/200100000000000000000                                                  02S
000000590801945902/05/200100000000000000000                                                  02S
000000592400903909/10/200000000000000000000                                                  02S
000000627001987510/05/200100000000000000000                                                  02S
000000627003317403/04/200200000000000000000                                                  02S
000000635100007221/12/200400000000000055000                                                  02S
000000641601042314/11/200000000000000000000                                                  02S
000000641601042414/11/200000000000000000000                                                  02S
000000641601042514/11/200000000000000000000                                                  02S
000000641601042614/11/200000000000000000000                                                  02S
000000641601042714/11/200000000000000000000                                                  02S
000000641601042814/11/200000000000000000000                                                  02S
000000641601042914/11/200000000000000000000                                                  02S
000000641601043014/11/200000000000000000000                                                  02S
000000641601043114/11/200000000000000000000                                                  02S
000000641601043214/11/200000000000000000000                                                  02S
000000641601043314/11/200000000000000000000                                                  02S
000000641601043414/11/200000000000000000000                                                  02S
000000641601043514/11/200000000000000000000                                                  02S
000000641601043614/11/200000000000000000000                                                  02S
000000641601043714/11/200000000000000000000                                                  02S
000000641601043814/11/200000000000000000000                                                  02S
000000641601043914/11/200000000000000000000                                                  02S
000000641601044014/11/200000000000000000000                                                  02S
000000649100000307/03/200500000000000004000                                                  02M
000000651302054217/05/200100000000000000000                                                  02S
000000651302054317/05/200100000000000000000                                                  02S
000000651302054417/05/200100000000000000000                                                  02S
000000653004000709/08/200200000000000000000                                                  02S
000000653005063513/07/200400000000000006000                                                  02M
000000660200006413/07/200400000000000004200                                                  02M
000000669600001710/08/200500000000000038000DESACORDO COMERCIAL                               02S
000000671800002103/08/200500000000000150000DESACORDO COMERCIAL                               02S
000000683100033628/09/200500000000000018161                                                  02M
000000718802734805/12/200100000000000000000                                                  02S
000000718802735005/12/200100000000000000000                                                  02S
000000718803215312/03/200200000000000000000                                                  02S
000000719607325206/02/200400000000000000000                                                  02S
000000725004070518/09/200300000000000000000                                                  02S
000000739002562219/10/200100000000000000000                                                  02S
000000739002562319/10/200100000000000000000                                                  02S
000000767602397513/09/200100000000000000000                                                  02S
000000767602397913/09/200100000000000000000                                                  02S
000000767603324503/04/200200000000000000000                                                  02S
000000768400002303/11/200500000000000120000                                                  02S
000000768400002403/11/200500000000000030000                                                  02S
000000784605621523/04/200400000000000000000MOTIVO DE EXTRAVIO.                               02E
000000784605621623/04/200400000000000000000MOTIVO DE EXTRAVIO.                               02E
000000784605621723/04/200400000000000000000MOTIVO DE EXTRAVIO.                               02E
000000784605621823/04/200400000000000000000MOTIVO DE EXTRAVIO.                               02E
000000784605621923/04/200400000000000000000MOTIVO DE EXTRAVIO.                               02E
000000784605622023/04/200400000000000000000MOTIVO DE EXTRAVIO.                               02E
000000794300006927/08/200400000000000000000                                                  02S
000000794300019910/03/200500000000000000000                                                  01E
000000794300030115/09/200500000000000030000EXTRAVIO                                          02E
000000800105689925/06/200300000000000000000                                                  02S
000000874504717109/01/200300000000000000000                                                  02S
000000888506414306/01/200500000000000000000DESACORDO COMERCIAL.                              02S
000000888506414406/01/200500000000000000000DESACORDO COMERCIAL.                              02S
000000888506414506/01/200500000000000000000DESACORDO COMERCIAL.                              02S
000000888506414606/01/200500000000000000000DESACORDO COMERCIAL.                              02S
000000888506414706/01/200500000000000000000DESACORDO COMERCIAL.                              02S
000000918003706219/06/200200000000000000000                                                  02S
000000918003706719/06/200200000000000000000                                                  02S
000000918003707719/06/200200000000000000000                                                  02S
000000918003707819/06/200200000000000000000                                                  02S
000000918003902817/07/200200000000000000000                                                  02S
000000918003902917/07/200200000000000000000                                                  02S
000000958000016429/03/200500000000000000000                                                  02S
000000958000016529/03/200500000000000000000                                                  02S
000000996204224126/02/200300000000000000000                                                  02S
000000996204224226/02/200300000000000000000                                                  02S
000000996204224326/02/200300000000000000000                                                  02S
000000996204224426/02/200300000000000000000                                                  02S
000000996204224526/02/200300000000000000000                                                  02S
000000996204224626/02/200300000000000000000                                                  02S
000000996204224726/02/200300000000000000000                                                  02S
000000996204224826/02/200300000000000000000                                                  02S
000000996204224926/02/200300000000000000000                                                  02S
000000996204225026/02/200300000000000000000                                                  02S
000000996204225126/02/200300000000000000000                                                  02S
000000996204225226/02/200300000000000000000                                                  02S
000000996204225326/02/200300000000000000000                                                  02S
000000996204225426/02/200300000000000000000                                                  02S
000000996204225526/02/200300000000000000000                                                  02S
000000996204225626/02/200300000000000000000                                                  02S
000000996204225726/02/200300000000000000000                                                  02S
000000996204225826/02/200300000000000000000                                                  02S
000000996204225926/02/200300000000000000000                                                  02S
000000996204226026/02/200300000000000000000                                                  02S
000001000604466106/06/200300000000000000000                                                  02S
000001000604466206/06/200300000000000000000                                                  02S
000001000604466306/06/200300000000000000000                                                  02S
000001072307204308/06/200400000000000048000                                                  02S
000001120700007613/05/200500000000000000000                                                  02S
000001200900007103/11/200400000000000035000                                                  02M
000001224600012420/08/200400000000000250000CONFORME OS17297                                  02E
000001224600027204/11/200400000000000001900                                                  02M
000001247500001518/10/200400000000000000000DESACORDO COMERCIAL                               02S
000001247500001618/10/200400000000000000000DESACORDO COMERCIAL                               02S
000001247500001718/10/200400000000000000000DESACORDO COMERCIAL                               02S
000001247500001818/10/200400000000000000000DESACORDO COMERCIAL                               02S
000001288206524308/06/200400000000000150000DESACORDO COMERCIAL                               02S
000001300500003104/11/200500000000000000000CFE DECLARA플O DO ASSOCIADO                       02S
000001300500003204/11/200500000000000000000CFE DECLARA플O DO ASSOCIADO                       02S
000001300500003304/11/200500000000000000000CFE DECLARA플O DO ASSOCIADO                       02S
000001300500003404/11/200500000000000000000CFE DECLARA플O DO ASSOCIADO                       02S
000001300500003504/11/200500000000000000000CFE DECLARA플O DO ASSOCIADO                       02S
000001300500004207/11/200500000000000000000CONFORME PEDIDO DO CLIENTE                        02S
000001300500004807/11/200500000000000000000CONFORME PEDIDO DO CLIENTE                        02S
000001300500004907/11/200500000000000000000CONFORME PEDIDO DO CLIENTE                        02S
000001300500005107/11/200500000000000000000CONFORME PEDIDO DO CLIENTE                        02S
000001300500005304/11/200500000000000000000CFE DECLARA플O DO ASSOCIADO                       02S
000001300500005404/11/200500000000000000000CFE DECLARA플O DO ASSOCIADO                       02S
000001300500005504/11/200500000000000000000CFE DECLARA플O DO ASSOCIADO                       02S
000001314505645412/06/200300000000000000000                                                  02S
000001344706161802/09/200300000000000000000                                                  02S
000001344706161902/09/200300000000000000000                                                  02S
000001344706162002/09/200300000000000000000                                                  02S
000001374900013810/08/200500000000000002000                                                  02M
000001380306946329/07/200400000000000000000                                                  02S
000001380306946429/07/200400000000000000000                                                  02S
000001380306947826/04/200400000000000000000                                                  02S
000001495807274527/07/200400000000000000000OS 16802                                          02E
000001495807274927/07/200400000000000000000OS 16802                                          02E
000001534200001215/09/200400000000000020000                                                  02S
000001629200001627/09/200400000000000010000DESACORDO COMERCIAL                               02S
000001629200002808/10/200400000000000000000                                                  02S
000001629200002908/10/200400000000000000000                                                  02S
000001666700003522/11/200400000000000000000                                                  02S
000001666700003704/01/200500000000000054000DESACORDO COMERCIAL                               02S
000001666700004804/01/200500000000000015500DESACORDO COMERCIAL                               02S
000001666700014906/04/200500000000000000000                                                  02S
000001666700015006/04/200500000000000000000                                                  02S
000001732900005524/01/200500000000000000000ROUBO                                             02R
000001927500001419/09/200500000000000000000                                                  02S
000001927500001519/09/200500000000000000000                                                  02S
000001927500002910/11/200500000000000000000                                                  02S
000001927500003010/11/200500000000000000000                                                  02S
