00000001240433490228/04/200400000000000098000                                                  1 
00000001240480230228/04/200400000000000100000                                                  1 
00000001240480230218/04/200500000000000100000                                                  1 
00000001240480260228/04/200400000000000070000                                                  1 
00000001240564840228/04/200400000000000095000                                                  1 
00000001240564870228/04/200400000000000100000                                                  1 
00000001240564890228/04/200400000000000083000                                                  1 
00000001240564900228/04/200400000000000098000                                                  1 
00000001240564910228/04/200400000000000098000                                                  1 
00000001240564930228/04/200400000000000068000                                                  1 
00000001240564960228/04/200400000000000078000                                                  1 
00000001240564980228/04/200400000000000095000                                                  1 
00000001240574890228/04/200400000000000073300                                                  1 
00000001240574980228/04/200400000000000122150                                                  1 
00000001240575000228/04/200400000000000090000                                                  1 
00000001240575000217/06/200400000000000090000                                                  1 
00000001240575000420/04/200400000000000090000                                                  12
00000001240611880216/02/200500000000000060275                                                  1 
00000001240611880419/01/200500000000000060275                                                  12
00000005230646090430/04/200400000000000019366                                                  12
00000005230646100401/06/200400000000000019366                                                  12
00000005230646110430/06/200400000000000019366                                                  12
00000005230646120430/07/200400000000000019366                                                  12
00000005230646130431/08/200400000000000019366                                                  12
00000005230646270415/04/200400000000000037275                                                  12
00000005230646290421/05/200400000000000037275                                                  12
00000005230646340421/05/200400000000000018266                                                  12
00000005230646350423/06/200400000000000018266                                                  12
00000005230646360423/07/200400000000000018266                                                  12
00000005230646370423/08/200400000000000018266                                                  12
00000005230646380423/09/200400000000000018266                                                  12
00000007100000260221/07/200500000000000012000                                                  1 
00000007100000260417/06/200500000000000012000                                                  12
00000007100000300416/06/200500000000000003265                                                  12
00000007100000460221/07/200500000000000007627                                                  1 
00000007100000460208/08/200500000000000007627                                                  1 
00000007100000460215/08/200500000000000007627                                                  1 
00000007100000460415/06/200500000000000007627                                                  12
00000007100000510221/07/200500000000000012500                                                  1 
00000007100000510215/08/200500000000000012500                                                  1 
00000007100000510423/06/200500000000000012500                                                  12
00000007100000580221/07/200500000000000012000                                                  1 
00000007100000580421/06/200500000000000012000                                                  12
00000007100000590221/07/200500000000000008403                                                  1 
00000007100000590421/06/200500000000000008403                                                  12
00000008250000240219/10/200500000000000028000CONFORME DECLARA플O ENTREGUE                      1 
00000008250000240420/05/200500000000000028000                                                  12
00000008250000250218/10/200500000000000001000                                                  1 
00000008250000250429/04/200500000000000001000                                                  12
00000008250000320218/10/200500000000000047588                                                  1 
00000008250000320428/06/200500000000000047588                                                  12
00000012100000100414/10/200500000000000032800                                                  12
00000012100000150414/11/200500000000000036000                                                  12
00000012100000180419/10/200500000000000019400                                                  12
00000012100000190424/10/200500000000000019400                                                  12
00000012100000310407/10/200500000000000004173                                                  12
00000012100000370428/09/200500000000000027400                                                  12
00000012100000380411/10/200500000000000026400                                                  12
00000012100000390411/11/200500000000000026400                                                  12
00000012100000410427/09/200500000000000002900                                                  12
00000012100000470419/10/200500000000000001834                                                  12
00000012100000480417/10/200500000000000013300                                                  12
00000012100000510407/11/200500000000000006000                                                  12
00000012100000530419/10/200500000000000030000                                                  12
00000012100000540426/10/200500000000000003650                                                  12
00000012100000570431/10/200500000000000013100                                                  12
00000012100000580418/10/200500000000000015000                                                  12
00000012100000590411/11/200500000000000045000                                                  12
00000012100000640418/10/200500000000000018100                                                  12
00000012100000670421/10/200500000000000023000                                                  12
00000012100000690428/10/200500000000000016861                                                  12
00000012100000700417/11/200500000000000004600                                                  12
00000012100000710421/10/200500000000000005000                                                  12
00000012100000750424/10/200500000000000018000                                                  12
00000012100000760427/10/200500000000000003650                                                  12
00000012100000800416/11/200500000000000011000                                                  12
00000012100012100205/11/200400000000000038220                                                  1 
00000012100282510205/11/200400000000000003822                                                  1 
00000012100282520205/11/200400000000000005200                                                  1 
00000012100282570205/11/200400000000000019246                                                  1 
00000012100282600205/11/200400000000000005700                                                  1 
00000012100295620416/09/200500000000000020900                                                  12
00000012100295800411/10/200500000000000007980                                                  12
00000012870166410211/06/200400000000000031000                                                  1 
00000012870166410216/07/200400000000000031000                                                  1 
00000012870166460211/06/200400000000000017800                                                  1 
00000012870166540211/06/200400000000000013200                                                  1 
00000012870166550211/06/200400000000000006828                                                  1 
00000012870166570211/06/200400000000000018240                                                  1 
00000012870166610211/06/200400000000000024859                                                  1 
00000012870166620211/06/200400000000000024859                                                  1 
00000012870166630211/06/200400000000000024859                                                  1 
00000012870166640211/06/200400000000000024859                                                  1 
00000012870166650211/06/200400000000000015500                                                  1 
00000012870166700211/06/200400000000000047260                                                  1 
00000012870166710211/06/200400000000000047260                                                  1 
00000012870168050214/06/200400000000000028025                                                  1 
00000012870168060214/06/200400000000000028025                                                  1 
00000012870168070211/06/200400000000000028025                                                  1 
00000012870168070216/07/200400000000000028025                                                  1 
00000012870168080211/06/200400000000000028025                                                  1 
00000012870168080216/07/200400000000000028025                                                  1 
00000012870168090211/06/200400000000000028025                                                  1 
00000012870168090216/07/200400000000000028025                                                  1 
00000012870168100214/06/200400000000000028025                                                  1 
00000012870168120211/06/200400000000000026122                                                  1 
00000012870168170211/06/200400000000000024859                                                  1 
00000012870168180211/06/200400000000000024859                                                  1 
00000012870168190211/06/200400000000000024859                                                  1 
00000012870168200211/06/200400000000000024859                                                  1 
00000013680000980212/11/200400000000000140000                                                  1 
00000013680000980428/10/200400000000000140000                                                  12
00000013680002840210/08/200500000000000014000                                                  1 
00000013680002840410/06/200500000000000014000                                                  12
00000013680002960210/08/200500000000000006900                                                  1 
00000013680002960417/06/200500000000000006990                                                  12
00000013680003200210/08/200500000000000023423                                                  1 
00000013680003200226/08/200500000000000023423                                                  1 
00000013680003200424/06/200500000000000023423                                                  12
00000013680003200426/08/200500000000000023423                                                  12
00000013680004130217/08/200500000000000050000                                                  1 
00000013680004130403/06/200500000000000050000                                                  12
00000013680004150217/08/200500000000000050000                                                  1 
00000013680004150424/06/200500000000000050000                                                  12
00000014060000110219/07/200500000000000022900                                                  1 
00000014060000110416/11/200400000000000022900                                                  12
00000014060000120219/07/200500000000000012439                                                  1 
00000014060000120422/10/200400000000000012439                                                  12
00000014060000130219/07/200500000000000017604                                                  1 
00000014060000130405/11/200400000000000017604                                                  12
00000014060000140219/07/200500000000000051439                                                  1 
00000014060000140409/11/200400000000000051439                                                  12
00000014060000160219/07/200500000000000013930                                                  1 
00000014060000160412/11/200400000000000013930                                                  12
00000014060591500220/07/200500000000000005000                                                  1 
00000014060655180219/07/200500000000000021960                                                  1 
00000014060655180426/08/200400000000000021960                                                  12
00000014900000020402/05/200500000000000135000                                                  12
00000014900000160229/04/200500000000000093600                                                  1 
00000014900000160411/04/200500000000000093600                                                  12
00000014900000220422/06/200500000000000075000                                                  12
00000014900000230431/05/200500000000000038300                                                  12
00000014900000250409/06/200500000000000011190                                                  12
00000014900000260406/05/200500000000000022500                                                  12
00000014900000270430/05/200500000000000123000                                                  12
00000014900000280409/06/200500000000000123000                                                  12
00000014900000330430/06/200500000000000171000                                                  12
00000014900000350428/06/200500000000000108900                                                  12
00000014900000360422/06/200500000000000100000                                                  12
00000014900000370408/06/200500000000000100000                                                  12
00000014900558870406/05/200500000000000013700                                                  12
00000014900558930402/06/200500000000000017400                                                  12
00000014900558940404/07/200500000000000017400                                                  12
00000014900558950424/08/200500000000000017400                                                  12
00000014900558960431/08/200500000000000017400                                                  12
00000014900558970430/09/200500000000000017400                                                  12
00000015200000780412/08/200500000000000032280                                                  12
00000015200000800413/10/200500000000000032280                                                  12
00000015200000810414/11/200500000000000032280                                                  12
00000015200001070412/08/200500000000000006947                                                  12
00000015200001090417/10/200500000000000006947                                                  12
00000015200001700403/11/200500000000000015900                                                  12
00000015200444920408/03/200500000000000009370                                                  12
00000015200487850219/04/200400000000000030000                                                  1 
00000015200487940219/04/200400000000000009823                                                  1 
00000015200494420219/04/200400000000000017775                                                  1 
00000015200494530219/04/200400000000000033925                                                  1 
00000015200695000418/08/200500000000000017570                                                  12
00000017320000180420/07/200500000000000015798                                                  12
00000017320000220211/08/200500000000000017122                                                  1 
00000017320000220419/07/200500000000000017122                                                  12
00000017320000220420/07/200500000000000017122                                                  12
00000017320000230419/08/200500000000000017122                                                  12
00000017320000240419/09/200500000000000017122                                                  12
00000017320000250419/10/200500000000000017122                                                  12
00000017320712330214/04/200500000000000006500                                                  1 
00000017320712330408/03/200500000000000006500                                                  12
00000020030583490224/02/200500000000000019800                                                  1 
00000020460598980213/07/200400000000000046142                                                  1 
00000020460598980206/01/200500000000000046142                                                  1 
00000020460598980224/02/200500000000000046142                                                  1 
00000020460598980218/04/200500000000000046142                                                  1 
00000020460598980414/05/200400000000000046142                                                  12
00000020460695010213/07/200400000000000015610                                                  1 
00000020460695010413/05/200400000000000015610                                                  12
00000020460695020213/07/200400000000000010283                                                  1 
00000020460695020414/06/200400000000000010283                                                  12
00000020460695030206/01/200500000000000007405                                                  1 
00000020460695030414/06/200400000000000007405                                                  12
00000020890000050415/03/200500000000000066578                                                  12
00000020890000070412/05/200500000000000066578                                                  12
00000020890000080414/06/200500000000000066578                                                  12
00000020890000090414/07/200500000000000066578                                                  12
00000020890000100412/08/200500000000000066578                                                  12
00000020890000110414/09/200500000000000066578                                                  12
00000020890000120413/10/200500000000000066578                                                  12
00000020890000130414/11/200500000000000066578                                                  12
00000020890000190415/04/200500000000000016596                                                  12
00000020890000200416/05/200500000000000016596                                                  12
00000021190002460228/12/200400000000000003960                                                  1 
00000021190002460412/08/200400000000000003960                                                  12
00000021190002480228/12/200400000000000029330                                                  1 
00000021190002480423/07/200400000000000029330                                                  12
00000021190002490228/12/200400000000000141257                                                  1 
00000021190002490428/07/200400000000000141257                                                  12
00000021190002500228/12/200400000000000008610                                                  1 
00000021190002500409/08/200400000000000008610                                                  12
00000021190002520228/12/200400000000000009900                                                  1 
00000021190002530228/01/200500000000000027638                                                  1 
00000021190002530411/08/200400000000000027638                                                  12
00000021190002540228/12/200400000000000024000                                                  1 
00000021190002540413/08/200400000000000024000                                                  12
00000021190002550228/12/200400000000000142138                                                  1 
00000021190002550404/08/200400000000000142138                                                  12
00000021190002560227/12/200400000000000025121                                                  1 
00000021190002560411/08/200400000000000025121                                                  12
00000021190002570228/12/200400000000000008700                                                  1 
00000021190002580228/12/200400000000000112896                                                  1 
00000021190002580411/08/200400000000000112896                                                  12
00000021190002590227/12/200400000000000022889                                                  1 
00000021190002590420/08/200400000000000022889                                                  12
00000021190002600228/12/200400000000000155935                                                  1 
00000021190002600425/08/200400000000000155935                                                  12
00000021190004650423/05/200500000000000052940                                                  12
00000021190004720413/05/200500000000000018345                                                  12
00000021190004730209/11/200500000000000012870CONFORME DECLARA플O DO ASSOCIADO                  1 
00000021190004730417/05/200500000000000012879                                                  12
00000021190004750410/06/200500000000000037685                                                  12
00000021190004770425/05/200500000000000018345                                                  12
00000021190004800420/06/200500000000000023000                                                  12
00000021190004810409/06/200500000000000008640                                                  12
00000021190004840425/05/200500000000000005400                                                  12
00000021190004850424/06/200500000000000028540                                                  12
00000021190004860209/11/200500000000000020593CONFORME DECLARA플O DO ASSOCIADO                  1 
00000021190004860413/06/200500000000000020593                                                  12
00000021190004870406/07/200500000000000016000                                                  12
00000021190004880409/09/200500000000000016000                                                  12
00000021190004890420/06/200500000000000014230                                                  12
00000021190004910209/11/200500000000000008640CONFORME DECLARA플O DO ASSOCIADO                  1 
00000021190004910413/07/200500000000000008640                                                  12
00000021190004920408/07/200500000000000035917                                                  12
00000021190004930209/11/200500000000000008000CONFORME DECLARA플O DO ASSOCIADO                  1 
00000021190004930408/07/200500000000000008000                                                  12
00000021190004940209/11/200500000000000021681CONFORME DECLARA플O DO ASSOCIADO                  1 
00000021190004940427/07/200500000000000021681                                                  12
00000021190004950209/11/200500000000000036690CONFORME DECLARA플O DO ASSOCIADO                  1 
00000021190004950413/07/200500000000000036690                                                  12
00000021190004960209/11/200500000000000012200CONFORME DECLARA플O DO ASSOCIADO                  1 
00000021190004960422/07/200500000000000012200                                                  12
00000021190004980404/08/200500000000000293947                                                  12
00000021190005000413/09/200500000000000027410                                                  12
00000021190397660227/12/200400000000000025000                                                  1 
00000021190708760227/12/200400000000000049100                                                  1 
00000021190759320228/12/200400000000000023000                                                  1 
00000021190759320407/07/200400000000000023000                                                  12
00000021190759330228/01/200500000000000007574                                                  1 
00000021190759330405/07/200400000000000007574                                                  12
00000022080259070215/06/200400000000000045549                                                  1 
00000022080259080215/06/200400000000000045549                                                  1 
00000022910000840418/10/200500000000000010000                                                  12
00000022910000890417/10/200500000000000009200                                                  12
00000022910647030204/06/200400000000000016500                                                  1 
00000022910647030212/08/200400000000000016500                                                  1 
00000022910647030218/04/200500000000000016500                                                  1 
00000022910647030206/07/200500000000000016500                                                  1 
00000022910647030421/05/200400000000000016500                                                  12
00000022910647050204/06/200400000000000025000                                                  1 
00000022910647050212/08/200400000000000025000                                                  1 
00000022910647050218/04/200500000000000025000                                                  1 
00000022910647050206/07/200500000000000025000                                                  1 
00000022910647050414/05/200400000000000025000                                                  12
00000022910709220204/06/200400000000000018500                                                  1 
00000022910709220212/08/200400000000000018500                                                  1 
00000022910709220426/05/200400000000000018500                                                  12
00000022910709230223/06/200400000000000002500                                                  1 
00000022910709230417/05/200400000000000002500                                                  12
00000022910709300204/06/200400000000000018000                                                  1 
00000024530699400419/04/200400000000000045000                                                  12
00000024530709480422/04/200400000000000016100                                                  12
00000024530709490421/05/200400000000000016100                                                  12
00000024530709500425/06/200400000000000016100                                                  12
00000024530709510419/07/200400000000000405000                                                  12
00000024530709520420/07/200400000000000405000                                                  12
00000024530709550419/07/200400000000000100000                                                  12
00000025770000020217/02/200500000000000007500                                                  1 
00000025770000020224/02/200500000000000007500                                                  1 
00000025770000020411/08/200400000000000007500                                                  12
00000025770000070210/02/200500000000000006700                                                  1 
00000025770000070424/11/200400000000000006700                                                  12
00000025770000090210/02/200500000000000006700                                                  1 
00000025770000090424/01/200500000000000006700                                                  12
00000025770000120210/02/200500000000000032000                                                  1 
00000025770000120426/10/200400000000000032000                                                  12
00000025770000160409/05/200500000000000011000                                                  12
00000025930049220204/07/200500000000000015000                                                  1 
00000025930049220412/04/200400000000000015000                                                  12
00000027120647340207/05/200400000000000017000                                                  1 
00000027120647340412/04/200400000000000017000                                                  12
00000027120647370207/05/200400000000000023000                                                  1 
00000027120647370412/04/200400000000000023000                                                  12
00000027710168640412/08/200400000000000003000                                                  12
00000027710168660416/09/200400000000000003000                                                  12
00000027710168690427/09/200400000000000004390                                                  12
00000027710168700414/09/200400000000000018300                                                  12
00000027710168720401/10/200400000000000003500                                                  12
00000027710168730417/09/200400000000000010000                                                  12
00000027710168740416/09/200400000000000003500                                                  12
00000027710168760427/09/200400000000000005800                                                  12
00000027710168770409/11/200400000000000030600                                                  12
00000027710168780420/10/200400000000000011750                                                  12
00000027710168800420/10/200400000000000019000                                                  12
00000028010001470419/08/200500000000000038558                                                  12
00000028010001480421/09/200500000000000038558                                                  12
00000028010001490420/10/200500000000000038558                                                  12
00000028010001900416/08/200500000000000038860                                                  12
00000028010001910416/09/200500000000000038860                                                  12
00000028010001920424/10/200500000000000038860                                                  12
00000028010001930416/11/200500000000000038860                                                  12
00000028010002060427/07/200500000000000034520                                                  12
00000028010002070425/08/200500000000000034520                                                  12
00000028010002080427/09/200500000000000034520                                                  12
00000028010002090426/10/200500000000000034520                                                  12
00000028010002250417/08/200500000000000023200                                                  12
00000028010002260416/09/200500000000000023200                                                  12
00000028010002270418/10/200500000000000023200                                                  12
00000028010002480427/07/200500000000000032651                                                  12
00000028010002490426/08/200500000000000032651                                                  12
00000028010002500427/09/200500000000000032651                                                  12
00000028010002510427/10/200500000000000032651                                                  12
00000028010002710419/08/200500000000000018947                                                  12
00000028010002720421/09/200500000000000018947                                                  12
00000028010002830424/08/200500000000000018458                                                  12
00000028010002840426/09/200500000000000018458                                                  12
00000028010002850425/10/200500000000000018458                                                  12
00000028010002930422/08/200500000000000018799                                                  12
00000028010002940422/09/200500000000000018799                                                  12
00000031150000210211/10/200400000000000014000                                                  1 
00000031150000210225/01/200500000000000014000                                                  1 
00000031150000210228/01/200500000000000014000                                                  1 
00000031150000210424/09/200400000000000014000                                                  12
00000031150000210428/01/200500000000000014000                                                  12
00000031150000290225/01/200500000000000060000                                                  1 
00000031150000290403/11/200400000000000060000                                                  12
00000031150000340225/01/200500000000000060000                                                  1 
00000031150000340403/01/200500000000000060000                                                  12
00000031150000410225/01/200500000000000015450                                                  1 
00000031150000410422/11/200400000000000015450                                                  12
00000031150000440216/02/200500000000000005000                                                  1 
00000031150000440425/01/200500000000000005000                                                  12
00000031150000450210/02/200500000000000020000                                                  1 
00000031150000450426/01/200500000000000020000                                                  12
00000031150000460425/02/200500000000000039000                                                  12
00000031150000470408/03/200500000000000081686                                                  12
00000031150000480406/04/200500000000000081687                                                  12
00000031150000490406/05/200500000000000081687                                                  12
00000031150000510424/03/200500000000000019500                                                  12
00000031150000520426/04/200500000000000019500                                                  12
00000031150000540423/02/200500000000000017945                                                  12
00000031150000560422/03/200500000000000026000                                                  12
00000031150112470202/07/200400000000000085900                                                  1 
00000031150112550202/07/200400000000000026000                                                  1 
00000031150130350202/07/200400000000000035000                                                  1 
00000031150130350406/05/200400000000000035000                                                  12
00000031150178410225/01/200500000000000015000                                                  1 
00000031150178410421/09/200400000000000015000                                                  12
00000031150178490211/10/200400000000000014800                                                  1 
00000031150178490415/09/200400000000000014800                                                  12
00000031150178520225/01/200500000000000014450                                                  1 
00000031150178520405/10/200400000000000014450                                                  12
00000031150178540211/10/200400000000000010000                                                  1 
00000031150178540423/08/200400000000000010000                                                  12
00000031150178550225/01/200500000000000020000                                                  1 
00000031150178550420/09/200400000000000020000                                                  12
00000031150178560228/01/200500000000000016000                                                  1 
00000031150178560422/09/200400000000000016000                                                  12
00000031150178600225/01/200500000000000023900                                                  1 
00000031150178600420/09/200400000000000023900                                                  12
00000034410687120213/05/200400000000000060000                                                  1 
00000034410687120202/06/200400000000000060000                                                  1 
00000034410687120405/05/200400000000000060000                                                  12
00000035570355800216/09/200500000000000050000                                                  1 
00000041030000220416/11/200500000000000032920                                                  12
00000041030000700417/11/200500000000000014783                                                  12
00000041030000880431/10/200500000000000093800                                                  12
00000041030000990421/10/200500000000000119400                                                  12
00000041030001020417/11/200500000000000015000                                                  12
00000041030001030420/10/200500000000000003000                                                  12
00000041030001040426/10/200500000000000002090                                                  12
00000041030001060431/10/200500000000000010000                                                  12
00000041030511100213/09/200400000000000015738                                                  1 
00000044130619130226/04/200400000000000012400                                                  1 
00000044130619170226/04/200400000000000014500                                                  1 
00000044130713130215/07/200500000000000003400                                                  1 
00000044130713130407/05/200400000000000003400                                                  12
00000044130713150215/07/200500000000000018600                                                  1 
00000044130713150424/05/200400000000000018600                                                  12
00000044300532760217/06/200400000000000010000                                                  1 
00000044300532760429/04/200400000000000010000                                                  12
00000044640306360413/07/200500000000000021250                                                  12
00000044640413380413/10/200500000000000041000                                                  12
00000044640413390411/11/200500000000000041000                                                  12
00000044640413400430/09/200500000000000003100                                                  12
00000052820631010229/07/200500000000000013845                                                  1 
00000052820631010431/08/200400000000000013845                                                  12
00000052820631030229/07/200500000000000013845                                                  1 
00000052820631030403/11/200400000000000013845                                                  12
00000052820631050431/12/200400000000000013845                                                  12
00000052820631140413/09/200400000000000009800                                                  12
00000052820631160418/11/200400000000000009800                                                  12
00000052820631180420/09/200400000000000033300                                                  12
00000052820631190420/10/200400000000000033300                                                  12
00000052820672610207/05/200400000000000036720                                                  1 
00000052820672610229/07/200500000000000036720                                                  1 
00000052820672610407/04/200400000000000036720                                                  12
00000052820672660210/02/200500000000000036720                                                  1 
00000052820672660409/09/200400000000000036720                                                  12
00000052820672670210/02/200500000000000036720                                                  1 
00000052820672670407/10/200400000000000036720                                                  12
00000052820672680229/07/200500000000000036720                                                  1 
00000052820672680409/11/200400000000000036720                                                  12
00000052820672690229/07/200500000000000036720                                                  1 
00000052820672690408/12/200400000000000036720                                                  12
00000052820672700229/07/200500000000000036720                                                  1 
00000052820672700411/01/200500000000000036720                                                  12
00000052820672710230/09/200500000000000036720                                                  1 
00000052820672710411/02/200500000000000036720                                                  12
00000052820672720230/09/200500000000000036720                                                  1 
00000052820672720409/03/200500000000000036720                                                  12
00000052820711210203/11/200400000000000027095                                                  1 
00000052820711210414/09/200400000000000027095                                                  12
00000052820711220416/11/200400000000000015000                                                  12
00000052820711230407/12/200400000000000035000                                                  12
00000057970000020404/11/200400000000000009600                                                  12
00000057970000030402/12/200400000000000009600                                                  12
00000057970000040418/11/200400000000000011323                                                  12
00000057970000050415/12/200400000000000011323                                                  12
00000057970000060413/01/200500000000000011323                                                  12
00000057970000070415/02/200500000000000011323                                                  12
00000057970000090411/01/200500000000000006140                                                  12
00000057970000100419/01/200500000000000006140                                                  12
00000057970000110422/02/200500000000000006140                                                  12
00000057970000120422/03/200500000000000006140                                                  12
00000057970000130422/04/200500000000000006140                                                  12
00000058270237280213/05/200500000000000002850                                                  1 
00000062620316530204/08/200500000000000011050                                                  1 
00000062620316540204/08/200500000000000011050                                                  1 
00000062620316550204/08/200500000000000011050                                                  1 
00000062620316560204/08/200500000000000011050                                                  1 
00000062620316570204/08/200500000000000011050                                                  1 
00000062700000180221/02/200500000000000009000                                                  1 
00000062700000180420/12/200400000000000009000                                                  12
00000062700000800221/02/200500000000000146400                                                  1 
00000062700000800421/12/200400000000000146400                                                  12
00000062700000990221/02/200500000000000009000                                                  1 
00000062700000990407/12/200400000000000009000                                                  12
00000062700001000221/02/200500000000000019000                                                  1 
00000062700001000410/12/200400000000000019000                                                  12
00000062700001090221/02/200500000000000065000                                                  1 
00000062700001090425/01/200500000000000065000                                                  12
00000062700001110218/07/200500000000000065000                                                  1 
00000062700001110202/08/200500000000000065000                                                  1 
00000062700001110429/03/200500000000000065000                                                  12
00000062700001210218/07/200500000000000010000                                                  1 
00000062700001210202/08/200500000000000010000                                                  1 
00000062700001210429/03/200500000000000010000                                                  12
00000062700761910221/02/200500000000000025906                                                  1 
00000062700761910421/12/200400000000000025906                                                  12
00000063510000410418/02/200500000000000056345                                                  12
00000065130205510204/11/200500000000000003000DECLARA플O                                        1 
00000065130205580204/11/200500000000000006000DECLARA플O                                        1 
00000065130205600204/11/200500000000000017000DECLARA플O                                        1 
00000065130205650229/09/200500000000000005000                                                  1 
00000065130205650415/08/200500000000000005000                                                  12
00000065130205670208/08/200500000000000004000                                                  1 
00000065130205670431/05/200500000000000004000                                                  12
00000065130205680208/08/200500000000000003500                                                  1 
00000065130205680430/05/200500000000000003500                                                  12
00000065130205710208/08/200500000000000044000                                                  1 
00000065130205710413/07/200500000000000044000                                                  12
00000065130205790229/09/200500000000000055000                                                  1 
00000065130205790415/08/200500000000000055000                                                  12
00000066100003940218/04/200500000000000080000                                                  1 
00000066100003940410/12/200400000000000080000                                                  12
00000066100005010218/04/200500000000000934000                                                  1 
00000066100005010419/11/200400000000000934000                                                  12
00000066100005350218/04/200500000000000022623                                                  1 
00000066100005350410/12/200400000000000022623                                                  12
00000066100005440218/04/200500000000000083905                                                  1 
00000066100005440427/01/200500000000000083905                                                  12
00000066100005680218/04/200500000000000026000                                                  1 
00000066100005680410/12/200400000000000026000                                                  12
00000066100006570218/04/200500000000000176275                                                  1 
00000066100006570425/02/200500000000000176275                                                  12
00000069040000270411/11/200400000000000037500                                                  12
00000069040000610410/11/200400000000000025353                                                  12
00000069040000720419/10/200400000000000120000                                                  12
00000069040633200424/12/200400000000000014390                                                  12
00000071960000540220/07/200400000000000065334                                                  1 
00000071960002130224/02/200500000000000039397                                                  1 
00000071960002130407/12/200400000000000039397                                                  12
00000071960003610224/02/200500000000000053688                                                  1 
00000071960003610430/12/200400000000000053688                                                  12
00000071960003690218/01/200500000000000107891                                                  1 
00000071960003690218/04/200500000000000107891                                                  1 
00000071960003690411/01/200500000000000107891                                                  12
00000071960003830214/04/200500000000000087902                                                  1 
00000071960003830223/05/200500000000000087902                                                  1 
00000071960003830429/03/200500000000000087902                                                  12
00000071960003920213/05/200500000000000095167                                                  1 
00000071960003920425/04/200500000000000095167                                                  12
00000071960003950213/05/200500000000000042999                                                  1 
00000071960003950425/04/200500000000000042999                                                  12
00000071960003960213/05/200500000000000099531                                                  1 
00000071960003960426/04/200500000000000099531                                                  12
00000071960003970213/05/200500000000000073142                                                  1 
00000071960003970223/05/200500000000000073142                                                  1 
00000071960003970403/05/200500000000000073142                                                  12
00000071960003980213/05/200500000000000124250                                                  1 
00000071960003980414/04/200500000000000124250                                                  12
00000071960003990219/05/200500000000000041080                                                  1 
00000071960003990403/05/200500000000000041080                                                  12
00000071960006600216/09/200500000000000193988                                                  1 
00000071960006600426/08/200500000000000193988                                                  12
00000083970694290426/04/200400000000000011945                                                  12
00000083970694300425/05/200400000000000011945                                                  12
00000083970694310425/06/200400000000000011945                                                  12
00000085590000480204/07/200500000000000026000                                                  1 
00000085590000480221/07/200500000000000026000                                                  1 
00000085590000480216/08/200500000000000026000                                                  1 
00000085590000480225/08/200500000000000026000                                                  1 
00000085590000480401/06/200500000000000026000                                                  12
00000085750328720416/02/200500000000000021200                                                  12
00000085750328760428/12/200400000000000099749                                                  12
00000085750328980416/03/200500000000000015900                                                  12
00000089310370220216/02/200500000000000037122                                                  1 
00000089310370300216/02/200500000000000037122                                                  1 
00000106930585460217/06/200400000000000024135                                                  1 
00000106930585470217/06/200400000000000024135                                                  1 
00000106930585480413/04/200400000000000024135                                                  12
00000106930585490412/05/200400000000000024135                                                  12
00000106930585490413/05/200400000000000024135                                                  12
00000106930585510413/07/200400000000000024135                                                  12
00000106930585520412/08/200400000000000024135                                                  12
00000106930720060409/07/200400000000000020059                                                  12
00000106930720070411/08/200400000000000020059                                                  12
00000106930720080413/09/200400000000000020059                                                  12
00000106930720090411/10/200400000000000020059                                                  12
00000106930720100411/11/200400000000000020059                                                  12
00000106930720110410/12/200400000000000020059                                                  12
00000106930720130419/04/200400000000000028118                                                  12
00000106930720140418/05/200400000000000028118                                                  12
00000106930720150417/06/200400000000000028118                                                  12
00000106930720160416/07/200400000000000028118                                                  12
00000106930720170417/08/200400000000000028118                                                  12
00000110880485520413/10/200500000000000110000                                                  12
00000113040550860407/07/200400000000000036300                                                  12
00000113040550910407/06/200400000000000002700                                                  12
00000113040550920413/07/200400000000000004340                                                  12
00000113040594810417/08/200400000000000006000                                                  12
00000113040594880431/12/200400000000000008400                                                  12
00000113040594890431/01/200500000000000001000                                                  12
00000113040594910417/02/200500000000000003000                                                  12
00000113630000060231/10/200500000000000020000                                                  1 
00000113630000060413/06/200500000000000020000                                                  12
00000113630000080231/10/200500000000000020000                                                  1 
00000113630000080431/08/200500000000000020000                                                  12
00000113630000090231/10/200500000000000020000                                                  1 
00000113630000090416/09/200500000000000020000                                                  12
00000113630000100231/10/200500000000000020000                                                  1 
00000113630000100411/10/200500000000000020000                                                  12
00000113630000150231/10/200500000000000016650                                                  1 
00000113630000150428/07/200500000000000016650                                                  12
00000113630000240415/08/200500000000000010000                                                  12
00000113630000290412/09/200500000000000016500                                                  12
00000113630000310430/09/200500000000000015000                                                  12
00000113710527580210/02/200500000000000023966                                                  1 
00000113710536150210/02/200500000000000009780                                                  1 
00000113710536340210/02/200500000000000003000                                                  1 
00000114280000010401/11/200400000000000014012                                                  12
00000114280000020403/12/200400000000000014012                                                  12
00000114280000030431/12/200400000000000014012                                                  12
00000114280000040401/02/200500000000000014012                                                  12
00000114280000050404/03/200500000000000014012                                                  12
00000114280000060401/04/200500000000000014012                                                  12
00000114280000070402/05/200500000000000014012                                                  12
00000114280000080402/06/200500000000000014012                                                  12
00000114280000090401/07/200500000000000014012                                                  12
00000114280000100401/08/200500000000000014012                                                  12
00000114280000120416/08/200400000000000001000                                                  12
00000114280000140430/09/200400000000000038000                                                  12
00000114280000160421/09/200400000000000015000                                                  12
00000114280000180425/10/200400000000000011528                                                  12
00000114280000200411/11/200400000000000037669                                                  12
00000114280000220430/08/200400000000000011113                                                  12
00000114280000230429/09/200400000000000011113                                                  12
00000114280000240429/10/200400000000000011113                                                  12
00000114280000250403/12/200400000000000011113                                                  12
00000114280000260430/12/200400000000000011113                                                  12
00000114280000270428/01/200500000000000011113                                                  12
00000114280000280401/03/200500000000000011113                                                  12
00000114280000290430/03/200500000000000011113                                                  12
00000114280000300429/04/200500000000000011113                                                  12
00000114280000310430/05/200500000000000011113                                                  12
00000114280000320429/06/200500000000000011113                                                  12
00000114280000330429/07/200500000000000011113                                                  12
00000114280000340430/08/200500000000000011113                                                  12
00000114280000350430/09/200500000000000011113                                                  12
00000114280000360428/10/200500000000000011113                                                  12
00000114280000380427/08/200400000000000012151                                                  12
00000114280000400401/10/200400000000000014012                                                  12
00000120090000950210/02/200500000000000035000                                                  1 
00000120090000950410/01/200500000000000035000                                                  12
00000122460003260209/08/200500000000000100000                                                  1 
00000122460003260419/04/200500000000000100000                                                  12
00000122460005780209/08/200500000000000028216                                                  1 
00000122460005780420/04/200500000000000028216                                                  12
00000122460005870209/08/200500000000000011000                                                  1 
00000122460005870425/04/200500000000000011000                                                  12
00000122460005960219/08/200500000000000005000                                                  1 
00000122460005960429/04/200500000000000005000                                                  12
00000131450659430411/01/200500000000000030000                                                  12
00000131450659490421/01/200500000000000029000                                                  12
00000131450659500415/02/200500000000000012000                                                  12
00000131450659510411/02/200500000000000025000                                                  12
00000131450659550410/03/200500000000000025000                                                  12
00000131450659560403/02/200500000000000035000                                                  12
00000131450659570409/02/200500000000000058000                                                  12
00000131450659580401/04/200500000000000055000                                                  12
00000131450659590402/03/200500000000000030000                                                  12
00000132420000540207/10/200500000000000002500                                                  1 
00000132420000540411/05/200500000000000002500                                                  12
00000132420000550208/07/200500000000000005000                                                  1 
00000132420000550427/04/200500000000000005000                                                  12
00000132420000560207/10/200500000000000003000                                                  1 
00000132420000560413/05/200500000000000003000                                                  12
00000132420000570208/07/200500000000000005000                                                  1 
00000132420000570404/05/200500000000000005000                                                  12
00000134470616110420/04/200400000000000020868                                                  12
00000134470616120414/05/200400000000000020868                                                  12
00000134470616130417/06/200400000000000020868                                                  12
00000134470616140416/07/200400000000000020868                                                  12
00000134470616150416/08/200400000000000020868                                                  12
00000134470616160417/09/200400000000000020868                                                  12
00000137490000950210/12/200400000000000001000                                                  1 
00000137490000950420/10/200400000000000001009                                                  12
00000137490001000210/12/200400000000000001420                                                  1 
00000137490001000420/10/200400000000000001420                                                  12
00000138030694690405/05/200400000000000010460                                                  12
00000138030694710407/04/200400000000000032000                                                  12
00000138030694800229/07/200400000000000056500                                                  1 
00000138030694800407/05/200400000000000056500                                                  12
00000138030696230229/07/200400000000000019897                                                  1 
00000138030696230417/05/200400000000000019897                                                  12
00000138030743050208/08/200500000000000012800                                                  1 
00000138030743050403/05/200400000000000012800                                                  12
00000138030743150413/09/200400000000000024212                                                  12
00000138030743160411/10/200400000000000024212                                                  12
00000139600596500215/10/200400000000000984300                                                  1 
00000139600596500423/06/200400000000000984300                                                  12
00000153180670020201/04/200500000000000017800                                                  1 
00000153180670020430/08/200400000000000017800                                                  12
00000153180670030201/04/200500000000000017800                                                  1 
00000153180670030419/07/200400000000000017800                                                  12
00000153180670100201/04/200500000000000005000                                                  1 
00000153180670100402/07/200400000000000005000                                                  12
00000153180670120214/04/200500000000000005900                                                  1 
00000153180670120403/08/200400000000000005900                                                  12
00000153180670150409/07/200400000000000003000                                                  12
00000153180670200201/04/200500000000000004875                                                  1 
00000153180670200408/11/200400000000000004875                                                  12
00000153420000260221/09/200500000000000006000                                                  1 
00000153420000260412/11/200400000000000006000                                                  12
00000159620727970417/06/200400000000000010000                                                  12
00000162920000650405/01/200500000000000028500                                                  12
00000162920000710401/03/200500000000000035000                                                  12
00000162920000740428/12/200400000000000015800                                                  12
00000162920000770404/01/200500000000000001600                                                  12
00000162920000790426/01/200500000000000010860                                                  12
00000162920000860421/02/200500000000000054000                                                  12
00000162920000900406/01/200500000000000004700                                                  12
00000162920000920424/12/200400000000000013000                                                  12
00000162920000930419/05/200500000000000026000                                                  12
00000162920000940417/01/200500000000000013000                                                  12
00000162920000970419/01/200500000000000157904                                                  12
00000162920000980418/02/200500000000000151895                                                  12
00000162920000990418/01/200500000000000004467                                                  12
00000162920001000420/01/200500000000000020200                                                  12
00000166670000440415/03/200500000000000030000                                                  12
00000166670000470426/04/200500000000000131557                                                  12
00000166670001260406/05/200500000000000063771                                                  12
00000166670001290415/03/200500000000000011600                                                  12
00000166670001330416/06/200500000000000012000                                                  12
00000166670001340414/07/200500000000000012000                                                  12
00000166670001360416/06/200500000000000013300                                                  12
00000166670001370414/07/200500000000000013300                                                  12
00000166670001400429/04/200500000000000018098                                                  12
00000166670001430429/04/200500000000000011100                                                  12
00000166670001440417/03/200500000000000060900                                                  12
00000166670001460423/02/200500000000000011500                                                  12
00000166670001480431/05/200500000000000300000                                                  12
00000166670001550408/06/200500000000000006000                                                  12
00000166670001560429/04/200500000000000011090                                                  12
00000166670001570429/03/200500000000000003650                                                  12
00000166910000680225/08/200500000000000006845                                                  1 
00000166910000680404/04/200500000000000006845                                                  12
00000166910000730225/08/200500000000000002000                                                  1 
00000166910000730404/04/200500000000000002000                                                  12
00000166910000850225/08/200500000000000005100                                                  1 
00000166910000850429/04/200500000000000005100                                                  12
00000166910000860225/08/200500000000000005100                                                  1 
00000166910000860401/06/200500000000000005100                                                  12
00000166910000870225/08/200500000000000014628                                                  1 
00000166910000870405/04/200500000000000014628                                                  12
00000166910000890225/08/200500000000000002985                                                  1 
00000166910000890404/04/200500000000000002985                                                  12
00000166910000910225/08/200500000000000006000                                                  1 
00000166910000910429/04/200500000000000006000                                                  12
00000166910000920225/08/200500000000000006000                                                  1 
00000166910000920428/06/200500000000000006000                                                  12
00000166910000930225/08/200500000000000004500                                                  1 
00000166910000930407/04/200500000000000004500                                                  12
00000166910000940225/08/200500000000000006866                                                  1 
00000166910000940413/04/200500000000000006866                                                  12
00000166910000950225/08/200500000000000006910                                                  1 
00000166910000950404/04/200500000000000006910                                                  12
00000166910000970225/08/200500000000000004700                                                  1 
00000166910000970420/04/200500000000000004700                                                  12
00000173290000130421/02/200500000000000015798                                                  12
00000173290000140422/03/200500000000000015798                                                  12
00000173290000150419/04/200500000000000015798                                                  12
00000173290000160419/05/200500000000000015798                                                  12
00000173290000170421/06/200500000000000015798                                                  12
00000173290000180419/07/200500000000000015798                                                  12
00000173290000190419/08/200500000000000015798                                                  12
00000173290000300417/02/200500000000000011960                                                  12
00000173290000360431/01/200500000000000020000                                                  12
00000173290000390415/02/200500000000000020821                                                  12
00000173290000410416/02/200500000000000006500                                                  12
00000173290000430418/01/200500000000000001890                                                  12
00000173290000460423/02/200500000000000009000                                                  12
00000173290000490427/01/200500000000000003000                                                  12
00000173290000500425/02/200500000000000003000                                                  12
00000173290000510429/03/200500000000000003000                                                  12
00000173290000530416/02/200500000000000002500                                                  12
00000173290000540415/02/200500000000000017700                                                  12
00000173290000560404/03/200500000000000004000                                                  12
00000173290000570416/02/200500000000000010100                                                  12
00000173290000580416/03/200500000000000010150                                                  12
00000173290000590401/04/200500000000000005720                                                  12
00000173290000840422/02/200500000000000006000                                                  12
00000173290000850401/03/200500000000000008460                                                  12
00000173290000860424/03/200500000000000013000                                                  12
00000173290000870414/03/200500000000000009360                                                  12
00000173290000880412/04/200500000000000009360                                                  12
00000173290000910417/03/200500000000000010000                                                  12
00000173290000920411/03/200500000000000019839                                                  12
00000173290000930403/03/200500000000000007600                                                  12
00000173290000950422/09/200500000000000024000                                                  12
00000192750000040407/11/200500000000000035000                                                  12
00000192750000060203/10/200500000000000026500                                                  1 
00000192750000060421/09/200500000000000026500                                                  12
00000192750000190207/11/200500000000000059800                                                  1 
00000192750000190418/10/200500000000000059800                                                  12
00000192750000200411/11/200500000000000059800                                                  12
00000700330611720209/11/200500000000000003500                                                  1 
00000700330611720405/04/200500000000000003500                                                  12
00000700330611770209/11/200500000000000009535                                                  1 
00000700330611770418/04/200500000000000009535                                                  12
00000700330728620226/07/200400000000000027138                                                  1 
00000700330728620408/06/200400000000000027138                                                  12
00000700330728730207/12/200400000000000023200                                                  1 
00000700330728730418/10/200400000000000023200                                                  12
00000700330728790209/11/200500000000000033333                                                  1 
00000700330728790425/01/200500000000000033333                                                  12
